:100000000C9498000C94D0000C94B5000C94B5009E
:100010000C94B5000C94B5000C94B5000C94F71436
:100020000C94B5000C94B5000C94B5000C94B5007C
:100030000C94B5000C9419080C94B5000C94B50000
:100040000C942E100C94B5000C94B5000C94B500D3
:100050000C94B5000C94B5000C94B5000C94B5004C
:100060000C94B5000C94B500090222000101008037
:100070000A09040000010300000009210101000138
:100080002216000705810308006412011001000018
:100090000008A02068420001010200011203530081
:1000A000740075006400750069006E006F000C0339
:1000B0004100720054006500630004030904060057
:1000C000FF0901A101150026FF0075089509090027
:1000D000B20201C000000008000201000003040792
:1000E0000000000000000000010204081020408011
:1000F0000102040810200102040810200404040472
:1001000004040404020202020202030303030303C1
:100110000000000023002600290000000000250048
:1001200028002B0000000000240027002A00020005
:1001300011241FBECFEFD4E0DEBFCDBF11E0A0E0A1
:10014000B1E0E4EEFCE202C005900D92A63AB107E0
:10015000D9F722E0A6EAB1E001C01D92A733B207A9
:10016000E1F70E94BA0F0C9470160C940000A82FAF
:10017000B92F80E090E041E050EA609530E009C09E
:100180002D9182279795879510F084279527305ECB
:10019000C8F36F5FA8F30895EADF8D939D930895E8
:1001A000CF93CFB7CF93C3954C9BE9F74C9B09C036
:1001B0004C9B07C04C9B05C04C9B03C04C9B01C093
:1001C000A3C0DF93C0911A02DD27CF5DDD4F4C9BAA
:1001D00002C0DF91EBCF2F930F931F9309B12FEF45
:1001E00004FB20F94F933F9319B14FEF012704FB14
:1001F00021F93BE031C04E7F012F19B1216028C0A9
:10020000102F4D7F2260000009B129C04B7F246070
:10021000012F000019B12BC019B1477F28602AC0F7
:100220004F7E09B120612CC04F7D19B120622FC0D3
:100230004F7B09B1206432C0422709B149934FEF87
:100240000000102714FB20F919B11471C9F1297F9E
:1002500091F2012704FB21F909B1237F89F2315082
:1002600058F1102714FB22F919B1277E79F20127E2
:1002700004FB23F92F7C81F209B1102714FB24F928
:100280002F7971F200C019B1012704FB25F92F73F2
:1002900059F200C009B1102714FB26F9223040F2B0
:1002A00000C019B1012704FB27F9243028F64F7745
:1002B000206819B10000F9CF11E01CBB002719C05C
:1002C0003B503195C31BD04011E01CBB0881033C5F
:1002D000F9F00B34E9F0209118021981110F121373
:1002E000EDCF4A81441F093641F10D3211F0013E34
:1002F00029F700931F023F914F911F910F912F916A
:10030000DF91CCB3C0FD4FCFCF91CFBFCF91189528
:1003100020911F02222379F310911D02112369F508
:1003200034306AF130931D022093190210911A02A1
:100330003BE0311B30931A0222C000911D020130B4
:10034000E4F40AE54F7049F43091050134FD19C019
:1003500000930501C1E0D2E018C030910C0234FDD9
:1003600010C000930C02CDE0D2E00FC02795A8F496
:100370005150A9F4220F0000F9CF4AE503C042ED25
:1003800001C0432FC4E1D0E032E01AB114615C9A9D
:100390001AB90BB120E414E15F93012756E00BB9C1
:1003A000279520F4515021F4220FF9CF012756E070
:1003B00000003B5A0BB9D0F2279528F4515029F48C
:1003C000220F0000F9CF012756E027950BB920F442
:1003D000515021F4220FF9CF012756E02991332300
:1003E0000BB921F60B7E10911E02110FC651D040A1
:1003F0000BB911F01093180211E01CBB00611AB187
:100400001B7E402F4B7E5F9100C000C00BB91AB914
:100410004BB971CF6F927F928F929F92AF92BF92A2
:10042000CF92DF92EF92FF920F931F93CF93DF93C0
:10043000EA012CE3C22ED12CE12CF12CA70196016C
:100440000E94C4156883CA01B901A70196010E94E0
:10045000C4156983CA01B90128E130E040E050E0E9
:100460000E94C41569017A016A83CA01B9016C5FEF
:100470007F4F8F4F9F4F27E030E040E050E00E94D9
:10048000C4156F5F6B83812C912C540140E034E6DE
:10049000632E712C00E911E0242F30E02E54384FE8
:1004A000F901E370FF27309789F4C901B3010E9475
:1004B000B015892B31F4C901B8010E94B015892B00
:1004C00029F48EE691E0A0E0B0E004C08DE691E072
:1004D000A0E0B0E0880E991EAA1EBB1ED501C40183
:1004E000AA27BB27C816D906EA06FB0610F04F5FFD
:1004F000D3CF4E83309799F4C90164E670E00E942F
:10050000B015892B39F4C90160E971E00E94B0157A
:10051000892B29F48EE691E0A0E0B0E004C08DE6DE
:1005200091E0A0E0B0E0881A990AAA0ABB0AC818AC
:10053000D908EA08FB08C90164E670E00E94B0151A
:100540008C01C90160E971E00E94B015A8E0B1E03A
:1005500020E0213041F4309751F40115110529F4C0
:10056000009729F402C04C9103C04DE101C04CE159
:1005700050E060E070E0C416D506E606F70640F0ED
:10058000C41AD50AE60AF70A2F5F11962C3009F72C
:100590002F5F2D83C394CC82DF91CF911F910F9158
:1005A000FF90EF90DF90CF90BF90AF909F908F9093
:1005B0007F906F900895CF92DF92EF92FF92C0905C
:1005C000B601D090B701E090B801F090B9016C1578
:1005D0007D058E059F0571F06B017C014AEB51E0B2
:1005E0000E940A02C092B601D092B701E092B8010F
:1005F000F092B901FF90EF90DF90CF9008950E94A4
:10060000DB028091BC0190E008950E94DB02209102
:10061000BC0130E081E02C3031050CF480E008951D
:100620000E94050391E0811190E0892F08950E94B6
:10063000DB022091BC01222331F0822F90E02D308B
:1006400020F00C9708958CE090E008950E94DB0262
:100650008091BB0190E008950E94DB028091BA0175
:1006600090E008950E94DB028091BE0190E0089521
:100670000E94DB028091BD0190E008950E94DB02A0
:100680008091BF0190E008950E94DB028091C0013B
:1006900090E08E54984F08956F927F928F929F9220
:1006A000AF92BF92CF92DF92EF92FF920F931F9380
:1006B000CF93DF93EC01EE81AE2FB0E020E833E37F
:1006C00041EE51E00E9414164B015C0122EB37E031
:1006D000FD0104E610E080E9E82EFF24F394C9014F
:1006E000825B97408E179F07DCF4C90183709927BE
:1006F000892B99F4C901B8010E94B015892B31F4F6
:10070000C901B7010E94B015892B39F480E8880E21
:1007100081E5981E81E0A81EB11C2F5F3F4FDFCFFF
:100720006D80712CEE54F84FCF0164E670E00E94AA
:10073000B0157C01CF0160E971E00E94B0156C0139
:1007400001E010E0E370FF27061517052CF50230D5
:10075000110581F4309771F4E114F10419F4C11416
:10076000D10441F480E8880E8BE3981E86E2A81E2F
:10077000B11C0FC0D801A95FBE4FAC91B0E020E81A
:1007800031E541E050E00E941416860E971EA81E27
:10079000B91E0F5F1F4FD8CF49812A8130E0A0E1F9
:1007A000BEE00E9405166B017C01242F30E0ACE313
:1007B000B0E00E940516DC01CB018C0D9D1DAE1D25
:1007C000BF1D28816C017D01C20ED11CE11CF11CF2
:1007D000AC81B0E0119720E831E541E050E00E94A3
:1007E0001F16DC01CB018C0D9D1DAE1DBF1DBC0174
:1007F000CD01680D791D8A1D9B1DDF91CF911F9141
:100800000F91FF90EF90DF90CF90BF90AF909F90AF
:100810008F907F906F9008950F931F936093B20114
:100820007093B3018093B4019093B50100910001DE
:10083000109101012091020130910301DC01CB01F3
:10084000800F911FA21FB31F8093AA019093AB0149
:10085000A093AC01B093AD0182E090E09093A90128
:100860008093A8010E9478106093AE017093AF014D
:100870008093B0019093B1011F910F910895CF9291
:10088000DF92EF92FF920F931F930E947810C09017
:10089000AE01D090AF01E090B001F090B1018B01BA
:1008A0009C010C191D092E093F098091B2019091FC
:1008B000B301A091B401B091B501083E13402105E8
:1008C0003105D0F00196A11DB11D8093B201909326
:1008D000B301A093B401B093B501B701A60148518B
:1008E0005C4F6F4F7F4F4093AE015093AF016093C9
:1008F000B0017093B101C9CF4091AA015091AB01F1
:100900006091AC017091AD0184179507A607B707F8
:10091000C8F1E091A601F091A701309799F10995EE
:10092000611571058105910519F00E940C042AC01A
:100930004091000150910101609102017091030109
:100940008091B2019091B301A091B401B091B50131
:10095000840F951FA61FB71F8093AA019093AB0128
:10096000A093AC01B093AD0181E090E02091A8018B
:100970003091A901232B11F480E090E09093A9011C
:100980008093A8016091B2017091B3018091B4018C
:100990009091B5011F910F91FF90EF90DF90CF9054
:1009A00008950E943F040E94DB028091BC0190E008
:1009B00008950E943F040C9417030E943F040E9474
:1009C000050391E0811190E0892F08950E943F0472
:1009D0000C9405030E943F040E94DB028091BB013E
:1009E00090E008950E943F040E94DB028091BA01CA
:1009F00090E008950E943F040E94DB028091BE01B6
:100A000090E008950E943F040E94DB028091BD01A6
:100A100090E008950E943F040E94DB028091BF0194
:100A200090E008950E943F040C944403EF92FF92DB
:100A30000F9394E6E916F1042CF092EBE91A97E093
:100A4000F90A03C09EE1E90EF11CE092C001009397
:100A5000BF012093BE018093BC016093BB01409312
:100A6000BA018AEB91E00E944C030F91FF90EF9046
:100A70000C940C040F931F930091B2011091B301D9
:100A80002091B4013091B501DC01CB01800F911FA1
:100A9000A21FB31F8093B2019093B301A093B4013E
:100AA000B093B5011F910F9108950E943F0480916A
:100AB000A8019091A90108959093A7018093A601A0
:100AC0008091B2019091B301A091B401B091B501B0
:100AD0008093AA019093AB01A093AC01B093AD01B8
:100AE0000C943F040F931F936093000170930101D6
:100AF00080930201909303010091B2011091B30120
:100B00002091B4013091B501DC01CB01800F911F20
:100B1000A21FB31F8093AA019093AB01A093AC01D5
:100B2000B093AD011F910F910895CF93DF930E9471
:100B3000710F811132C0C5E0D0E0219731F10E94E0
:100B4000710F60E070E084E590E00E94A9086FEF0B
:100B50007FEF8FEF90E00E94990864E670E080E0FC
:100B600090E00E9456098823C1F00E94C50840E029
:100B700060E080E00E946A0864E670E080E090E057
:100B80000E9456098111D9CF08C06CE271E080E063
:100B900090E00E9456098111CACFDF91CF9108954C
:100BA00064E670E084E590E00E94A9088823C9F11A
:100BB0000E94710F811135C087E00E94EE088823E2
:100BC00031F060E070E08FEF90E00E94990880E0E3
:100BD0000E94EE08882331F060E07FEF80E090E033
:100BE0000E94990881E00E94EE08882331F06FEF9F
:100BF00070E080E090E00E9499080E94F80882333B
:100C000030F46FEF7FEF80E090E00E9499080E943F
:100C10002709853168F240E060E080E00E946A08C0
:100C2000C7CF0895E9E6F0E0808182608083E89A8A
:100C3000ECE0F2E08BE481838AE580830895CF9332
:100C40002091C101C62F261708F4C22F4C2F50E067
:100C50006091C20170E00E943B168091C2018C0F2E
:100C60008093C2018091C1018C1B8093C1018C2FA4
:100C7000CF910895CF932091C1012223D1F0C62FA7
:100C8000261708F4C22F4C2F50E06091C20170E08B
:100C90000E9453168091C2018C0F8093C2019091E3
:100CA000C1019C1B9093C10181E0992319F080E060
:100CB00001C081E0CF910895FC019081907690323F
:100CC00059F48181877F813039F489E08093C101B3
:100CD0001092C2018FEF089580E00895CF93DF93C3
:100CE00060911D02635067FDC1C080911A02CCE083
:100CF000D0E0C81BD109CF5DDD4F809119028D3244
:100D000009F0A2C0683009F0AFC083EC8093010203
:100D10008AE5809305011092C3018881807641F0B5
:100D2000CE010E945C06982F8F3F09F47CC082C0E0
:100D30009A8110920A028981811106C010920B02D9
:100D40002AE032E092E06AC0853019F490931E02E6
:100D500062C0863009F049C08B81813019F48AE87D
:100D600090E024C0823041F488E690E090931C0229
:100D700080931B0292E235C08330F1F4911108C0D8
:100D80008AEB90E090931C0280931B0294E029C0B0
:100D9000913041F48EEA90E090931C0280931B0204
:100DA0009CE01FC09230E1F48CE990E090931C022B
:100DB00080931B0292E115C0813241F48AE790E0F2
:100DC00090931C0280931B0299E00BC0823241F485
:100DD0008EEB90E090931C0280931B0296E101C081
:100DE00090E080E48093C30125C0883069F08930A9
:100DF00019F4909320020FC08A3049F08B3059F4D7
:100E00008BE480930D0207C020E232E002C02AE0AA
:100E100032E091E003C02AE032E090E030931C021F
:100E200020931B0207C0888187FD9E8180E8809304
:100E3000C30107C08F81811104C08E81891708F416
:100E4000982F9093040110C08091C30187FF0CC0BC
:100E5000CE010E943A068F3F21F48EE18093050176
:100E600003C081111092040110921D0280910501AE
:100E700084FF51C0809104018F3F09F44CC0C82FFA
:100E8000893008F0C8E08C1B809304019091010226
:100E900088E8892780930102CC2359F13091C3015E
:100EA00037FF09C06C2F82E092E00E941F06C82F16
:100EB000893058F51EC080911B0290911C022C2F86
:100EC000280FA2E0B2E0FC0136FF06C034913D934A
:100ED00031962E13FBCF04C031913D932E13FCCFDE
:100EE00001962FEF2C0F820F911D90931C0280937F
:100EF0001B026C2F82E092E00E94CC00CC5FCC30D1
:100F000041F08FEF8093040104C08FEF80930401C0
:100F1000CEE1C093050184E199B1947131F481501F
:100F2000D9F710921E0210921802DF91CF91089506
:100F300061E081E10E94891161E082E10E948911F2
:100F400061E083E10E94891182E0809380008BE15F
:100F50008093810081E080936F008FEF93E0909306
:100F600087008093860008950F93E82FEF70F0E0DC
:100F7000EC5EFE4F80789081890FA5ECB1E08C93F8
:100F8000E62FEF70F0E0EC5EFE4F60788081680F36
:100F900011966C931197E42FEF70F0E0EC5EFE4F2A
:100FA00040788081480F12964C931297E22FEF7091
:100FB000F0E0EC5EFE4F20788081280F13962C9392
:100FC0000093C4010F910895E5ECF1E010821182C5
:100FD000128213821092C4010895CF93DF93D62F0B
:100FE00041E050E0082E01C0440F0A94EAF7C42FF4
:100FF000C0952091C401222311F0892BC1F060E03B
:1010000081E10E94C5112C2F209541E062E183E12E
:101010000E941E122D2F209541E062E183E10E9483
:101020001E1261E081E1DF91CF910C94C511CF7E5A
:10103000E6CF1F920F920FB60F9211242F933F937A
:101040004F935F936F937F938F939F93AF93BF93D0
:10105000EF93FF937894E091C901E370F0E0EB53D4
:10106000FE4F60818091C901837090E00E94ED077E
:101070008091C9018F5F8093C901FF91EF91BF916A
:10108000AF919F918F917F916F915F914F913F9120
:101090002F910F900FBE0F901F90189582E08093B4
:1010A00080008BE1809381008FEF93E09093870025
:1010B0008093860062E088E00E94891162E08CE003
:1010C0000E94891162E08AE00E94891162E08BE04F
:1010D0000C9489111F93CF93DF93C82F162FD42F11
:1010E00061E089E00E948911C11102C060E003C083
:1010F000CF3F29F461E089E00E94C5110DC08091C5
:10110000800080688093800023E0C29FC00111248A
:101110009093890080938800612F70E085E00E94A1
:1011200001116D2F70E086E0DF91CF911F910C943B
:1011300001110F931F938B019C01992737FD9A95FD
:10114000832F722F612F402F822F1F910F910C94AC
:101150006A08CF92DF92EF92FF926B01770FEE0851
:10116000FF08880F991FFC01E154FF4F60817181D6
:10117000A70196018FE00E945912C701B601FF90A6
:10118000EF90DF90CF900C9456098FE00C94E1140F
:101190000F931F93CF93DF938BE00E94F511C82F1D
:1011A0008AE00E94F511880F991F8C010C2B8CE0AE
:1011B0000E94F511880F991F880F991FEC01C02B11
:1011C00088E00E94F51143E0880F991F4A95E1F7E6
:1011D0008C2BDF91CF911F910F910895CF93C82F42
:1011E0000E94C80891E08C1390E0892FCF91089558
:1011F000AF92BF92CF92DF92EF92FF920F931F9325
:1012000080E10E94E410BC01990F880B990B1F929A
:101210001F921F9225E62F93A12CB12C6501E12C82
:1012200014E0F12E00E010E020E030E0A9010E947F
:101230005315862F0F900F900F900F901F910F91C5
:10124000FF90EF90DF90CF90BF90AF900895AF9256
:10125000BF92CF92DF92EF92FF920F931F938EE097
:101260000E94E410BC01990F880B990B1F921F92EA
:101270001F9225E62F93A12CB12C6501E12C14E0DF
:10128000F12E00E010E020E030E0A9010E945315AB
:10129000862F0F900F900F900F901F910F91FF903E
:1012A000EF90DF90CF90BF90AF9008958F929F9274
:1012B000AF92BF92CF92DF92EF92FF926B017C01CF
:1012C0000E9478104B015C010E947810DC01CB0178
:1012D00088199909AA09BB098C159D05AE05BF059A
:1012E00030F40E94710F882379F380E001C081E01F
:1012F000FF90EF90DF90CF90BF90AF909F908F9036
:1013000008956F927F928F929F92AF92BF92CF92E9
:10131000DF92EF92FF920F931F93CF93DF9382E0C0
:101320000E94EE088823E9F08091DC018111E9C078
:101330008091E1019091E201009719F480E190E041
:1013400021C09C01205131092330310558F18331EE
:101350009105A1F38097079788F381E08093DC01E2
:10136000D0C083E00E94EE08882309F18091DC015F
:101370008111C7C08091E1019091E201009739F499
:1013800080E290E09093E2018093E101E6CF9C013E
:10139000205131092430310598F32051310926308C
:1013A000310510F40196EECF8697B9F6E9CF85E0C6
:1013B0000E94EE088823A9F08091DC0181112BC0E6
:1013C00081E08093DC010E9478106093D8017093D3
:1013D000D9018093DA019093DB0166246394712C28
:1013E00092C086E00E94EE08882381F18091DC01A2
:1013F000811111C081E08093DC010E94781060931C
:10140000D8017093D9018093DA019093DB016624AF
:101410006A94762C78C08091D701811172C00E94A5
:1014200078100091D8011091D9012091DA01309102
:10143000DB01DC01CB01801B910BA20BB30B893EBE
:101440009340A105B10508F02EC25BC084E00E9464
:10145000EE089091DC01882309F443C0911151C03A
:1014600081E08093DC018091E1019091E20100979D
:1014700019F48091E00124C08331910531F09C0181
:10148000255231092230310578F49091E00181E054
:1014900089278093E0018823A1F164E670E084E568
:1014A00090E00E94A9082DC09C01205331092230F0
:1014B000310590F49091E00181E089278093E0016B
:1014C000882339F020E330E03093E2012093E101FA
:1014D000E2CF21E330E0F8CF019799F41092E001D8
:1014E00010C0992371F01092DC011092D7010E9474
:1014F00078106093CF017093D0018093D1019093C5
:10150000D201612C712C8091D701882361F10E9456
:1015100078100091D3011091D4012091D501309120
:10152000D601DC01CB01801B910BA20BB30B8536DE
:101530009105A105B105B8F085E00E94EE08811182
:10154000C0C186E00E94EE08882319F066246A94E0
:10155000762C0E9478106093D3017093D40180930D
:10156000D5019093D6016114710409F468C180918A
:10157000E1019091E2018097079708F060C10E9415
:10158000F2044C010E94EA045C010E94D1046C0147
:101590000E94FA04EC010E940A058C010E941205C7
:1015A000FC018091E1019091E20180329105A9F462
:1015B0008FEF6816780629F4C114D10409F481115B
:1015C000C0C186E00E94EE08882319F066246A9460
:1015D000762C0E9478106093D3017093D40180938D
:1015E000D5019093D6016114710409F468C180910A
:1015F000E1019091E2018097079708F060C1B10482
:1016000009F4F8C0A60CB71C13C18232910509F089
:101610006CC08FEF6816780631F50330110521F4A0
:10162000CF31D105E9F425C00530110521F4CF31C2
:10163000D105B1F4F2C00730110521F4CF31D10545
:1016400079F4DBC00A30110521F4CF31D10541F422
:10165000E7C00C30110521F4CF31D10509F4E3C006
:1016600001501109E5C00130110501F5CD31D10559
:10167000CCF11E161F060CF0C5C0CF018370992750
:10168000892B09F0BFC0CF0164E670E00E94B0155D
:10169000892B09F0BAC0CF0160E971E00E94B01552
:1016A00002E010E0892B09F0B5C0B1C0033011058C
:1016B00021F4CF31D105B1F4B0C00530110521F4CA
:1016C000CF31D10579F499C00830110521F4CF311B
:1016D000D10541F4A5C00A30110521F4CF31D1055F
:1016E00009F4A1C0060D171DA3C08332910509F0AE
:1016F0003FC02FEF6216720621F5C130D105A9F562
:1017000002301105C1F41E161F06ACF4CF01837020
:101710009927892B81F4CF0164E670E00E94B0150F
:10172000892B09F074C0CF0160E971E00E94B01507
:10173000892B09F46CC0D801A856BE4FCC91D0E0DB
:1017400077C081E06816710481F40230110549F018
:10175000D801A856BE4F8C9190E0C817D90729F43C
:1017600065C0CD31D10509F461C0C60DD71D60C07B
:1017700084329105C9F4E60DF71D0230110529F4F4
:10178000CD31D10511F4CCE1D0E0E43328E0F2070B
:1017900044F4E03D87E0F8070CF04AC0E3E3F8E0EA
:1017A00047C0E0EDF7E044C08532910559F48091DF
:1017B000DE01860D883118F48093DE0139C0109265
:1017C000DE0136C08697A1F58091DD01860D8C3350
:1017D00018F48093DD012CC01092DD0129C097E13F
:1017E000C92ED12C25C0C12CD12C22C08BE3A82E10
:1017F000B12C1EC0A12CB12C1BC006E010E0CEE124
:10180000D0E016C002E010E005C002E010E0CDE13B
:10181000D0E00EC0CCE1D0E00BC004E010E0EFCF90
:1018200009E010E0ECCF0BE010E0E9CFC1E0D0E040
:101830007F019E01A401B501C6010E941605809199
:10184000DF01811142C08091DC0181113EC00E9404
:1018500078100091CF011091D0012091D1013091E9
:10186000D201DC01CB01801B910BA20BB30B813A9F
:101870009F40A105B10548F11092E2011092E101EB
:1018800081E08093DC01DF91CF911F910F91FF9058
:10189000EF90DF90CF90BF90AF909F908F907F9010
:1018A0006F900C94E4070E9478106093D3017093BA
:1018B000D4018093D5019093D60181E08093D70124
:1018C00020CE66246394712C44CEDF91CF911F917A
:1018D0000F91FF90EF90DF90CF90BF90AF909F90CF
:1018E0008F907F906F9008958091E1019091E20137
:1018F0008331910559F09C0125523109223031057F
:1019000028F02B5031092230310550F48091E0014C
:10191000882311F04FEF07C040E060E08FEF05C073
:1019200040972CF040E060E080E00C946A08089555
:10193000CF92DF92EF92FF920F931F93CF93DF939B
:10194000C0E0D0E004E610E0C12CD12C7601C80143
:101950000E944B1690E0A0E0B0E00C2E04C0880F6F
:10196000991FAA1FBB1F0A94D2F7C82AD92AEA2AAC
:10197000FB2A0F5F1F4F2896C032D10541F780E840
:10198000C81683E4D8068DE6E80688E3F80640F436
:1019900080E8C82E83E4D82E8DE6E82E88E3F82E62
:1019A000C701B60121E8C21625E0D20626E8E20604
:1019B00024EFF20620F060E875E086E894EF0E94DC
:1019C0000C040E94D104EC010E94EA044CE34C9FF9
:1019D00090014D9F300D1124820F931F01966CE3EF
:1019E00070E00E94B015282FCB0168E170E00E94E2
:1019F000B0158093DE012093DD01DF91CF911F911F
:101A00000F91FF90EF90DF90CF9008950E9498077C
:101A10000E944E080C94980C8091E0018823B1F04C
:101A20000E94D1042091DE0130E08217930771F407
:101A30000E94EA042091DD0130E08217930731F41F
:101A400081E090E09093E2018093E10108950F938B
:101A50000E94D1046AE070E00E94B015962F01E068
:101A60002AE04AE0682F892F0E94B4070F91089559
:101A70000F930E94EA046AE070E00E94B015462FBE
:101A800001E0282F6AE08AE00E94B4070F910895D0
:101A90000F930E940A059C016AE070E00E94B01555
:101AA00060E8680F2A30310514F081E001C08AE057
:101AB00000E02AE04AE00E94B4070F9108950F93D6
:101AC0000E94FA046AE070E00E94B0156115710589
:101AD00011F0462F01C04AE000E0282F6AE88AE0B2
:101AE0000E94B4070F9108950F938091DE016AE080
:101AF0000E94A41501E02AE84AE0692F0E94B40779
:101B00000F9108950F938091DD016AE00E94A41562
:101B100020E8290F01E0482F8AE00E94B4070F91C6
:101B200008950F93CF93DF930E94D104EC010E949C
:101B3000EA04EAE0F0E0BF010E94B015462F282F2A
:101B4000CE01BF010E94B015962F01E0682F892FAA
:101B50000E94B407DF91CF910F9108950F93CF9317
:101B6000DF930E940A05EC010E94FA046AE070E02B
:101B70000E94B015282F6115710511F0462F01C084
:101B80004AE0CE016AE070E00E94B01560E8680F9C
:101B90002A9714F081E001C08AE000E00E94B407B7
:101BA000DF91CF910F9108950F931F93CF93DF9300
:101BB0000E941205FC010AE010E0B8010E94B01575
:101BC000282FC4E6D0E0CF01BE010E94B015B801B5
:101BD0000E94B015462FCF0168EE73E00E94B01549
:101BE000362FBE010E94B01500E0832F0E94B4077B
:101BF000DF91CF911F910F9108950F938091DD0197
:101C00005091DE013AE0632F0E94A415482F20E88E
:101C1000290F852F0E94A41501E0692F0E94B407A7
:101C20000F9108950F931F938091E1019091E2012C
:101C300080329105C9F1DCF48031910509F452C07C
:101C400064F4009709F41FC197FD09C103970CF0D4
:101C500006C11F910F910C94910D8231910509F4E9
:101C6000B3C00CF474C0439709F4D2C0F8C08432F6
:101C7000910509F48BC074F44091CB015091CC01D3
:101C80006091CD017091CE018232910509F449C075
:101C90007CF163C08632910509F4C0C00CF49AC08F
:101CA000C0970297F8F0DBC08091CB019091CC01F6
:101CB000A091CD01B091CE018F3F9F4FAF4FBF4F4D
:101CC00069F40E9478106093CB017093CC018093EB
:101CD000CD019093CE0181E08093CA018091CA0129
:101CE000882319F00E94910DCEC00E94380DCBC000
:101CF0004F3F5F4F6F4F7F4F69F40E9478106093A2
:101D0000CB017093CC018093CD019093CE0181E003
:101D10008093CA018091CA018111E4CF0E94270DEE
:101D2000B2C04F3F5F4F6F4F7F4F69F40E947810F2
:101D30006093CB017093CC018093CD019093CE0141
:101D400081E08093CA018091CA01882319F00E9422
:101D5000AE0D99C00E945F0D96C04F3F5F4F6F4F11
:101D60007F4F69F40E9478106093CB017093CC018F
:101D70008093CD019093CE0181E08093CA01809140
:101D8000CA018111E4CF0E94480D7DC08091CB0132
:101D90009091CC01A091CD01B091CE018F3F9F4F8A
:101DA000AF4FBF4F69F40E9478106093CB017093DE
:101DB000CC018093CD019093CE0181E08093CA0144
:101DC0008091CA01882319F00E94D40D5CC00E9442
:101DD000E40759C08091CB019091CC01A091CD0135
:101DE000B091CE018F3F9F4FAF4FBF4F69F40E941C
:101DF00078106093CB017093CC018093CD019093C8
:101E0000CE0181E08093CA018091CA01882319F034
:101E10000E94FD0D38C00E94820D35C08091CB011B
:101E20009091CC01A091CD01B091CE018F3F9F4FF9
:101E3000AF4FBF4F69F40E9478106093CB0170934D
:101E4000CC018093CD019093CE0181E08093CA01B3
:101E50008091CA018111DCCF0E94740D14C08FEFF4
:101E60009FEFDC018093CB019093CC01A093CD0137
:101E7000B093CE011092CA0180E190E09093E2010C
:101E80008093E10125C00E9478100091CB01109150
:101E9000CC012091CD013091CE01DC01CB01801B22
:101EA000910BA20BB30B853F9140A105B10580F0CA
:101EB0009091CA0181E089278093CA010E9478101D
:101EC0006093CB017093CC018093CD019093CE01B0
:101ED0001F910F9108950E9429100E9481090C946E
:101EE000120ECF930E946B0F8091E1019091E2015D
:101EF000009719F40E940C0D2EC08130910539F520
:101F0000C091DF01C1111AC081E08093DF010E94FE
:101F1000950582E090E09093E2018093E101809149
:101F2000E001882321F01092E0011092DF0160EDC2
:101F300077E080E090E00E94560919C08091E001AE
:101F4000882311F0C0E013C01092DF0110C0029787
:101F500011F40E94C5088091E1019091E20140973F
:101F6000479780F70E946B0F0E94740CF4CF8C2F60
:101F7000CF9108950E94A9109EE088E10FB6F894D1
:101F8000A895809360000FBE909360000E94120697
:101F9000549A80E0815041F0A895E7EBFBE031973F
:101FA000F1F700C00000F6CF549878940E94060D17
:101FB0000E94D005A8950E946E06FCCFCF93DF93B8
:101FC000CDB7DEB728970FB6F894DEBF0FBECDBFF2
:101FD00048E050E060E070E0CE0101960E943B16C0
:101FE00089818A3A61F48A81853551F50E946E06AD
:101FF00060E070E080E090E00E946B16FFCF8335D8
:10200000F9F48A818435E1F46B8184E690E00E94E2
:102010005D166C8185E690E00E945D166D8186E616
:1020200090E00E945D166E8187E690E00E945D164A
:1020300060E070E080E090E00E946B160E94980CD7
:1020400028960FB6F894DEBF0FBECDBFDF91CF91BB
:102050000895A8950E946E060C94DE0F1F920F92B1
:102060000FB60F9211242F933F938F939F93AF93AB
:10207000BF938091E4019091E501A091E601B091B8
:10208000E7013091E3012DE2230F2D3720F4019673
:10209000A11DB11D05C020EB230F0296A11DB11D8E
:1020A0002093E3018093E4019093E501A093E6017E
:1020B000B093E7018091E8019091E901A091EA01D4
:1020C000B091EB010196A11DB11D8093E8019093A1
:1020D000E901A093EA01B093EB01BF91AF919F9109
:1020E0008F913F912F910F900FBE0F901F901895D9
:1020F000CF92DF92EF92FF922FB7F894C090E40155
:10210000D090E501E090E601F090E7018091E801D0
:102110009091E901A091EA01B091EB012FBFBC01C0
:10212000CD0124E0660F771F881F991F2A95D1F7EC
:1021300028EB3BE040E050E00E94C415CA01B90121
:102140006C0D7D1D8E1D9F1DFF90EF90DF90CF9039
:102150000895789484B5826084BD84B5816084BD1F
:1021600085B5826085BD85B5816085BDEEE6F0E010
:10217000808181608083E1E8F0E01082808182606C
:102180008083808181608083E0E8F0E080818160ED
:102190008083E1EBF0E0808184608083E0EBF0E01D
:1021A000808181608083EAE7F0E0808184608083C1
:1021B00080818260808380818E7F8083808180683F
:1021C00080831092C10008958E3008F08E50877081
:1021D0002091060190E4299F90011124822B809385
:1021E0007C0080917A00806480937A0080917A00EC
:1021F00086FDFCCF809178002091790090E0922BB1
:1022000008951F93CF93DF93182FEB0161E00E9495
:102210008911209711F460E004C0CF3FD10539F453
:1022200061E0812FDF91CF911F910C94C511E12FB7
:10223000F0E0EC52FF4FE491E330F9F048F4E13084
:10224000B9F0E230A1F584B5806284BDC8BD34C068
:10225000E730E9F0E83019F1E43049F58091800089
:10226000806280938000D0938B00C0938A0024C04A
:1022700084B5806884BDC7BD1FC080918000806820
:1022800080938000D0938900C093880015C080910E
:10229000B00080688093B000C093B3000DC08091FF
:1022A000B00080628093B000C093B40005C0C03815
:1022B000D1050CF0B5CFAFCFDF91CF911F9108952D
:1022C000833081F028F4813099F08230A1F00895B4
:1022D0008730A9F08830B9F08430D1F48091800043
:1022E0008F7D03C0809180008F7780938000089558
:1022F00084B58F7702C084B58F7D84BD08958091A9
:10230000B0008F7703C08091B0008F7D8093B000C4
:102310000895CF93DF9390E0FC01E851FF4F2491A3
:10232000FC01E450FF4F8491882361F190E0880F15
:10233000991FFC01EC5DFE4FC591D491FC01E65E56
:10234000FE4FA591B491611109C09FB7F89488819F
:10235000209582238883EC912E230BC0623061F498
:102360009FB7F8943881822F809583238883EC91DE
:102370002E2B2C939FBF06C08FB7F894E8812E2B8D
:1023800028838FBFDF91CF9108951F93CF93DF9361
:10239000282F30E0F901EC52FF4F8491F901E85108
:1023A000FF4FD491F901E450FF4FC491CC23C9F001
:1023B000162F81110E946011EC2FF0E0EE0FFF1F2D
:1023C000E65EFE4FA591B4918FB7F894111105C048
:1023D0009C91ED2FE095E92302C0EC91ED2BEC935D
:1023E0008FBFDF91CF911F910895CF93DF93282F57
:1023F00030E0F901EC52FF4F8491F901E851FF4FB1
:10240000D491F901E450FF4FC491CC2391F0811194
:102410000E946011EC2FF0E0EE0FFF1FE05FFE4F17
:10242000A591B491EC91ED2381E090E021F480E05E
:1024300002C080E090E0DF91CF910895BF92CF92EB
:10244000DF92EF92FF920F931F93CF93DF93C82EEB
:10245000D62EB42EC7E0D0E0022F10E087E0E82EA1
:10246000F12CB11005C0C7018C1B9D0B980102C057
:1024700098018C2F02C0359527958A95E2F7B9010E
:10248000617077278C2D0E94C51161E08D2D0E940F
:10249000C51160E08D2D0E94C511219710F7DF91C5
:1024A000CF911F910F91FF90EF90DF90CF90BF9051
:1024B00008953F924F925F926F927F928F929F9278
:1024C000AF92BF92CF92DF92EF92FF920F931F9342
:1024D000CF93DF9300D000D0CDB7DEB79091070146
:1024E000981721F09F3F09F036C204C0EEE2F1E0F8
:1024F000349081C080930701EEE2F1E0E491EF3F78
:1025000009F429C2E13031F1E23009F44BC0E111A4
:1025100071C014BC15BC94B5926094BD95B5916022
:1025200095BDA82FB0E0FD01E450FF4FE491F0E02D
:10253000EE0FFF1FE65EFE4F059114911093FC0114
:102540000093FB01FD01E851FF4FE491E093FA0194
:10255000312C53C010928000109281009091810024
:102560009860909381009091810091609093810098
:10257000A82FB0E0FD01E450FF4FE491F0E0EE0F32
:10258000FF1FE65EFE4F059114911093F501009335
:10259000F401FD01E851FF4FE491E093F30133248E
:1025A00033942BC01092B0001092B1009091B00003
:1025B00092609093B0009091B10091609093B100BF
:1025C000A82FB0E0FD01E450FF4FE491F0E0EE0FE2
:1025D000FF1FE65EFE4F059114911093EE010093EC
:1025E000ED01FD01E851FF4FE491E093EC0102E0C1
:1025F000302E03C03E2E37FCAEC129833A834B8375
:102600005C838B0161E00E9489114801A12CB12CEF
:10261000832D8D7F09F0B7C060E87DE88BE590E001
:10262000A50194010E94E61529013A0169017A0188
:1026300021E0C21AD108E108F1088FEFC816D104D1
:10264000E104F10409F008F44CC060EB71E78BE0A1
:1026500090E0A50194010E94E61569017A0191E0DC
:10266000C91AD108E108F108A2E03A1220C0BFEF70
:10267000CB16D104E104F10409F008F46AC16CE658
:102680007CED82E090E0A50194010E94E6156901CD
:102690007A01E1E0CE1AD108E108F108FFEFCF1688
:1026A000D104E104F10409F0C0F583E065C02FEF27
:1026B000C216D104E104F104B1F0A8F066E37EE6AD
:1026C00081E090E0A50194010E94E61569017A017C
:1026D00081E0C81AD108E108F108332009F4E5C007
:1026E0002FC181E001C082E0332091F045C0D301C9
:1026F000C2012AE0B595A795979587952A95D1F7B8
:102700006C017D01E1E0CE1AD108E108F10885E015
:1027100095B5987F892B85BD72C066E37EE681E022
:1027200090E0A50194010E94E61569017A01B1E0EB
:10273000CB1AD108E108F108EFEFCE16D104E1047D
:10274000F10409F008F4AFC06BE177EB80E090E0B2
:10275000A50194010E94E61569017A0191E0C91A68
:10276000D108E108F108AFEFCA16D104E104F10481
:1027700011F008F0BAC085E09091B100987F892BE4
:102780008093B1003CC060E87DE88BE590E0A50156
:1027900094010E94E61569017A01F1E0CF1AD1088F
:1027A000E108F108C114D10421E0E206F10488F047
:1027B00066E37EE681E090E0A50194010E94E615C3
:1027C00069017A0181E0C81AD108E108F10893E0B3
:1027D00001C091E0A1E03A1212C080918100887F8F
:1027E000892B8093810089819A81AB81BC81892B5F
:1027F0008A2B8B2B61F42FEF3FEFA90132C0898127
:102800009A81AB81BC81892B8A2B8B2B81F0D801DB
:10281000AA0FBB1F29813A814B815C810E9414164B
:1028200028EE33E040E050E00E94C41503C02FEFD3
:102830003FEFA90191E03916A1F0A2E03A1619F193
:10284000311089C0C7BC2093FD013093FE01409335
:10285000FF015093000280916E00826080936E00B1
:102860007AC0D0928900C09288002093F6013093FC
:10287000F7014093F8015093F90180916F00826055
:1028800080936F0068C0C092B3002093EF01309333
:10289000F0014093F1015093F20180917000826049
:1028A0008093700058C084E067CF8FEFC816D104C2
:1028B000E104F104C1F0B8F0BB2777FCBA95A72D6D
:1028C000962D852D6C017D01F1E0CF1AD108E1082C
:1028D000F1082FEFC216D104E104F10411F008F061
:1028E00006CF84E015CF83E013CFBB2777FCBA95E2
:1028F000A72D962D852D6C017D01E1E0CE1AD10822
:10290000E108F108FFEFCF16D104E104F104B1F0C2
:10291000A8F0D301C2016AE0B595A7959795879570
:102920006A95D1F76C017D01E1E0CE1AD108E1088A
:10293000F108332009F4EBCE87E01ECF86E0D4CE39
:102940002FEFC216D104E104F10409F070F684E01F
:10295000CBCE82E011CF0F900F900F900F90DF91B0
:10296000CF911F910F91FF90EF90DF90CF90BF908C
:10297000AF909F908F907F906F905F904F903F901F
:102980000895813039F018F0823051F00895109296
:102990006E00089580916F008D7F80936F00089581
:1029A000809170008D7F8093700081E08093B000F3
:1029B0008091B100887F84608093B1001092B30051
:1029C0000895CF93C82F809107018C1307C0EEE2C2
:1029D000F1E0E4918FEF8093070101C0EFEF8E2FBC
:1029E0000E94C11460E08C2FCF910C94C5111F92EE
:1029F0000F920FB60F9211242F933F934F935F9333
:102A00006F937F938F939F93AF93BF93EF93FF93B6
:102A10008091EF019091F001A091F101B091F2014C
:102A2000892B8A2B8B2B51F18091EC01E091ED01E8
:102A3000F091EE019081892780838091EF01909140
:102A4000F001A091F101B091F201181619061A06D1
:102A50001B06C4F48091EF019091F001A091F10167
:102A6000B091F2010197A109B1098093EF01909310
:102A7000F001A093F101B093F20104C0809107012D
:102A80000E94E114FF91EF91BF91AF919F918F91BF
:102A90007F916F915F914F913F912F910F900FBE5A
:102AA0000F901F9018954F925F926F927F92AF9206
:102AB000BF92CF92DF92EF92FF920F931F93CF932B
:102AC000DF93CDB7DEB729013A019B01AC01241990
:102AD00035094609570989899A89AB89BC89BC019E
:102AE000CD016A197B098C099D090E949415A801E2
:102AF000970124193509460957090E94E615CA01AC
:102B0000B9016A0D7B1D8C1D9D1DDF91CF911F9119
:102B10000F91FF90EF90DF90CF90BF90AF907F909C
:102B20006F905F904F900895DB018F939F930E9469
:102B30001416BF91AF91A29F800D911DA39F900D80
:102B4000B29F900D11240895991B79E004C0991F3C
:102B5000961708F0961B881F7A95C9F780950895F7
:102B600097FB072E16F4009407D077FD09D00E943A
:102B7000271607FC05D03EF4909581959F4F089548
:102B8000709561957F4F0895A1E21A2EAA1BBB1B79
:102B9000FD010DC0AA1FBB1FEE1FFF1FA217B30729
:102BA000E407F50720F0A21BB30BE40BF50B661F3F
:102BB000771F881F991F1A9469F760957095809503
:102BC00090959B01AC01BD01CF010895052E97FBA7
:102BD0001EF400940E94FD1557FD07D00E94C415F5
:102BE00007FC03D04EF40C94FD155095409530959C
:102BF00021953F4F4F4F5F4F089590958095709569
:102C000061957F4F8F4F9F4F0895A29FB001B39F53
:102C1000C001A39F700D811D1124911DB29F700DE5
:102C2000811D1124911D08950E940516A59F900DE8
:102C3000B49F900DA49F800D911D11240895B7FF9E
:102C40000C9414160E941416821B930B0895AA1B51
:102C5000BB1B51E107C0AA1FBB1FA617B70710F087
:102C6000A61BB70B881F991F5A95A9F780959095B9
:102C7000BC01CD010895DC01CB01FC01F999FECF27
:102C800006C0F2BDE1BDF89A319600B40D924150F4
:102C90005040B8F70895F999FECF92BD81BDF89ADA
:102CA000992780B50895DC01CB0103C02D910E94C6
:102CB0005E1641505040D0F70895262FF999FECF67
:102CC0001FBA92BD81BD20BD0FB6F894FA9AF99A49
:102CD0000FBE019608950E945D16272F0C945E1674
:102CE000F894FFCF2C010000FF5A01FF1F1C1F1E8C
:102CF0001F1E1F1F1E1F1E1F3F065B4F666D7D0799
:102D00007F6F0082008B0093009C00A500AF00B98C
:102D100000C400D000DC00E900F700060115012620
:102D20000137014A015D01720188019F01B801D29A
:102D300001EE010B022A024B026E029302BA02E478
:102D40000210033F037003A403DC03170455049728
:102D500004DD0427057505C80520067D06E0064943
:102D600007B8072D08A9082D09B9094D0AEA0A90E4
:102D70000B400CFA0CC00D910E6F0F5A101F1C1F48
:102D80001E1F1E1F1F1E1F1E1F00FFFFFFFFFFFF36
:102D9000FFFFFFFFFFFFFFFFFFFFFFFFFFFFFFFF43
:102DA000FFFFFFFFFFFFFFFFFFFFFFFFFFFFFFFF33
:102DB000FFFFFFFFFFFFFFFFFFFFFFFFFFFFFFFF23
:102DC000FFFFFFFFFFFFFFFFFFFFFFFFFFFFFFFF13
:103800000C94501C0C94801C0C94501C0600FF0956
:1038100001A101150026FF00750885019506090024
:10382000B20201850295830900B202018503952643
:103830000900B20201850495040900B20201C00921
:1038400002220001010080190904000001030000A8
:10385000000921010100012233000705810308004E
:10386000C81201100100000008A0206842000101F8
:103870000200011C035300740075006400750069A8
:10388000006E006F0020006D0069006E0069000C82
:103890000341007200540065006300040309040042
:1038A00011241FBECFEFD4E0CDBFDEBF14E0A0E8EF
:1038B000B4E0E4ECFFE305900D92A238B107D9F72C
:1038C00014E01D92A93BB107E1F70C94251EA82F27
:1038D000B92F80E090E041E050EA60956F5F58F4C6
:1038E0002D9138EF82279795879510F0842795279B
:1038F0003F5FC8F3F3CF0895EADF8D939D9308955A
:10390000CF93CFB7CF93C3954C9BE9F74C9B09C09E
:103910004C9B07C04C9B05C04C9B03C04C9B01C0FB
:10392000A3C0DF93C0919C04DD27CD55DB4F4C9B9A
:1039300002C0DF91EBCF2F930F931F9309B12FEFAD
:1039400004FB20F94F933F9319B14FEF012704FB7C
:1039500021F93BE031C04E7F012F19B1216028C011
:10396000102F4D7F2260000009B129C04B7F2460D9
:10397000012F000019B12BC019B1477F28602AC060
:103980004F7E09B120612CC04F7D19B120622FC03C
:103990004F7B09B1206432C0422709B149934FEFF0
:1039A0000000102714FB20F919B11471C9F1297F07
:1039B00091F2012704FB21F909B1237F89F23150EB
:1039C00058F1102714FB22F919B1277E79F201274B
:1039D00004FB23F92F7C81F209B1102714FB24F991
:1039E0002F7971F200C019B1012704FB25F92F735B
:1039F00059F200C009B1102714FB26F9223040F219
:103A000000C019B1012704FB27F9243028F64F77AD
:103A1000206819B10000F9CF11E01CBB002719C0C4
:103A20003B503195C31BD04011E01CBB0881033CC7
:103A3000F9F00B34E9F020919A041981110F121357
:103A4000EDCF4A81441F093641F10D3211F0013E9C
:103A500029F70093A1043F914F911F910F912F914E
:103A6000DF91CCB3C0FD4FCFCF91CFBFCF91189591
:103A70002091A104222379F310919F04112331F5A1
:103A8000343032F130939F0420939B0410919C04B6
:103A90003BE0311B30939C041BC000919F0401301C
:103AA000ACF40AE54F7049F43091800434FD12C043
:103AB00000938004CFE8D4E011C03AE50BC027950D
:103AC000A8F45150A9F4220F0000F9CF4AE503C031
:103AD00042ED01C0432FC4E1D0E032E01AB11461DD
:103AE0005C9A1AB90BB120E414E15F93012756E008
:103AF0000BB9279520F4515021F4220FF9CF01275B
:103B000056E000003B5A0BB9D0F2279528F45150EB
:103B100029F4220F0000F9CF012756E027950BB9B1
:103B200020F4515021F4220FF9CF012756E02991BA
:103B300033230BB921F60B7E1091A004110FC6514F
:103B4000D0400BB911F010939A0411E01CBB006136
:103B50001AB11B7E402F4B7E5F9100C000C00BB995
:103B60001AB94BB978CFC5E8D4E080E889831A82C6
:103B70001B8280E48C831D821E820895FC01319695
:103B8000808199278633910541F18733910564F44B
:103B900083309105F9F0843091051CF4019799F078
:103BA0000895449711F108958A33910509F18B33F3
:103BB00091051CF4C897A1F008958E339105C1F1C9
:103BC000CF97D9F0089588E8809386048181809307
:103BD000870408950E94B31D089581E0982E0895EA
:103BE00081E180935700E89508956280738008957D
:103BF0000280F381E02D09950895628173818181AE
:103C0000282F2F71807651F4982FA6E8B4E0FB019D
:103C100081918D939F5F9217D8F308958034A1F41A
:103C2000822F9927AC0186E894E00E94D51F089561
:103C3000A281B38124819581992329F08C918923D4
:103C4000822B8C9308952C930895CFEFD4E0DEBFA0
:103C5000CDBFC0E0D0E000E011E018B9579A5F9AFC
:103C600088E28A95F1F70E94B31D902E80E284B914
:103C700085B1807C806285B915BF82E085BF202F29
:103C800080916900826080936900E89A549AA895AF
:103C900088EB9BE00197F1F72150C9F7549878948D
:103CA000A89550919F04952F935097FD0AC180913C
:103CB0009C04AFEAB4E0A81BB10980919B048D324B
:103CC00009F09FC0983009F0FAC083EC80938F040C
:103CD0008AE580938004109284046C91862F80760C
:103CE000FD01228191818823E9F0993021F4882413
:103CF0008FEF90E070C0913091F42093850485E8B7
:103D000094E090939E0480939D04243021F4F30169
:103D1000808180938604FD01868199275CC080E0C4
:103D200090E059C048E954E080939804992321F425
:103D30008093990482E04BC0953019F42093A0043D
:103D400046C09630B9F5382FFD018381813021F4CA
:103D500032E181E698E325C0823021F432E28FE33C
:103D600098E31FC0833091F4222321F434E08BE9DF
:103D700098E317C0213021F43CE08FE898E311C0AC
:103D8000223099F43CE183E798E30BC0813221F4BF
:103D900039E081E598E305C0823239F433E38CE001
:103DA00098E390939E0480939D0480E48093840420
:103DB000832F11C0983019F442EA54E007C09930BB
:103DC00019F42093A20403C09A3009F481E05093BF
:103DD0009E0440939D04982F8F3F41F467FF02C0DB
:103DE000FD01968180E88093840408C0FD018781ED
:103DF000882321F48681891708F4982F90938104F1
:103E00005EC08091840487FF5AC0492F8820B9F48E
:103E10008C91813031F4CD010E94BE1D21E030E053
:103E200044C0FD018181282F332782819927982F53
:103E300088271901282A392A1496452F4750882D9A
:103E4000840F882E582F507813E071E065E09101BF
:103E5000C1018F779070892B49F4F894F101109388
:103E60005700E895789407B600FCFDCFF8948D9143
:103E70009D910C01F90170935700E89511247894F5
:103E8000C10102961C018F779070892B49F4F89438
:103E9000F90160935700E895789407B600FCFDCFD0
:103EA000425009F0D4CF252F33272F3F21F48EE144
:103EB0008093800404C0222311F010928104109298
:103EC0009F048091800484FF3FC0809181048F3FD4
:103ED00009F43AC0682F893008F068E0861B8093A7
:103EE000810480918F0498E8892780938F04A0E94A
:103EF000B4E06623B9F0962FE0919D04F0919E0402
:103F00008091840486FF06C084918D9331969150F0
:103F1000D9F704C081918D939150E1F7F0939E04FD
:103F2000E0939D047727162F693040F480E994E0F0
:103F30000E947C1C1C5F1C3028F401C01EE18FEF26
:103F4000809381041093800494E189B1847131F4E9
:103F50009150D9F79093A00490939A04992059F026
:103F600080918204909183040197909383048093BD
:103F70008204892B31F0219709F40F5F0A3008F48D
:103F80008FCE85B1807C85B917B818B8F89481E1D7
:103F900080935700E8951DBA1092690081E085BFB3
:103FA00015BEEE27FF270995FFCFFB01DC0140FF7F
:103FB00005C002C005900D9205900D9242505040F0
:103FC000C8F708955AFFFFFFFFFFFFFFFFFFFFFF46
:103FD000FFFFFFFFFFFFFFFFFFFFFFFFFFFFFFFFF1
:103FE000FFFFFFFFFFFFFFFFFFFFFFFFFFFFFFFFE1
:103FF000FFFFFFFFFFFFFFFFFFFFFFFFFFFFFFFFD1
:00000001FF
