:100000000C9495000C94CD000C94B2000C94B200AA
:100010000C94B2000C94B2000C94B2000C945B08E7
:100020000C94B2000C94B2000C94B2000C94B20088
:100030000C94B2000C94B2000C94B2000C94B20078
:100040000C9472040C94B2000C94B2000C94B200A4
:100050000C94B2000C94B2000C94B2000C94B20058
:100060000C94B2000C94B20009022200010100803D
:100070000A09040000010300000009210101000138
:100080002216000705810308006412011001000018
:100090000008A020A44200010102000116034C0048
:1000A000450044006C0061006E0074006500720041
:1000B0006E000C03410072005400650063000403ED
:1000C00009040600FF0901A101150026FF007508BB
:1000D00095090900B20201C00000000800020100F9
:1000E00000030407000000000000000001020408F3
:1000F0001020408001020408102001020408102092
:1001000004040404040404040202020202020303BD
:100110000303030300000000250028002B0000005B
:100120000000240027002A00020011241FBECFEF88
:10013000D4E0DEBFCDBF11E0A0E0B1E0E2E8F2E143
:1001400002C005900D92AE37B107D9F721E0AEE7B6
:10015000B1E001C01D92A53DB207E1F70E94FE0388
:100160000C943F090C940000A82FB92F80E090E078
:1001700041E050EA609530E009C02D9182279795C3
:10018000879510F084279527305EC8F36F5FA8F33A
:100190000895EADF8D939D930895CF93CFB7CF93C2
:1001A000C3954C9BE9F74C9B09C04C9B07C04C9BEB
:1001B00005C04C9B03C04C9B01C0A3C0DF93C09102
:1001C000B801DD27C154DE4F4C9B02C0DF91EBCF5D
:1001D0002F930F931F9309B12FEF04FB20F94F9337
:1001E0003F9319B14FEF012704FB21F93BE031C0E8
:1001F0004E7F012F19B1216028C0102F4D7F226042
:10020000000009B129C04B7F2460012F000019B103
:100210002BC019B1477F28602AC04F7E09B12061E9
:100220002CC04F7D19B120622FC04F7B09B12064D3
:1002300032C0422709B149934FEF0000102714FB49
:1002400020F919B11471C9F1297F91F2012704FB3A
:1002500021F909B1237F89F2315058F1102714FB9D
:1002600022F919B1277E79F2012704FB23F92F7CAB
:1002700081F209B1102714FB24F92F7971F200C023
:1002800019B1012704FB25F92F7359F200C009B1F8
:10029000102714FB26F9223040F200C019B10127C3
:1002A00004FB27F9243028F64F77206819B10000A5
:1002B000F9CF11E01CBB002719C03B503195C31B7F
:1002C000D04011E01CBB0881033CF9F00B34E9F08D
:1002D0002091B6011981110F1213EDCF4A81441FED
:1002E000093641F10D3211F0013E29F70093BD01AD
:1002F0003F914F911F910F912F91DF91CCB3C0FD92
:100300004FCFCF91CFBFCF9118952091BD01222320
:1003100079F31091BB01112369F534306AF1309300
:10032000BB012093B7011091B8013BE0311B309322
:10033000B80122C00091BB010130E4F40AE54F701E
:1003400049F43091010134FD19C000930101CFE956
:10035000D1E018C03091AA0134FD10C00093AA0169
:10036000CBEAD1E00FC02795A8F45150A9F4220F91
:100370000000F9CF4AE503C042ED01C0432FC4E1BC
:10038000D0E032E01AB114615C9A1AB90BB120E4E2
:1003900014E15F93012756E00BB9279520F45150E3
:1003A00021F4220FF9CF012756E000003B5A0BB988
:1003B000D0F2279528F4515029F4220F0000F9CFEC
:1003C000012756E027950BB920F4515021F4220F54
:1003D000F9CF012756E0299133230BB921F60B7E83
:1003E0001091BC01110FC651D0400BB911F0109300
:1003F000B60111E01CBB00611AB11B7E402F4B7E81
:100400005F9100C000C00BB91AB94BB971CF0C9401
:100410009B0364E670E084E590E00E94B7038823C4
:1004200019F00E946B04FDCF0895E9E6F0E08081A9
:1004300082608083E89AEAEAF1E08BE481838AE5CE
:1004400080830895CF9320917E01C62F261708F44C
:10045000C22F4C2F50E060917F0170E00E94120982
:1004600080917F018C0F80937F0180917E018C1B96
:1004700080937E018C2FCF910895CF9320917E01A0
:100480002223D1F0C62F261708F4C22F4C2F50E09C
:1004900060917F0170E00E94220980917F018C0FA2
:1004A00080937F0190917E019C1B90937E0181E05F
:1004B000992319F080E001C081E0CF910895FC01FB
:1004C00090819076903259F48181877F813039F420
:1004D00089E080937E0110927F018FEF089580E084
:1004E0000895CF93DF936091BB01635067FDC1C056
:1004F0008091B801CCE0D0E0C81BD109C154DE4FD7
:100500008091B7018D3209F0A2C0683009F0AFC008
:1005100083EC80939F018AE5809301011092800112
:100520008881807641F0CE010E945F02982F8F3F34
:1005300009F47CC082C09A811092A801898181113E
:1005400006C01092A90128EA31E092E06AC0853025
:1005500019F49093BC0162C0863009F049C08B81C8
:10056000813041F48AE890E09093BA018093B90118
:1005700092E13AC0823041F488E690E09093BA016B
:100580008093B90192E230C08330C9F4911108C060
:100590008EEB90E09093BA018093B90194E024C06F
:1005A000913041F482EB90E09093BA018093B901CD
:1005B0009CE01AC09230B9F48CE990E00EC0813210
:1005C00041F48AE790E09093BA018093B90199E0F1
:1005D0000BC0823241F482EC90E09093BA01809398
:1005E000B90196E101C090E080E48093800125C0CC
:1005F000883069F0893019F49093BE010FC08A30B9
:1006000049F08B3059F48BE48093AB0107C02EEB9B
:1006100031E002C028EA31E091E003C028EA31E08D
:1006200090E03093BA012093B90107C0888187FD1B
:100630009E8180E88093800107C08F81811104C072
:100640008E81891708F4982F9093000110C0809133
:10065000800187FF0CC0CE010E943D028F3F21F434
:100660008EE18093010103C081111092000110926C
:10067000BB018091010184FF51C0809100018F3F37
:1006800009F44CC0C82F893008F0C8E08C1B809357
:10069000000190919F0188E8892780939F01CC23D6
:1006A00059F13091800137FF09C06C2F80EA91E049
:1006B0000E942202C82F893058F51EC08091B901CE
:1006C0009091BA012C2F280FA0EAB1E0FC0136FF6F
:1006D00006C034913D9331962E13FBCF04C0319167
:1006E0003D932E13FCCF01962FEF2C0F820F911DFF
:1006F0009093BA018093B9016C2F80EA91E00E9437
:10070000C900CC5FCC3041F08FEF8093000104C072
:100710008FEF80930001CEE1C093010184E199B194
:10072000947131F48150D9F71092BC011092B60146
:10073000DF91CF91089582E0809380008BE18093D8
:1007400081008FEF93E0909387008093860062E0B2
:1007500088E00E94510562E08CE00E94510562E051
:100760008AE00E94510562E08BE00C945105CF9223
:10077000DF92EF92FF926B01770FEE08FF08880F70
:10078000991FFC01ED55FF4F60817181A701960112
:100790008FE00E94BD05C701B601FF90EF90DF908A
:1007A000CF900C94D3038F929F92AF92BF92CF922F
:1007B000DF92EF92FF926B017C010E94BC044B011F
:1007C0005C010E94BC04DC01CB0188199909AA09CB
:1007D000BB098C159D05AE05BF0530F40E946B0466
:1007E000882379F380E001C081E0FF90EF90DF90F3
:1007F000CF90BF90AF909F908F9008950E94ED048E
:100800009EE088E10FB6F894A895809360000FBE33
:10081000909360000E941502549A80E0815041F04C
:10082000A895E7EBFBE03197F1F700C00000F6CFA9
:10083000549878940E9407020E940902A8950E9489
:100840007102FCCFCF93DF93CDB7DEB728970FB6F9
:10085000F894DEBF0FBECDBF48E050E060E070E02E
:10086000CE0101960E94120989818A3A61F48A8137
:10087000853541F50E94710260E070E080E090E013
:100880000E943A09FFCF8335E9F48A818435D1F497
:100890006B8184E690E00E942C096C8185E690E0F3
:1008A0000E942C096D8186E690E00E942C096E81E1
:1008B00087E690E00E942C0960E070E080E090E024
:1008C0000E943A0928960FB6F894DEBF0FBECDBF3E
:1008D000DF91CF910895A8950E9471020E94220491
:1008E00080E008951F920F920FB60F9211242F935C
:1008F0003F938F939F93AF93BF9380918201909189
:100900008301A0918401B0918501309181012DE294
:10091000230F2D3720F40196A11DB11D05C020EB3A
:10092000230F0296A11DB11D2093810180938201A6
:1009300090938301A0938401B093850180918601F7
:1009400090918701A0918801B09189010196A11D24
:10095000B11D8093860190938701A0938801B09385
:100960008901BF91AF919F918F913F912F910F90EE
:100970000FBE0F901F901895CF92DF92EF92FF92CB
:100980002FB7F894C0908201D0908301E090840149
:10099000F09085018091860190918701A091880156
:1009A000B09189012FBFBC01CD0124E0660F771FF4
:1009B000881F991F2A95D1F728EB3BE040E050E0D3
:1009C0000E94B708CA01B9016C0D7D1D8E1D9F1DC7
:1009D000FF90EF90DF90CF900895789484B5826077
:1009E00084BD84B5816084BD85B5826085BD85B5D3
:1009F000816085BDEEE6F0E0808181608083E1E882
:100A0000F0E01082808182608083808181608083B9
:100A1000E0E8F0E0808181608083E1EBF0E08081BC
:100A200084608083E0EBF0E0808181608083EAE78E
:100A3000F0E0808184608083808182608083808117
:100A40008E7F80838081806880831092C1000895AA
:100A5000833081F028F4813099F08230A1F008953C
:100A60008730A9F08830B9F08430D1F480918000CB
:100A70008F7D03C0809180008F77809380000895E0
:100A800084B58F7702C084B58F7D84BD0895809131
:100A9000B0008F7703C08091B0008F7D8093B0004D
:100AA0000895CF93DF9390E0FC01E451FF4F249130
:100AB000FC01E050FF4F8491882361F190E0880FA2
:100AC000991FFC01E25EFE4FC591D491FC01EC5EE2
:100AD000FE4FA591B491611109C09FB7F894888128
:100AE000209582238883EC912E230BC0623061F421
:100AF0009FB7F8943881822F809583238883EC9167
:100B00002E2B2C939FBF06C08FB7F894E8812E2B15
:100B100028838FBFDF91CF9108951F93CF93DF93E9
:100B2000282F30E0F901E852FF4F8491F901E45198
:100B3000FF4FD491F901E050FF4FC491CC23C9F08D
:100B4000162F81110E942805EC2FF0E0EE0FFF1FF9
:100B5000EC5EFE4FA591B4918FB7F894111105C0CA
:100B60009C91ED2FE095E92302C0EC91ED2BEC93E5
:100B70008FBFDF91CF911F9108953F924F925F9267
:100B80006F927F928F929F92AF92BF92CF92DF929D
:100B9000EF92FF920F931F93CF93DF9300D000D07B
:100BA000CDB7DEB790910201981721F09F3F09F071
:100BB00036C204C0E8E2F1E0349081C080930201C3
:100BC000E8E2F1E0E491EF3F09F429C2E13031F1CC
:100BD000E23009F44BC0E11171C014BC15BC94B5EE
:100BE000926094BD95B5916095BDA82FB0E0FD01D0
:100BF000E050FF4FE491F0E0EE0FFF1FEC5EFE4F80
:100C00000591149110939A0100939901FD01E4510B
:100C1000FF4FE491E0939801312C53C01092800073
:100C20001092810090918100986090938100909142
:100C30008100916090938100A82FB0E0FD01E05009
:100C4000FF4FE491F0E0EE0FFF1FEC5EFE4F0591C9
:100C500014911093930100939201FD01E451FF4F11
:100C6000E491E0939101332433942BC01092B000AF
:100C70001092B1009091B00092609093B00090916A
:100C8000B10091609093B100A82FB0E0FD01E05059
:100C9000FF4FE491F0E0EE0FFF1FEC5EFE4F059179
:100CA000149110938C0100938B01FD01E451FF4FCF
:100CB000E491E0938A0102E0302E03C03E2E37FC1F
:100CC000AEC129833A834B835C838B0161E00E9430
:100CD00051054801A12CB12C832D8D7F09F0B7C09F
:100CE00060E87DE88BE590E0A50194010E94D908B9
:100CF00029013A0169017A0121E0C21AD108E1080B
:100D0000F1088FEFC816D104E104F10409F008F4EA
:100D10004CC060EB71E78BE090E0A50194010E946C
:100D2000D90869017A0191E0C91AD108E108F108EE
:100D3000A2E03A1220C0BFEFCB16D104E104F104C7
:100D400009F008F46AC16CE67CED82E090E0A50150
:100D500094010E94D90869017A01E1E0CE1AD10814
:100D6000E108F108FFEFCF16D104E104F10409F026
:100D7000C0F583E065C02FEFC216D104E104F10491
:100D8000B1F0A8F066E37EE681E090E0A501940171
:100D90000E94D90869017A0181E0C81AD108E108E6
:100DA000F108332009F4E5C02FC181E001C082E0E1
:100DB000332091F045C0D301C2012AE0B595A79533
:100DC000979587952A95D1F76C017D01E1E0CE1AC0
:100DD000D108E108F10885E095B5987F892B85BD9C
:100DE00072C066E37EE681E090E0A50194010E9476
:100DF000D90869017A01B1E0CB1AD108E108F108FC
:100E0000EFEFCE16D104E104F10409F008F4AFC00D
:100E10006BE177EB80E090E0A50194010E94D90896
:100E200069017A0191E0C91AD108E108F108AFEF30
:100E3000CA16D104E104F10411F008F0BAC085E04B
:100E40009091B100987F892B8093B1003CC060E8FD
:100E50007DE88BE590E0A50194010E94D908690125
:100E60007A01F1E0CF1AD108E108F108C114D104E8
:100E700021E0E206F10488F066E37EE681E090E09E
:100E8000A50194010E94D90869017A0181E0C81A7C
:100E9000D108E108F10893E001C091E0A1E03A1225
:100EA00012C080918100887F892B80938100898185
:100EB0009A81AB81BC81892B8A2B8B2B61F42FEF1C
:100EC0003FEFA90132C089819A81AB81BC81892B16
:100ED0008A2B8B2B81F0D801AA0FBB1F29813A8165
:100EE0004B815C810E94F80828EE33E040E050E03E
:100EF0000E94B70803C02FEF3FEFA90191E0391618
:100F0000A1F0A2E03A1619F1311089C0C7BC2093B4
:100F10009B0130939C0140939D0150939E018091D1
:100F20006E00826080936E007AC0D0928900C09279
:100F3000880020939401309395014093960150933B
:100F4000970180916F00826080936F0068C0C092AB
:100F5000B30020938D0130938E0140938F01509305
:100F600090018091700082608093700058C084E08E
:100F700067CF8FEFC816D104E104F104C1F0B8F0D7
:100F8000BB2777FCBA95A72D962D852D6C017D0189
:100F9000F1E0CF1AD108E108F1082FEFC216D10411
:100FA000E104F10411F008F006CF84E015CF83E0EE
:100FB00013CFBB2777FCBA95A72D962D852D6C01F5
:100FC0007D01E1E0CE1AD108E108F108FFEFCF166C
:100FD000D104E104F104B1F0A8F0D301C2016AE048
:100FE000B595A795979587956A95D1F76C017D0181
:100FF000E1E0CE1AD108E108F108332009F4EBCE84
:1010000087E01ECF86E0D4CE2FEFC216D104E104D4
:10101000F10409F070F684E0CBCE82E011CF0F909E
:101020000F900F900F90DF91CF911F910F91FF9034
:10103000EF90DF90CF90BF90AF909F908F907F9078
:101040006F905F904F903F900895813039F018F085
:10105000823051F0089510926E00089580916F00D3
:101060008D7F80936F000895809170008D7F8093B5
:10107000700081E08093B0008091B100887F84602F
:101080008093B1001092B3000895CF93C82F809140
:1010900002018C1307C0E8E2F1E0E4918FEF809346
:1010A000020101C0EFEF8E2F0E94250860E08C2F17
:1010B000CF910C948D051F920F920FB60F921124B1
:1010C0002F933F934F935F936F937F938F939F9350
:1010D000AF93BF93EF93FF9380918D0190918E0119
:1010E000A0918F01B0919001892B8A2B8B2B51F10C
:1010F00080918A01E0918B01F0918C019081892788
:10110000808380918D0190918E01A0918F01B0918B
:101110009001181619061A061B06C4F480918D0159
:1011200090918E01A0918F01B09190010197A1093A
:10113000B10980938D0190938E01A0938F01B0939C
:10114000900104C0809102010E944508FF91EF9137
:10115000BF91AF919F918F917F916F915F914F91CF
:101160003F912F910F900FBE0F901F901895A1E205
:101170001A2EAA1BBB1BFD010DC0AA1FBB1FEE1F11
:10118000FF1FA217B307E407F50720F0A21BB30B5C
:10119000E40BF50B661F771F881F991F1A9469F7D8
:1011A00060957095809590959B01AC01BD01CF0134
:1011B0000895052E97FB1EF400940E94F00857FD39
:1011C00007D00E94B70807FC03D04EF40C94F00837
:1011D00050954095309521953F4F4F4F5F4F089563
:1011E00090958095709561957F4F8F4F9F4F089593
:1011F0000E940309A59F900DB49F900DA49F800DA0
:10120000911D11240895A29FB001B39FC001A39F17
:10121000700D811D1124911DB29F700D811D11242F
:10122000911D0895DC01CB01FC01F999FECF06C0A8
:10123000F2BDE1BDF89A319600B40D924150504094
:10124000B8F70895DC01CB0103C02D910E942D0950
:1012500041505040D0F70895262FF999FECF1FBA7C
:1012600092BD81BD20BD0FB6F894FA9AF99A0FBECF
:10127000019608950E942C09272F0C942D09F894AB
:10128000FFCFFF5AFF82008B0093009C00A500AFA8
:1012900000B900C400D000DC00E900F70006011529
:1012A00001260137014A015D01720188019F01B8E1
:1012B00001D201EE010B022A024B026E029302BA26
:1012C00002E40210033F037003A403DC0317045578
:1012D000049704DD0427057505C80520067D06E092
:1012E000064907B8072D08A9082D09B9094D0AEACA
:1012F0000A900B400CFA0CC00D910E6F0F5A1000A3
:10130000FFFFFFFFFFFFFFFFFFFFFFFFFFFFFFFFED
:10131000FFFFFFFFFFFFFFFFFFFFFFFFFFFFFFFFDD
:10132000FFFFFFFFFFFFFFFFFFFFFFFFFFFFFFFFCD
:10133000FFFFFFFFFFFFFFFFFFFFFFFFFFFFFFFFBD
:103800000C944D1C0C947D1C0C944D1C0600FF095F
:1038100001A101150026FF00750885019506090024
:10382000B20201850295830900B202018503952643
:103830000900B20201850495040900B20201C00921
:1038400002220001010080190904000001030000A8
:10385000000921010100012233000705810308004E
:10386000C81201100100000008A020A442000101BC
:1038700002000116034C00450044006C0061006E1C
:10388000007400650072006E000C03410072005469
:103890000065006300040309040011241FBECFEF7C
:1038A000D4E0CDBFDEBF14E0A0E8B4E0E8EBFFE376
:1038B00005900D92A238B107D9F714E01D92A73BED
:1038C000B107E1F70C94101EA82FB92F80E090E00B
:1038D00041E050EA60956F5F58F42D9138EF8227F0
:1038E0009795879510F0842795273F5FC8F3F3CF0E
:1038F0000895EADF8D939D930895CF93CFB7CF932B
:10390000C3954C9BE9F74C9B09C04C9B07C04C9B53
:1039100005C04C9B03C04C9B01C0A3C0DF93C0916A
:103920009A04DD27CF55DB4F4C9B02C0DF91EBCFD4
:103930002F930F931F9309B12FEF04FB20F94F939F
:103940003F9319B14FEF012704FB21F93BE031C050
:103950004E7F012F19B1216028C0102F4D7F2260AA
:10396000000009B129C04B7F2460012F000019B16C
:103970002BC019B1477F28602AC04F7E09B1206152
:103980002CC04F7D19B120622FC04F7B09B120643C
:1039900032C0422709B149934FEF0000102714FBB2
:1039A00020F919B11471C9F1297F91F2012704FBA3
:1039B00021F909B1237F89F2315058F1102714FB06
:1039C00022F919B1277E79F2012704FB23F92F7C14
:1039D00081F209B1102714FB24F92F7971F200C08C
:1039E00019B1012704FB25F92F7359F200C009B161
:1039F000102714FB26F9223040F200C019B101272C
:103A000004FB27F9243028F64F77206819B100000D
:103A1000F9CF11E01CBB002719C03B503195C31BE7
:103A2000D04011E01CBB0881033CF9F00B34E9F0F5
:103A3000209198041981110F1213EDCF4A81441F70
:103A4000093641F10D3211F0013E29F700939F0430
:103A50003F914F911F910F912F91DF91CCB3C0FDFA
:103A60004FCFCF91CFBFCF91189520919F042223A4
:103A700079F310919D04112331F5343032F13093F4
:103A80009D042093990410919A043BE0311B3093DC
:103A90009A041BC000919D040130ACF40AE54F70FC
:103AA00049F43091810434FD12C000938104CDE8C3
:103AB000D4E011C03AE50BC02795A8F45150A9F401
:103AC000220F0000F9CF4AE503C042ED01C0432FA9
:103AD000C4E1D0E032E01AB114615C9A1AB90BB1BA
:103AE00020E414E15F93012756E00BB9279520F4F9
:103AF000515021F4220FF9CF012756E000003B5A24
:103B00000BB9D0F2279528F4515029F4220F000068
:103B1000F9CF012756E027950BB920F4515021F435
:103B2000220FF9CF012756E0299133230BB921F653
:103B30000B7E10919E04110FC651D0400BB911F0AD
:103B40001093980411E01CBB00611AB11B7E402F3A
:103B50004B7E5F9100C000C00BB91AB94BB978CF4A
:103B6000E2E8F4E080E881831282138280E48483B7
:103B7000158216820895FC0181818633E1F070F48C
:103B80008330B9F08431F9F0813009F048C088E819
:103B90008093830482818093840408958A33B1F0F2
:103BA00018F4883359F008958E3369F18F3391F00A
:103BB00008950C94B01D99249394089581E1809305
:103BC0005700E89508956380748008950380F48118
:103BD000E02D0994638174818281482F4F71807632
:103BE00059F4962FA3E8B4E0FB0181918D938E2FB9
:103BF000891B8417D0F30895803489F450E083E85A
:103C000094E00C94D31FA381B4819581868188238D
:103C100029F02C918223892B8C9308959C930895ED
:103C2000579A5F9A88E28A95F1F70E94B01D912C0D
:103C300081E085BF82E085BF8091690082608093CA
:103C40006900E89A549A80E0A895E7EBFBE0319789
:103C5000F1F700C000008150B9F754987894F12C26
:103C6000D0E0C0E00CE010E023E0D22E35E0E32EFF
:103C7000A89590919D048DEF890F87FD32C020910A
:103C80009A04D801A21BB109AF55BB4F20919904EA
:103C90002D3209F027C1883011F583EC80938D0413
:103CA0008AE58093810410928C043C91932F907646
:103CB00012962C91129711968C911197992309F4D1
:103CC0009AC0893009F074C0812C9FEF37FF02C081
:103CD00016969C9180E880938C04909380041092B7
:103CE0009D048091810484FF41C0809180048F3FB6
:103CF00009F43CC0C82E893010F098E0C92E982FE6
:103D00009C199093800490918D0428E892279093B9
:103D10008D048823E9F080919B0490919C0420916C
:103D20008C043C2D380F26FF25C1FC01AEE8B4E021
:103D300024912D9331963E13FBCF2FEF2C0D30E0C5
:103D40002F5F3F4F820F931F90939C0480939B049F
:103D50006C2D8EE894E00E94791C84E08C0D8C30F0
:103D600019F09FEF909380048093810484E199B1CE
:103D7000947131F48150D9F710929E0410929804F6
:103D8000992009F404C1219709F008C1F89481E150
:103D900080935700E8951DBA1092690081E085BFB5
:103DA00015BEEE27FF270995F12CD0E0C0E060CFCB
:103DB00090E08130A1F42093820482E894E0909313
:103DC0009C0480939B04243021F4F3018081809330
:103DD000830416969C9116979F3F09F476CF179609
:103DE0008C911797811179CF16968C91891708F0CD
:103DF00074CF982F72CF1092960481110AC010923E
:103E0000970426E934E092E030939C0420939B04CD
:103E1000E6CF853029F420939E0426E934E0F4CFE0
:103E2000863009F04EC013968C911397813059F467
:103E300081E698E390939C0480939B0492E180E454
:103E400080938C04CCCF823041F48FE398E390933D
:103E50009C0480939B0492E2F2CF8330F1F4211111
:103E600008C085E998E390939C0480939B0494E0B8
:103E7000E6CF213041F489E898E390939C04809345
:103E80009B049CE0DCCF2230D1F683E798E390934B
:103E90009C0480939B0496E1D2CF813241F481E56A
:103EA00098E390939C0480939B0499E0C8CF82325E
:103EB00031F68CE098E390939C0480939B0493E309
:103EC000BECF883059F0893019F42093A004A5CFD3
:103ED00091E08A3009F4A1CF90E09FCF20EA34E04E
:103EE00091E092CF20918C0427FFF9CE811010C071
:103EF0008C91813031F4CD010E94BB1D1092800461
:103F0000EECE11962D903C901297149689EF890F62
:103F1000982D980F892E41E08A0FF10191012F779A
:103F20003327232BF1F0F8942D913D910901409313
:103F30005700E8951124789491012E5F3F4F1901A5
:103F40002F773327232B41F4F894E0925700E8951C
:103F5000789407B600FCFDCF8A13DFCF97FFBFCE62
:103F6000CDCFF894D0925700E895789407B600FC2E
:103F7000FDCFD9CFAEE8B4E0282F492FE22FF42FA0
:103F800021912D932E2F4F2F3E13F8CFD6CE809117
:103F90008C0487FD09CF219709F4F394F9E0FF150C
:103FA00008F066CEF3CEFB01DC0102C005900D9255
:103FB00041505040D8F70895FF5AFFFFFFFFFFFF21
:103FC000FFFFFFFFFFFFFFFFFFFFFFFFFFFFFFFF01
:103FD000FFFFFFFFFFFFFFFFFFFFFFFFFFFFFFFFF1
:103FE000FFFFFFFFFFFFFFFFFFFFFFFFFFFFFFFFE1
:103FF000FFFFFFFFFFFFFFFFFFFFFFFFFFFFFFFFD1
:00000001FF
