:100000007FC00FC298C097C096C095C094C093C0DF
:1000100092C091C090C08FC08EC08DC08CC08BC06C
:1000200066C689C088C087C086C085C084C083C0BA
:1000300082C081C009022200010100800A09040077
:100040000001030000000921010100012216000740
:100050000581030800641201100100000008A020BF
:10006000B642000101020001180352006F00620055
:100070006F0043006C00650061006E006500720057
:100080000C0341007200740065006300040309045E
:100090000600FF0901A101150026FF00750895085B
:1000A0000900B20201C000000000240027002A005D
:1000B00000000000250028002B00000000002300A5
:1000C00026002900040404040404040402020202B9
:1000D000020203030303030301020408102040800B
:1000E000010204081020010204081020000000088A
:1000F00000020100000304070000000000000000EF
:1001000011241FBECFEFD4E0DEBFCDBF11E0A0E0D1
:10011000B1E0EAE1FEE002C005900D92A230B10725
:10012000D9F721E0A2E0B1E001C01D92AA34B207E4
:10013000E1F727D670C664CFCF93C62F20911F0159
:1001400024FF07C03091200128E8232720932001B5
:1001500003C02AE520931F01DC01E1E2F1E09C2FBE
:100160009E0F8D918193892F8E1B1816D4F36C2FBF
:1001700081E291E052D1CC5FC0931F01CF910895ED
:10018000CF93DF9360913001635067FDC4C08091CD
:100190002D01CCE0D0E0C81BD109CC5CDE4F8091B2
:1001A0002C018D3209F0A6C0683009F0B2C083EC92
:1001B000809314018AE580930101109202018881E5
:1001C000807639F0CE01A4D2982F8F3F09F481C0F8
:1001D00087C09A8110921D018981811106C01092F9
:1001E0001E012DE131E092E06FC0853019F490934B
:1001F000310167C0863009F04EC08B81813041F4F7
:1002000086E590E090932F0180932E0192E13FC00C
:10021000823041F484E390E090932F0180932E018B
:1002200092E235C08330F1F4911108C08CE890E07F
:1002300090932F0180932E0194E029C0913041F4D6
:1002400080E890E090932F0180932E019CE01FC0E6
:100250009230E1F488E690E090932F0180932E0194
:1002600098E115C0813241F486E490E090932F012B
:1002700080932E0199E00BC0823241F480E990E036
:1002800090932F0180932E0196E101C090E080E4CD
:100290008093020125C0883069F0893019F4909369
:1002A00033010FC08A3049F08B3059F48BE48093CE
:1002B000200107C023E331E002C02DE131E091E0ED
:1002C00003C02DE131E090E030932F0120932E0107
:1002D00007C0888187FD9E8180E88093020107C066
:1002E0008F81811104C08E81891708F4982F909313
:1002F00000010FC08091020187FF0BC0CE01E7D142
:100300008F3F21F48EE18093010103C0811110928F
:100310000001109230018091010184FF4FC0809153
:1003200000018F3F09F44AC0C82F893008F0C8E0A7
:100330008C1B809300019091140188E88927809399
:100340001401CC2351F13091020137FF08C06C2F0A
:1003500085E191E0A0D1C82F893050F51EC0809171
:100360002E0190912F012C2F280FA5E1B1E0FC0167
:1003700036FF06C034913D9331962E13FBCF04C057
:1003800031913D932E13FCCF01962FEF2C0F820F4E
:10039000911D90932F0180932E016C2F85E191E0A8
:1003A0003CD0CC5FCC3041F08FEF8093000104C093
:1003B0008FEF80930001CEE1C093010184E199B1F8
:1003C000947131F48150D9F71092310110922B01C0
:1003D000DF91CF910895E9E6F0E08081826080832B
:1003E000E89AEFE1F1E08BE481838AE58083089568
:1003F000A82FB92F80E090E041E050EA609530E00E
:1004000009C02D9182279795879510F0842795270D
:10041000305EC8F36F5FA8F30895EADF8D939D9374
:100420000895CF93CFB7CF93C3954C9BE9F74C9BDF
:1004300009C04C9B07C04C9B05C04C9B03C04C9B08
:1004400001C0A3C0DF93C0912D01DD27CC5CDE4F3E
:100450004C9B02C0DF91EBCF2F930F931F9309B1F9
:100460002FEF04FB20F94F933F9319B14FEF012772
:1004700004FB21F93BE031C04E7F012F19B121600F
:1004800028C0102F4D7F2260000009B129C04B7F8A
:100490002460012F000019B12BC019B1477F2860DB
:1004A0002AC04F7E09B120612CC04F7D19B1206256
:1004B0002FC04F7B09B1206432C0422709B1499354
:1004C0004FEF0000102714FB20F919B11471C9F186
:1004D000297F91F2012704FB21F909B1237F89F2D9
:1004E000315058F1102714FB22F919B1277E79F207
:1004F000012704FB23F92F7C81F209B1102714FB9B
:1005000024F92F7971F200C019B1012704FB25F9F4
:100510002F7359F200C009B1102714FB26F92230BD
:1005200040F200C019B1012704FB27F9243028F656
:100530004F77206819B10000F9CF11E01CBB0027EC
:1005400019C03B503195C31BD04011E01CBB088142
:10055000033CF9F00B34E9F020912B011981110FC4
:100560001213EDCF4A81441F093641F10D3211F0CB
:10057000013E29F7009332013F914F911F910F9156
:100580002F91DF91CCB3C0FD4FCFCF91CFBFCF9193
:10059000189520913201222379F310913001112313
:1005A00069F534306AF13093300120932C011091B9
:1005B0002D013BE0311B30932D0122C00091300111
:1005C0000130E4F40AE54F7049F43091010134FD43
:1005D00019C000930101C4E1D1E018C030911F019E
:1005E00034FD10C000931F01C0E2D1E00FC0279579
:1005F000A8F45150A9F4220F0000F9CF4AE503C036
:1006000042ED01C0432FC4E1D0E032E01AB11461E1
:100610005C9A1AB90BB120E414E15F93012756E00C
:100620000BB9279520F4515021F4220FF9CF01275F
:1006300056E000003B5A0BB9D0F2279528F45150F0
:1006400029F4220F0000F9CF012756E027950BB9B6
:1006500020F4515021F4220FF9CF012756E02991BF
:1006600033230BB921F60B7E10913101110FC651C6
:10067000D0400BB911F010932B0111E01CBB0061AD
:100680001AB11B7E402F4B7E5F9100C000C00BB99A
:100690001AB94BB971CFCF9320910301C62F2617FA
:1006A00008F4C22F4C2F50E06091040170E0605FAD
:1006B0007F4F87D3809104018C0F80930401809138
:1006C00003018C1B809303018C2FCF910895CF934E
:1006D000209103012223C9F0C62F261708F4C22F48
:1006E0004C2F50E06091040170E07BD380910401B5
:1006F0008C0F80930401909103019C1B9093030144
:1007000081E0992319F080E001C081E0CF91089544
:10071000FC0190819076903259F48181877F8130FD
:1007200039F488E080930301109204018FEF08955B
:1007300080E00895A89524DD80E008958F929F922F
:10074000AF92BF92CF92DF92EF92FF926B017C014A
:10075000C2D24B015C01BFD2DC01CB0188199909DF
:10076000AA09BB098C159D05AE05BF0518F4A8950F
:1007700007DDF1CF81E0FF90EF90DF90CF90BF9049
:10078000AF909F908F90089501D1A7D064E670E05C
:1007900080E090E0D3DF81E008D1892B21F480E074
:1007A00004D1892B19F010920501089581E08093FE
:1007B00005010895BFDF80910501882309F467C012
:1007C000EED0893C910534F462E080E098D062E09C
:1007D00081E095C066E980E05DD064E080E08FD084
:1007E00066E981E057D064E081E089D081E0DDD026
:1007F000892B11F566E980E04DD065E080E07FD07F
:1008000066E981E047D065E081E079D06CED75E084
:1008100080E090E093DF66E980E03CD064E080E037
:100820006ED062E081E06BD068EE73E080E090E033
:1008300085DF62E080E025C080E0B7D0892B39F504
:1008400066E980E027D065E080E059D066E981E084
:1008500021D065E081E053D06CED75E080E090E060
:100860006DDF66E981E016D064E081E048D062E0A7
:1008700080E045D068EE73E080E090E05FDF62E00A
:1008800081E03DD064EF71E080E090E057CF0895C3
:100890000895089581110FC06093070104B407FE05
:1008A0001BC05E9903C070E089E015C05D9914C05B
:1008B00070E08AE010C0813079F46093060104B4DE
:1008C00005FE0AC02A9903C070E085E004C029999A
:1008D00003C070E086E050C1089561E089E010D166
:1008E00061E08AE00DD161E085E00AD161E086E057
:1008F00007D160E080E0CEDF60E081E0CBCF811106
:1009000021C0633021F460E089E0CBD007C06430BF
:1009100041F46091070170E089E02ED160E08AE047
:1009200033C0653041F460E089E0BBD060910701DD
:1009300070E08AE021C0623041F561E089E0B1D029
:1009400061E0EDCF813009F5633021F460E085E0AE
:10095000A8D007C0643039F46091060170E085E0EA
:100960000BD160E010C0653041F460E085E099D0C3
:100970006091060170E086E0FFC0623031F461E012
:1009800085E08FD061E086E08CC0089560E08EE065
:10099000B7D062E080E1B4D062E081E1B1C08EE026
:1009A00048D180930A0199270895813029F480E184
:1009B00050D08093090104C081E14BD0809308019D
:1009C00099270895CF93DF9300D0CDB7DEB742E0EB
:1009D00050E060E070E0CE010196F3D189818A3A5F
:1009E00051F48A81853539F4CBDB60E070E080E03A
:1009F00090E00ED2FFCF0F900F90DF91CF9108952E
:100A0000833081F028F4813099F08230A1F008958C
:100A10008730A9F08830B9F08430D1F4809180001B
:100A20008F7D03C0809180008F7780938000089530
:100A300084B58F7702C084B58F7D84BD0895809181
:100A4000B0008F7703C08091B0008F7D8093B0009D
:100A50000895CF93DF93282F30E0F901E451FF4F41
:100A60008491F901E852FF4FD491F901EC53FF4F03
:100A7000C491CC2389F08111C3DFEC2FF0E0EE0F9D
:100A8000FF1FE654FF4FA591B491EC91ED2381E057
:100A900090E021F480E002C080E090E0DF91CF910F
:100AA00008951F93CF93DF93282F30E0F901E4518D
:100AB000FF4F8491F901E852FF4FD491F901EC53B3
:100AC000FF4FC491CC23C1F0162F811199DFEC2F79
:100AD000F0E0EE0FFF1FE055FF4FA591B4918FB7E7
:100AE000F894111105C09C91ED2FE095E92302C007
:100AF000EC91ED2BEC938FBFDF91CF911F91089577
:100B0000CF93DF9390E0FC01E852FF4F2491FC016A
:100B1000EC53FF4F8491882361F190E0880F991F77
:100B2000FC01EA55FF4FC591D491FC01E055FF4F00
:100B3000A591B491611109C09FB7F894888120955F
:100B400082238883EC912E230BC0623061F49FB71F
:100B5000F8943881822F809583238883EC912E2B03
:100B60002C939FBF06C08FB7F894E8812E2B288363
:100B70008FBFDF91CF9108951F93CF93DF93182FED
:100B8000EB0161E0BDDF209711F460E004C0CF3FCE
:100B9000D10531F461E0812FDF91CF911F9181CF99
:100BA000E12FF0E0E451FF4FE491E330F9F048F435
:100BB000E130B9F0E230A1F584B5806284BDC8BDF2
:100BC00034C0E730E9F0E83019F1E43049F58091BC
:100BD0008000806280938000D0938B00C0938A0055
:100BE00024C084B5806884BDC7BD1FC080918000CB
:100BF000806880938000D0938900C093880015C0DE
:100C00008091B00080688093B000C093B3000DC0A5
:100C10008091B00080628093B000C093B40005C0A2
:100C2000C038D1050CF0B6CFB0CFDF91CF911F9176
:100C300008958E3008F08E508770806480937C0019
:100C400080917A00806480937A0080917A0086FD9A
:100C5000FCCF809178002091790090E0922B08954C
:100C6000789484B5826084BD84B5816084BD85B587
:100C7000826085BD85B5816085BDEEE6F0E080814E
:100C800081608083E1E8F0E010828081826080836F
:100C9000808181608083E0E8F0E0808181608083F2
:100CA000E1EBF0E0808184608083E0EBF0E0808124
:100CB00081608083EAE7F0E08081846080838081C6
:100CC0008260808380818E7F808380818068808342
:100CD0001092C10008952FB7F8946091100170919F
:100CE000110180911201909113012FBF08951F925D
:100CF0000F920FB60F9211242F933F938F939F93D0
:100D0000AF93BF938091100190911101A0911201B6
:100D1000B091130130910F012DE2230F2D3720F4F4
:100D20000196A11DB11D05C020EB230F0296A11D48
:100D3000B11D20930F018093100190931101A09396
:100D40001201B093130180910B0190910C01A091BD
:100D50000D01B0910E010196A11DB11D80930B01F3
:100D600090930C01A0930D01B0930E01BF91AF9130
:100D70009F918F913F912F910F900FBE0F901F90D9
:100D800018956EDF9EE088E10FB6F894A8958093E1
:100D900060000FBE909360001EDB549A80E081508B
:100DA00041F0A895E7EBFBE03197F1F700C00000B8
:100DB000F6CF54987894E8DCA895E2D9FBDC02DE03
:100DC000FBCFDC01CB01FC01F999FECF06C0F2BDDF
:100DD000E1BDF89A319600B40D9241505040B8F7F9
:100DE0000895DC01CB0102C02D9105D04150504047
:100DF000D8F70895262FF999FECF1FBA92BD81BD6D
:100E000020BD0FB6F894FA9AF99A0FBE019608958C
:100E1000F1DF272FF0CFF894FFCFFF5AFFFFFFFF3E
:100E2000FFFFFFFFFFFFFFFFFFFFFFFFFFFFFFFFD2
:100E3000FFFFFFFFFFFFFFFFFFFFFFFFFFFFFFFFC2
:100E4000FFFFFFFFFFFFFFFFFFFFFFFFFFFFFFFFB2
:100E5000FFFFFFFFFFFFFFFFFFFFFFFFFFFFFFFFA2
:1018000058C08CC071C070C06FC06EC06DC06CC05D
:101810006BC06AC069C068C067C066C065C064C08C
:1018200063C062C061C060C05FC05EC05DC05CC0BC
:101830005BC05AC00600FF0901A101150026FF0088
:101840007508850195060900B20201850295830994
:1018500000B20201C0090222000101008032090425
:101860000000010300000009210101000122210004
:10187000070581030800C81201100100000008A03C
:1018800020B642000101020001180352006F0062FD
:10189000006F0043006C00650061006E006500721F
:1018A000000C03410072007400650063000403092A
:1018B000040011241FBECFEFD4E0DEBFCDBF11E086
:1018C000A0E0B1E0E8E2FFE102C005900D92AA308D
:1018D000B107D9F721E0AAE0B1E001C01D92A93318
:1018E000B207E1F74CD11EC38BCFA82FB92F80E0F0
:1018F00090E041E050EA609530E009C02D918227E8
:101900009795879510F084279527305EC8F36F5F11
:10191000A8F30895EADF8D939D930895CF93CFB7F1
:10192000CF93C3954C9BE9F74C9B09C04C9B07C0D8
:101930004C9B05C04C9B03C04C9B01C0A3C0DF93D4
:10194000C0911C01DD27CD5DDE4F4C9B02C0DF91B5
:10195000EBCF2F930F931F9309B12FEF04FB20F9C7
:101960004F933F9319B14FEF012704FB21F93BE05F
:1019700031C04E7F012F19B1216028C0102F4D7F3B
:101980002260000009B129C04B7F2460012F0000B4
:1019900019B12BC019B1477F28602AC04F7E09B109
:1019A00020612CC04F7D19B120622FC04F7B09B13F
:1019B000206432C0422709B149934FEF000010273D
:1019C00014FB20F919B11471C9F1297F91F2012793
:1019D00004FB21F909B1237F89F2315058F1102716
:1019E00014FB22F919B1277E79F2012704FB23F9B0
:1019F0002F7C81F209B1102714FB24F92F7971F2A1
:101A000000C019B1012704FB25F92F7359F200C05A
:101A100009B1102714FB26F9223040F200C019B199
:101A2000012704FB27F9243028F64F77206819B1E5
:101A30000000F9CF11E01CBB002719C03B503195C5
:101A4000C31BD04011E01CBB0881033CF9F00B34F0
:101A5000E9F020911A011981110F1213EDCF4A817B
:101A6000441F093641F10D3211F0013E29F7009370
:101A700021013F914F911F910F912F91DF91CCB395
:101A8000C0FD4FCFCF91CFBFCF91189520912101AD
:101A9000222379F310911F01112321F5343022F113
:101AA00030931F0120931B0110911C013BE0311B5F
:101AB00030931C0119C000911F0101309CF40AE50C
:101AC0004F7081F43091080134FD10C0009308017B
:101AD000CFE0D1E00FC02795A8F45150A9F4220F10
:101AE0000000F9CF4AE503C042ED01C0432FC4E135
:101AF000D0E032E01AB114615C9A1AB90BB120E45B
:101B000014E15F93012756E00BB9279520F451505B
:101B100021F4220FF9CF012756E000003B5A0BB900
:101B2000D0F2279528F4515029F4220F0000F9CF64
:101B3000012756E027950BB920F4515021F4220FCC
:101B4000F9CF012756E0299133230BB921F60B7EFB
:101B500010912001110FC651D0400BB911F0109314
:101B60001A0111E01CBB00611AB11B7E402F4B7E95
:101B70005F9100C000C00BB91AB94BB97ACF579A20
:101B80005F9A87B1837F87B988B18C6088B988E212
:101B90008A95F1F781E085BF82E085BF8091690079
:101BA000836080936900E89A549A80E0A895E7EBF7
:101BB000FBE03197F1F700C000008150B9F754986D
:101BC0007894329B07C0D6B1D3FB882780F9D1E047
:101BD000D82701C0D1E0F12C00E010E0A895409199
:101BE0001F013DEF340F37FD1DC180911C01ACE09A
:101BF000B0E0A81BB109AD5DBE4F80911B018D32D5
:101C000009F0C1C0383009F00BC183EC80930F019B
:101C10008AE58093080110920E018C91282F20767E
:101C200011969C9111972223E1F0993079F4129644
:101C30009C911297923031F410920B0187FD8FC066
:101C40008FEF8FC081E080930A018FC0913009F03F
:101C50008CC080E091E090931E0180931D0187E08D
:101C600085C012968C91129710921801911106C09E
:101C70001092190128E131E082E06CC0953019F42E
:101C80008093200159C0963009F050C013969C9162
:101C90001397913041F487E798E190931E01809368
:101CA0001D0182E13FC0923041F485E598E19093B7
:101CB0001E0180931D0182E235C09330F1F4811141
:101CC00008C08DEA98E190931E0180931D0184E085
:101CD00029C0813041F481EA98E190931E018093FC
:101CE0001D018CE01FC08230E1F489E898E19093F7
:101CF0001E0180931D0188E115C0913241F487E6F1
:101D000098E190931E0180931D0189E00BC09232EF
:101D100041F484E398E190931E0180931D0181E2D8
:101D200001C080E090E490930E0120C0983079F0DB
:101D3000993031F48093220128E131E080E00AC03B
:101D400081E09A3009F080E028E131E003C022E22E
:101D500031E081E030931E0120931D0107C01696EB
:101D60008C9190E890930E010BC080E017969C91A7
:101D70001797911105C016969C91981708F4892F12
:101D8000809307014DC080910E0187FF49C080916B
:101D90000C0190910D0120910B01211109C01196A8
:101DA0008C91119712969C911297149639EF340FDB
:101DB000230F20930B012078482F4F7399F0F8944C
:101DC0006D917D9141E0FC010B0140935700E89536
:101DD00011247894AC014E5F5F4FCA01642F6F737A
:101DE00061F014C0F89443E0FC0140935700E8957B
:101DF000789407B600FCFDCFE2CFF89465E06093DD
:101E00005700E895789407B600FCFDCF325009F0F2
:101E1000D3CF50930D0140930C0121111092070173
:101E200010921F018091080184FF39C08091070141
:101E30008F3FA9F1C82F893008F0C8E08C1B809330
:101E4000070190910F0188E8892780930F01CC2327
:101E5000D1F0E0911D01F0911E0180910E01A0E1F1
:101E6000B1E086FF07C08C2F94919D9331968150ED
:101E7000D9F705C08C2F91919D938150E1F7F09394
:101E80001E01E0931D016C2F80E191E043DDCC5FEA
:101E9000CC3019F08FEF80930701C093080184E1E3
:101EA00099B1947131F48150D9F7109220011092B8
:101EB0001A0180910A01882321F00150110949F487
:101EC0001EC080910E0187FD07C00150110909F461
:101ED000F394D13069F406C0D13009F07CCEF12CF6
:101EE00000E010E0329B19C0339B17C0D2E076CEE1
:101EF000FCE0FF1508F072CED23009F46FCEF894F2
:101F000081E180935700E8951DBA1092690081E045
:101F100085BF15BEE0E0F0E00995FCE0FF1578F321
:081F2000D1E05CCEF894FFCF84
:0A1F280001400000200000FF5A00F5
:0400000300001800E1
:00000001FF
