:1018000058C08CC071C070C06FC06EC06DC06CC05D
:101810006BC06AC069C068C067C066C065C064C08C
:1018200063C062C061C060C05FC05EC05DC05CC0BC
:101830005BC05AC00600FF0901A101150026FF0088
:101840007508850195060900B20201850295830994
:1018500000B20201C0090222000101008032090425
:101860000000010300000009210101000122210004
:10187000070581030800C81201100100000008A03C
:1018800020B642000101020001180352006F0062FD
:10189000006F0043006C00650061006E006500721F
:1018A000000C03410072007400650063000403092A
:1018B000040011241FBECFEFD4E0DEBFCDBF11E086
:1018C000A0E0B1E0E8EDFEE102C005900D92AA3083
:1018D000B107D9F721E0AAE0B1E001C01D92A93318
:1018E000B207E1F74CD1F6C28BCFA82FB92F80E019
:1018F00090E041E050EA609530E009C02D918227E8
:101900009795879510F084279527305EC8F36F5F11
:10191000A8F30895EADF8D939D930895CF93CFB7F1
:10192000CF93C3954C9BE9F74C9B09C04C9B07C0D8
:101930004C9B05C04C9B03C04C9B01C0A3C0DF93D4
:10194000C0911C01DD27CD5DDE4F4C9B02C0DF91B5
:10195000EBCF2F930F931F9309B12FEF04FB20F9C7
:101960004F933F9319B14FEF012704FB21F93BE05F
:1019700031C04E7F012F19B1216028C0102F4D7F3B
:101980002260000009B129C04B7F2460012F0000B4
:1019900019B12BC019B1477F28602AC04F7E09B109
:1019A00020612CC04F7D19B120622FC04F7B09B13F
:1019B000206432C0422709B149934FEF000010273D
:1019C00014FB20F919B11471C9F1297F91F2012793
:1019D00004FB21F909B1237F89F2315058F1102716
:1019E00014FB22F919B1277E79F2012704FB23F9B0
:1019F0002F7C81F209B1102714FB24F92F7971F2A1
:101A000000C019B1012704FB25F92F7359F200C05A
:101A100009B1102714FB26F9223040F200C019B199
:101A2000012704FB27F9243028F64F77206819B1E5
:101A30000000F9CF11E01CBB002719C03B503195C5
:101A4000C31BD04011E01CBB0881033CF9F00B34F0
:101A5000E9F020911A011981110F1213EDCF4A817B
:101A6000441F093641F10D3211F0013E29F7009370
:101A700021013F914F911F910F912F91DF91CCB395
:101A8000C0FD4FCFCF91CFBFCF91189520912101AD
:101A9000222379F310911F01112321F5343022F113
:101AA00030931F0120931B0110911C013BE0311B5F
:101AB00030931C0119C000911F0101309CF40AE50C
:101AC0004F7081F43091080134FD10C0009308017B
:101AD000CFE0D1E00FC02795A8F45150A9F4220F10
:101AE0000000F9CF4AE503C042ED01C0432FC4E135
:101AF000D0E032E01AB114615C9A1AB90BB120E45B
:101B000014E15F93012756E00BB9279520F451505B
:101B100021F4220FF9CF012756E000003B5A0BB900
:101B2000D0F2279528F4515029F4220F0000F9CF64
:101B3000012756E027950BB920F4515021F4220FCC
:101B4000F9CF012756E0299133230BB921F60B7EFB
:101B500010912001110FC651D0400BB911F0109314
:101B60001A0111E01CBB00611AB11B7E402F4B7E95
:101B70005F9100C000C00BB91AB94BB97ACF579A20
:101B80005F9A88E28A95F1F781E085BF82E085BFA0
:101B900080916900836080936900E89A549A80E09C
:101BA000A895E7EBFBE03197F1F700C0000081500A
:101BB000B9F754987894D0E000E010E0A8954091EF
:101BC0001F013DEF340F37FD1DC180911C01ACE0BA
:101BD000B0E0A81BB109AD5DBE4F80911B018D32F5
:101BE00009F0C1C0383009F00BC183EC80930F01BC
:101BF0008AE58093080110920E018C91282F20769F
:101C000011969C9111972223E1F0993079F4129664
:101C10009C911297923031F410920B0187FD8FC086
:101C20008FEF8FC081E080930A018FC0913009F05F
:101C30008CC080E091E090931E0180931D0187E0AD
:101C400085C012968C91129710921801911106C0BE
:101C50001092190128E131E082E06CC0953019F44E
:101C60008093200159C0963009F050C013969C9182
:101C70001397913041F487E798E190931E01809388
:101C80001D0182E13FC0923041F485E598E19093D7
:101C90001E0180931D0182E235C09330F1F4811161
:101CA00008C08DEA98E190931E0180931D0184E0A5
:101CB00029C0813041F481EA98E190931E0180931C
:101CC0001D018CE01FC08230E1F489E898E1909317
:101CD0001E0180931D0188E115C0913241F487E611
:101CE00098E190931E0180931D0189E00BC0923210
:101CF00041F484E398E190931E0180931D0181E2F9
:101D000001C080E090E490930E0120C0983079F0FB
:101D1000993031F48093220128E131E080E00AC05B
:101D200081E09A3009F080E028E131E003C022E24E
:101D300031E081E030931E0120931D0107C016960B
:101D40008C9190E890930E010BC080E017969C91C7
:101D50001797911105C016969C91981708F4892F32
:101D6000809307014DC080910E0187FF49C080918B
:101D70000C0190910D0120910B01211109C01196C8
:101D80008C91119712969C911297149639EF340FFB
:101D9000230F20930B012078482F4F7399F0F8946C
:101DA0006D917D9141E0FC010B0140935700E89556
:101DB00011247894AC014E5F5F4FCA01642F6F739A
:101DC00061F014C0F89443E0FC0140935700E8959B
:101DD000789407B600FCFDCFE2CFF89465E06093FD
:101DE0005700E895789407B600FCFDCF325009F013
:101DF000D3CF50930D0140930C0121111092070194
:101E000010921F018091080184FF39C08091070161
:101E10008F3FA9F1C82F893008F0C8E08C1B809350
:101E2000070190910F0188E8892780930F01CC2347
:101E3000D1F0E0911D01F0911E0180910E01A0E111
:101E4000B1E086FF07C08C2F94919D93319681500D
:101E5000D9F705C08C2F91919D938150E1F7F093B4
:101E60001E01E0931D016C2F80E191E053DDCC5FFA
:101E7000CC3019F08FEF80930701C093080184E103
:101E800099B1947131F48150D9F7109220011092D8
:101E90001A0180910A01882321F00150110949F4A7
:101EA0000BC080910E0187FD86CE0150110909F407
:101EB000DF5FD43108F482CEF89481E1809357003B
:101EC000E8951DBA1092690081E085BF15BEE0E07B
:081ED000F0E00995F894FFCF42
:0A1ED80001400000200000FF5A0046
:0400000300001800E1
:00000001FF
