:100000000C949B000C943F020C94C3000C94C3000E
:100010000C94C3000C94C3000C94C3000C947A1B82
:100020000C94C3000C94C3000C94C3000C94C30044
:100030000C94C3000C94C3000C94C3000C94C30034
:100040000C94711F0C94C3000C94C41A0C949E1A47
:100050000C94C3000C94C3000C94C3000C94C30014
:100060000C94C3000C94C30009022200010100801B
:100070000A09040000010300000009210101000138
:100080002216000705810308006412011001000018
:100090000008A020B5420001010200011403420043
:1000A000540053007000650061006B006500720031
:1000B0000C0341007200740065006300040309042E
:1000C0000600FF0901A101150026FF007508951B18
:1000D0000900B20201C000000000240027002A002D
:1000E0000000000023002600290000000008000294
:1000F00001000003040700000000000000000102EE
:1001000004081020408001020408102001020408A5
:10011000102000000000250028002B000404040427
:1001200004040404020202020202030303030303A1
:100130000200E11FEB1F11241FBECFEFD8E0DEBF8E
:10014000CDBF12E0A0E0B1E0E0EDF6E402C0059022
:100150000D92AE30B107D9F725E0AEE0B2E001C0B4
:100160001D92A933B207E1F710E0CBE9D0E004C05B
:100170002197FE010E948C20C939D107C9F70E943E
:10018000BB1F0C9466230C940000CF93C62F2091C4
:100190000E0524FF07C030910F0528E82327209380
:1001A0000F0503C02AE520930E05DC01E0E1F5E030
:1001B0009C2F9E0F8D918193892F8E1B1816D4F33F
:1001C0006C2F80E195E00E943B02CC5FC0930E054E
:1001D000CF910895CF93DF9360911F05635067FD22
:1001E000C6C080911C05CCE0D0E0C81BD109CD5D14
:1001F000DA4F80911B058D3209F0A7C0683009F0F5
:10020000B4C083EC809303058AE5809301011092CA
:100210000E028881807641F0CE010E949F03982FC4
:100220008F3F09F481C087C09A8110920C058981A3
:10023000811106C010920D052CE035E092E06FC0F0
:10024000853019F49093200567C0863009F04EC0C0
:100250008B81813041F48AE890E090931E05809371
:100260001D0592E13FC0823041F488E690E0909312
:100270001E0580931D0592E235C08330F1F4911183
:1002800008C08CEB90E090931E0580931D0594E0D0
:1002900029C0913041F480EB90E090931E0580934B
:1002A0001D059CE01FC09230E1F48CE990E0909332
:1002B0001E0580931D0594E115C0813241F48AE743
:1002C00090E090931E0580931D0599E00BC082324B
:1002D00041F480EC90E090931E0580931D0596E11B
:1002E00001C090E080E480930E0225C0883069F060
:1002F000893019F4909322050FC08A3049F08B3071
:1003000059F48BE480930F0507C022E235E002C068
:100310002CE035E091E003C02CE035E090E0309334
:100320001E0520931D0507C0888187FD9E8180E8FA
:1003300080930E0207C08F81811104C08E818917BE
:1003400008F4982F9093000110C080910E0287FF4F
:100350000CC0CE010E947D038F3F21F48EE180937B
:10036000010103C081111092000110921F058091BC
:10037000010184FF51C0809100018F3F09F44CC0FE
:10038000C82F893008F0C8E08C1B80930001909141
:10039000030588E8892780930305CC2359F1309120
:1003A0000E0237FF09C06C2F84E095E00E946003C5
:1003B000C82F893058F51EC080911D0590911E05EB
:1003C0002C2F280FA4E0B5E0FC0136FF06C03491C5
:1003D0003D9331962E13FBCF04C031913D932E13E4
:1003E000FCCF01962FEF2C0F820F911D90931E05CD
:1003F00080931D056C2F84E095E00E943B02CC5F4A
:10040000CC3041F08FEF8093000104C08FEF8093D8
:100410000001CEE1C093010184E199B1947131F4FE
:100420008150D9F71092200510921A05DF91CF91D3
:100430000895E9E6F0E0808182608083E89AEEE04A
:10044000F5E08BE481838AE580830895A82FB92F96
:1004500080E090E041E050EA609530E009C02D91E5
:1004600082279795879510F084279527305EC8F3EB
:100470006F5FA8F30895EADF8D939D930895CF935E
:10048000CFB7CF93DF93C3954C9BE9F74C9B0BC041
:100490004C9B09C04C9B07C04C9B05C04C9B03C0A8
:1004A0004C9B01C08BC06F93C0911C05DD27CD5DB7
:1004B000DA4F2F9365E54C9B03C02F916F91E6CFE8
:1004C0000F931F934F9320E040E15F9309B10471B4
:1004D00004FB27F93F9350E03BE039C014714064BE
:1004E0002F77012F5F5F1EC0406819B114712F77FD
:1004F00052501FC0406409B12F770471D1F15F5F82
:1005000000C023C0406219B12F77147191F15F5F71
:1005100000C025C004711027515012F45D5F000027
:10052000115027952C3F19B1C8F6147101270150BD
:1005300027952C3FC8F64227499309B1047110272B
:100540004F73115027952C3FA8F64695469519B143
:10055000147179F00127015027952C3F98F66B5ABA
:1005600060F3315009B1B0F600C011E01CBB0027A8
:1005700019C03B503195C31BD04011E01CBB088112
:10058000033C09F10B34F9F020911A051981110F80
:100590001213EDCF4A81441F093651F10D3211F08B
:1005A000013E29F7009321053F915F914F911F91E3
:1005B0000F912F916F91CCB3C0FD65CFDF91CF919B
:1005C000CFBFCF91189520912105222369F3109177
:1005D0001F05112391F5343092F130931F052093BC
:1005E0001B0510911C053BE0311B30931C0527C0F7
:1005F00000911F0501300CF50AE54F7049F4309168
:10060000010134FD1DC000930101C3E0D5E01CC011
:1006100030910E0534FD14C000930E05CFE0D5E0F7
:1006200013C0052710E000C000000BB91AC0052751
:1006300010E0221F1DC010E021C04AE502C032EDCB
:10064000432FC4E1D0E032E01AB114615C9A0BB1DF
:100650001AB954E120E865E320FF05270BB9279577
:1006600017951C3FF0F66695B8F7B1F720FF052700
:100670000BB9279517951C3FD0F62795179517FFAF
:10068000052700001C3F0BB9B0F629913A9519F7E0
:100690000B7E10912005110FC651D0400BB911F0FF
:1006A00010931A0511E01CBB00611AB11B7E402F8C
:1006B0004B7E54E05A95F1F70BB91AB94BB974CF88
:1006C000CF9320910F02C62F261708F4C22F4C2F6C
:1006D00050E06091100270E0605E7F4F0E940C233A
:1006E000809110028C0F8093100280910F028C1B5E
:1006F00080930F028C2FCF910895CF9320910F02FA
:100700002223D1F0C62F261708F4C22F4C2F50E019
:100710006091100270E00E944423809110028C0FBF
:100720008093100290910F029C1B90930F0281E026
:10073000992319F080E001C081E0CF910895FC0178
:1007400090819076903259F48181877F813039F49D
:100750008BE180930F02109210028FEF089580E0DA
:10076000089560E08FE00E94D61B60E080E10E9467
:10077000D61B61E085E00E94D61B61E089E00E9403
:10078000D61B61E08AE00E94D61B61E082E10E94F4
:10079000D61B61E083E10E94D61B60E08EE00E94E0
:1007A000D61B60E081E10E94D61B6FEF70E085E010
:1007B0000E947A1E6FEF70E089E00E947A1E6FEF50
:1007C00070E08AE00E947A1E60E083E10E941F1BB5
:1007D00060E080E090E00E944E230C94700F46E0B1
:1007E00050E060E070E08DE192E00E940C23809187
:1007F0001D02882309F48AC08A3A09F487C082302E
:1008000009F471C018F4813061F07BC0833009F4C1
:1008100076C0843009F075C080911E020E949E0E41
:1008200070C080911E0290E064E670E09B01281B7E
:10083000390B121613061CF09C01245631094FEF98
:10084000429FC001439F900D11240E942C20FB0168
:10085000709318026093170280911F0290E064E683
:1008600070E09B01281B390B121613061CF09C012B
:10087000245631094FEF429FC001439F900D112430
:100880000E942C2070931602609315028091200222
:1008900090E064E670E09B01281B390B12161306EA
:1008A0001CF09C01245631094FEF429FC001439F29
:1008B000900D11240E942C20709314026093130257
:1008C000BF0185E00E947A1E6091150270911602A8
:1008D00089E00E947A1E60911302709114028AE0EE
:1008E0000E947A1E0EC08091040190910501039729
:1008F00041F480911E0290E00E94340F02C00E94D9
:10090000490F60E080E090E00C944E230895CF9270
:10091000DF92EF92FF928EE00E94D91E092E000C0A
:10092000AA0BBB0BC12C22E0D22EE12CF12CA7018B
:100930009601281B390B4A0B5B0B12161306140683
:10094000150674F4A4E6B0E00E9481209B01AC017E
:1009500089E055954795379527958A95D1F70DC02C
:100960009C01AD01325041095109A4E6B0E00E945A
:100970008120A70196010E946220209319023093E2
:100980001A0240931B0250931C0281E10E94F61A46
:1009900080931D028091190280931E02909146045B
:1009A0008091470490931F02809320029091440409
:1009B00080914504909321028093220290914204F9
:1009C0008091430490932302809324028091040138
:1009D0008093250290913C0480913D0490932602DF
:1009E00080932702909136048091370490932802D7
:1009F00080932902909130048091310490932A02CF
:100A000080932B0290913E0480913F0490932C029E
:100A100080932D02909138048091390490932E0296
:100A200080932F029091320480913304909330028E
:100A3000809331029091400480914104909332025E
:100A40008093330290913A0480913B049093340256
:100A5000809335029091340480913504909336024E
:100A6000809337024BE150E060E270E08DE192E06C
:100A7000FF90EF90DF90CF900C942223A8950E94D6
:100A8000EA000E94D00B0E9487040C94D00B0E94B5
:100A90003E050E94AE0C0E94EF030C948704CF9396
:100AA000DF9300D0CDB7DEB742E050E060E070E009
:100AB000CE0101960E940C2389818A3A61F48A81D1
:100AC000853549F40E94EA0060E070E080E090E043
:100AD0000E945C23FFCF0F900F90DF91CF9108957C
:100AE0008F929F92AF92BF92EF92FF920F931F93BC
:100AF000CF93DF93EC010E94CB06CE010E94090741
:100B0000813D27E0920708F4B1C0BC01CE010E94EC
:100B10001C07BE0161597F4F9E0123593F4FD901E8
:100B20004D915C911197FB015183408312974D9138
:100B30005C911197F9015183408324503109F901E7
:100B40004081518111965C934E9314974D915C9125
:100B500011975183408324503109F901408151811B
:100B60004D935C93329740815181D9014D935C93B1
:100B70009183808380E090E021913191820F931FD7
:100B8000E617F707C9F767E070E00E942C208B0199
:100B9000CE010E944907BC0180E090E00E94B6218E
:100BA0002DEC3CEC4CE45DE30E9444224B015C01E3
:100BB0007E01B8E5EB0EF11CF70180819181BC014B
:100BC000990F880B990B0E94B82123E333E343E785
:100BD0005FE30E9444229B01AC01C501B4010E9465
:100BE000A2200E948021AB01D7016D937C93FE016E
:100BF000EE5BFF4F1183008336962081318102170F
:100C000013071CF425E63F9620C0FE01E65BFF4F6C
:100C100020813181021713071CF42FE63D9615C081
:100C2000FE01E45BFF4F20813181021713071CF4A2
:100C300026E73B960AC0FE01E25BFF4F208131812F
:100C4000021713071CF428E639962083FE01E05BA7
:100C5000FF4F2081222331F03A97208131812417E0
:100C600035077CF0C95ADF4F88810CC0FE01E85A75
:100C7000FF4F11821082CE5BDF4F1982188280E213
:100C800001C086E6DF91CF911F910F91FF90EF9009
:100C9000BF90AF909F908F900895FC01E45AFF4F52
:100CA0007183608376972EE531E03183208332961D
:100CB00022E030E031832083329624E030E031833B
:100CC0002083329626E030E03183208332962AE07A
:100CD00030E031832083339631832083329622E3C0
:100CE00030E031832083329681E090E091838083ED
:100CF00008958F929F92AF92BF92CF92DF92EF9220
:100D0000FF920F931F93CF93DF938C01065A1F4FCF
:100D1000F8011182108220E1822E27E2922EC12C4E
:100D2000D12C76015C01FCE5AF0EB11CEC01CB5A75
:100D3000DF4FF50180810E94D91E28813981AC01E5
:100D4000429FC001439F900D529F900D1124092E88
:100D5000000CAA0BBB0BC80ED91EEA1EFB1E51E0ED
:100D6000851A910831F7C701B60120E137E240E06A
:100D700050E00E944020F80131832083DF91CF9121
:100D80001F910F91FF90EF90DF90CF90BF90AF90A9
:100D90009F908F900895AF92BF92CF92DF92EF9283
:100DA000FF920F931F93CF93DF93EC015C0140E41C
:100DB000A40EB11C6C015CE5C50ED11C7C0185E55F
:100DC000E80EF11C8E01065A1F4FF60180810E9429
:100DD000D91EF70120813181AC01429FC001439FA0
:100DE000900D529F900D1124F80120813181821BBA
:100DF000930B89939993CA15DB0539F7DF91CF914E
:100E00001F910F91FF90EF90DF90CF90BF90AF9028
:100E10000895FC01AC01405C5F4F80E090E02191BF
:100E2000319137FF03C0319521953109820F931F0E
:100E3000E417F507A1F70895CF93DF93AC01EC0118
:100E4000EE96A0E0B0E0FA01228133814E5F5F4F61
:100E50000190F081E02D2E1B3F0B37FF03C0319531
:100E600021953109A20FB31F4C175D0761F7FC01F3
:100E7000EF5AFF4F20813181A29FC001A39F900DA7
:100E8000B29F900D11240E941820CB01DF91CF91C9
:100E90000895CF93DF93DC01A05CBF4F2D913C916F
:100EA0001197FC0180E090E060E070E0EF01C05A33
:100EB000DF4F4191519157FF03C051954195510921
:100EC0008417950718F479836883CA016F5F7F4F91
:100ED00040815181240F351F6032710551F737FF72
:100EE00002C0215E3F4F45E0359527954A95E1F7D1
:100EF0002D933C93DF91CF910895CF92DF92EF92A3
:100F0000FF92CF93DF93EB01D7FF02C0615E7F4F6B
:100F100025E0759567952A95E1F7FC01AC01405CE9
:100F20005F4F80E021913191261B370B229F800D6E
:100F30001124E417F507B1F790E00E942C20072E4A
:100F4000000C880B990B0E94B8210E94B7226B01FC
:100F50007C01BE01DD0F880B990B0E94B8219B011B
:100F6000AC01C701B6010E940E210E948021CB0175
:100F7000DF91CF91FF90EF90DF90CF900895FC012B
:100F800011821082138212821582148217821682B5
:100F9000118610860895FC01828193810895FC01D9
:100FA000848195810895FC0124813581608171815E
:100FB00040855185649FC001659F900D749F900D81
:100FC0001124229FB001239F700D700D11240E94E7
:100FD0002C20CB0103970895FC0124813581608189
:100FE000718146815781649FC001659F900D749FF8
:100FF000900D1124229FA001239F500D500D11240C
:10100000429FB001439F700D529F700D11240E94AA
:101010002C20CB01039708958F929F92AF92BF929D
:10102000CF92DF92EF92FF920F931F93CF93DF93B4
:10103000FC0120813181E9012196D183C0830281A5
:1010400013816B01C01AD10AC601BE010E942C2077
:10105000669F7001679FF00CF00C1124C69EA001E2
:10106000C79E500DD69E500D1124429FC001439F34
:10107000900D529F900D1124060F171F13830283AA
:1010800044815581868097808E9D50018F9DB00C44
:101090009E9DB00C1124690112E0C11AD108CC9EAA
:1010A000D001CD9EB00DDC9EB00D1124ED01239634
:1010B000AC9ED001AD9EB00DBC9EB00D1124C0857C
:1010C000D185AC0FBD1FC6E0CE9D6001CF9DD00C79
:1010D0001124C49EE001C59ED00DD49ED00D1124D4
:1010E000AC0FBD1FCCEF1C2F16037001179FF00C27
:1010F0001124E89CE001E99CD00DF89CD00D11244E
:10110000AC0FBD1FB187A087869FE001879FD00DE0
:10111000969FD00D112421503109C29FD001C39F49
:10112000B00DD29FB00D112484010A0F1B1F2DEFAB
:101130002603D001279FB00D1124A49F9001A59FE5
:10114000300DB49F300D1124020F131F1783068337
:10115000840F951F95838483DF91CF911F910F9109
:10116000FF90EF90DF90CF90BF90AF909F908F90C7
:101170000895FC011182108213821282158214825A
:1011800017821682118610861386128615A214A263
:1011900010A611A612A613A614A615A6118E108EBF
:1011A000138E128E158E148E178E168E11A210A20B
:1011B00013A212A281E085AB17A216A20895FC012A
:1011C0001182108213821282158214821782168273
:1011D000118610861386128615A214A210A611A6D7
:1011E00012A613A614A615A6118E108E138E128E9B
:1011F000158E148E178E168E11A210A213A212A293
:1012000081E085AB17A216A20895CF92DF92EF92EC
:10121000FF921F93CF93DF93EC01162F8CA19DA11A
:1012200001969DA38CA38DA9811124C0603209F47D
:101230004FC081E08DAB0E94651FCEA8DFA8E8AC4F
:10124000F9ACDC01CB018C199D09AE09BF09883EC0
:101250009340A105B10528F48EA19FA101969FA3FB
:101260008EA3183611F10CF0C4C01536A9F016364D
:1012700051F02EC06836C9F00CF0BBC0653661F085
:10128000663609F0ABC0888199810196998388837D
:1012900088A58F5F88A71CC08A819B8101969B834C
:1012A0008A8389A58F5F89A713C088859985019650
:1012B000998788878CA58F5F8CA70AC01F3641F459
:1012C0008C819D8101969D838C838AA58F5F8AA7DF
:1012D0008CA19DA19C012F703327232B09F0A0C066
:1012E00028A53EA53F3084F4321774F42EA79D87BD
:1012F0008C872CA9263641F026E62CAB288D398D1B
:101300002F5F3F4F398F288F29A53FA53F3084F4A9
:10131000321774F42FA79F878E872CA9253641F0AA
:1013200025E62CAB2A8D3B8D2F5F3F4F3B8F2A8FBD
:101330002AA538A93F3084F4321774F428AB998B6E
:10134000888B2CA92F3641F02FE62CAB2C8D3D8DB0
:101350002F5F3F4F3D8F2C8F2BA539A93F3084F451
:10136000321774F429AB9B8B8A8B2CA9233741F05D
:1013700023E72CAB2E8D3F8D2F5F3F4F3F8F2E8F5E
:101380002CA53AA93F3084F4321774F42AAB9D8B14
:101390008C8B2CA9283641F028E62CAB28A139A14A
:1013A0002F5F3F4F39A328A32DA53BA93F307CF4E5
:1013B00032176CF42BAB9F8B8E8B8CA9863739F050
:1013C00086E78CAB8AA19BA101969BA38AA318A652
:1013D00019A61AA61BA61CA61DA622C0603209F0DB
:1013E00077CF1DAA0E94651F6EAB7FAB88AF99AF08
:1013F0006FCF133749F48E819F8101969F838E832F
:101400008BA58F5F8BA764CF163709F057CF8A85DE
:101410009B8501969B878A878DA58F5F8DA758CF67
:10142000DF91CF911F91FF90EF90DF90CF900895C3
:10143000CF93DF93EC0169EC71E088E494E00E94C3
:101440009C1A688179814AE050E088E494E00E9427
:101450004B1A64ED71E088E494E00E949C1A6A8162
:101460007B814AE050E088E494E00E944B1A64EDEE
:1014700071E088E494E00E949C1A6C817D814AE0CE
:1014800050E088E494E00E944B1A64ED71E088E437
:1014900094E00E949C1A6A857B854AE050E088E4CB
:1014A00094E00E944B1A64ED71E088E494E00E949D
:1014B0009C1A688579854AE050E088E494E00E94AF
:1014C0004B1A64ED71E088E494E00E949C1A6E81EE
:1014D0007F814AE050E088E494E00E944B1A67ED77
:1014E00071E088E494E00E949C1A6CED71E088E45D
:1014F00094E00E949C1A688D798D4AE050E088E45F
:1015000094E00E944B1A69EE71E088E494E00E9436
:101510009C1A6A8D7B8D4AE050E088E494E00E943A
:101520004B1A69EE71E088E494E00E949C1A6C8D7D
:101530007D8D4AE050E088E494E00E944B1A69EE09
:1015400071E088E494E00E949C1A6AA17BA14AE0C1
:1015500050E088E494E00E944B1A69EE71E088E460
:1015600094E00E949C1A6E8D7F8D4AE050E088E4E2
:1015700094E00E944B1A69EE71E088E494E00E94C6
:101580009C1A68A179A14AE050E088E494E00E94A6
:101590004B1A68EE71E088E494E00E949C1A6BEEAE
:1015A00071E088E494E00E949C1A6C857D854AE095
:1015B00050E088E494E00E944B1A63EF71E088E405
:1015C00094E00E949C1A6E857F854AE050E088E492
:1015D00094E00E944B1A69EE71E088E494E00E9466
:1015E0009C1A688979894AE050E088E494E00E9476
:1015F0004B1A69EE71E088E494E00E949C1A6E89AF
:101600007F894AE050E088E494E00E944B1A69EE3A
:1016100071E088E494E00E949C1A6A897B894AE020
:1016200050E088E494E00E944B1A69EE71E088E48F
:1016300094E00E949C1A6C897D894AE050E088E41D
:1016400094E00E944B1A62EF71E088E494E00E94FB
:101650009C1A66EF71E088E494E00E949C1A6CA1E9
:101660007DA14AE050E088E494E00E944B1A6EEFBE
:1016700071E088E494E00E949C1A6EA17FA14AE088
:1016800050E088E494E00E944B1A6AE072E088E43B
:1016900094E0DF91CF910C949C1ADC01E8E3F2E036
:1016A0008D919C9111979183808312968D919C913D
:1016B00013979383828314968D919C9115979583AC
:1016C00084831A968D919C911B9797838683169697
:1016D0008D919C9117979187808718968D919C91F9
:1016E00019979387828758968D919C9159979587E2
:1016F00084875A968D919C915B97978786875C9695
:101700008D919C915D97918B808B92968D919C9100
:101710009397938B828B5E968D919C915F97958B1F
:10172000848B90968D919C919197978B868B1C962C
:101730008D919C911D97918F808F1E968D919C917C
:101740001F97938F828F50968D919C915197958F73
:10175000848F56968D919C915797978F868F52962E
:101760008D919C91539791A380A354968D919C91B8
:10177000559793A382A394968D919C91959795A349
:1017800084A396968D919C91979797A386A3CF015A
:101790000895CF93DF93CDB7DEB7DF91CF91089552
:1017A0000F931F93CF938FE00E94F61A21E0892BAD
:1017B00009F420E020936002222309F458C00E941B
:1017C000651F0091650210916602209167023091B9
:1017D0006802DC01CB01801B910BA20BB30B843F91
:1017E0009140A105B10508F487C00E946F10809157
:1017F0006402811110C00E94651F60937102709392
:10180000720280937302909374020E946F1081E0C1
:101810008093640271C0C0916202C1116DC01092C8
:101820000701109206010E94651F0091710210913C
:1018300072022091730230917402DC01CB01801B93
:10184000910BA20BB30B883E9340A105B10508F4A0
:1018500053C083E090E0909307018093060181E0FC
:1018600080936202809363021092640247C0809169
:1018700064028823E9F10E94651F609365027093FA
:1018800066028093670290936802809162028111E0
:101890002FC00E94651F0091710210917202209169
:1018A000730230917402DC01CB01801B910BA20BFF
:1018B000B30B8093690290936A02A0936B02B0937A
:1018C0006C02853F21E09207A105B10518F481E083
:1018D00090E007C0883E9340A105B10530F482E056
:1018E00090E0909307018093060181E0809363026A
:1018F0001092640210926202C09160028C2FCF910C
:101900001F910F91089580ED97E00E94E00E6FEF18
:1019100070E085E00E947A1E6FEF70E089E00E941F
:101920007A1E6FEF70E08AE00E947A1E61E080E12B
:101930000E94D61B64E670E080E090E00E942B1FBE
:1019400060E080E10E941F1B64E670E080E090E0B0
:101950000E942B1F60E080E10C94D61BCF93DF9395
:1019600080912E0490912F0420916302009709F03A
:10197000A7C08091040190910501222309F46BC056
:101980008230910599F083309105C9F1019709F0F2
:1019900070C080910601909107010197039708F0AC
:1019A00068C00E94830C82E090E037C080910601FD
:1019B000909107010197039708F05BC08091610245
:1019C000811103C00E94830C02C01092610281E069
:1019D00090E090933B0180933A0183E090E09093F4
:1019E00005018093040110922F0410922E0410928E
:1019F000630240E06FEF8FEF0E94540F3AC0809176
:101A00000601909107019C012150310922303105D6
:101A100078F40E94830C81E090E09093050180931C
:101A2000040110922F0410922E041092630221C020
:101A30000397F9F481E090E0909303018093020111
:101A400090932F0480932E0410922D0410922C0456
:101A5000809363020EC0039761F481E090E090935D
:101A60003B0180933A0110922D0410922C040E94A5
:101A70007C1120913801309139012230310509F073
:101A80005AC180912404909125048230910539F047
:101A90008330910581F0019709F04DC10CC09093FE
:101AA000050180930401109225041092240481E022
:101AB0008093630240C13093050120930401F3CF6A
:101AC000222309F438C18230910509F455C08330CE
:101AD000910509F4D7C08130910509F02CC14091DE
:101AE000020150910301209106013091070141301C
:101AF000510589F42330310509F01DC164E670E019
:101B000088E490E00E940C0F82E090E09093030143
:101B100080930201D6C022303105B1F12330310566
:101B200009F467C02130310509F005C180912C040A
:101B300090912D04009779F464E670E088E490E0D9
:101B40000E940C0F82E090E090932F0480932E046B
:101B500040E06FEF79C00197B9F464E670E08CE380
:101B600090E00E940C0F4FEF6FEF8FEF0E94540F29
:101B700040E060E08FEFC2C0209106013091070184
:101B80002230310509F045C080912C0490912D043C
:101B9000009741F54FEF6FEF8FEF0E94540F6AEF00
:101BA00070E080E090E00E942B1F81E090E0909335
:101BB0002D0480932C0490933901809338016AEFAF
:101BC00070E080E090E00E942B1F64E670E084E506
:101BD00090E00E940C0F40E060E080E0DF91CF9148
:101BE0000C94540F019709F0A6C0DF91CF910C948B
:101BF0007C1110922F0410922E0422E030E03093DA
:101C0000050120930401909307018093060181E070
:101C10008EC02330310589F12130310509F08BC0A8
:101C200080912C0490912D04009781F464E670E07B
:101C300088E490E00E940C0F83E090E090932F04E2
:101C400080932E044FEF60E080E03EC0019709F0E2
:101C50009BCF64E670E08CE390E00E940C0F4FEFA6
:101C60006FEF8FEF0E94540F64E670E080E090E029
:101C70000E942B1F40E06FEF40C010922F04109283
:101C80002E044BC0C0910601D0910701C230D1058E
:101C900009F47ACFC330D105D1F1C130D10509F0B3
:101CA0004AC080912C0490912D04009781F464E641
:101CB00070E088E490E00E940C0FD0932F04C09352
:101CC0002E0440E060E08FEF0E94540F1DC001978A
:101CD00009F05ACF64E670E08CE390E00E940C0FAC
:101CE0004FEF6FEF8FEF0E94540F64E670E080E0DB
:101CF00090E00E942B1F4FEF60E080E00E94540FA5
:101D000010922D0410922C041092630214C01092B1
:101D10002F0410922E0482E090E0909305018093AE
:101D2000040181E090E09093070180930601809385
:101D3000630280936102DF91CF9108958230B9F000
:101D4000833039F18130D9F58091040190910501FA
:101D50008230910529F40E94830C0E94830C02C0FA
:101D6000039711F40E94830C81E090E024C08091DD
:101D70000401909105018130910531F0039731F410
:101D80000E94830C0E94830C0E94830C82E090E0EE
:101D900012C080910401909105018130910529F4D0
:101DA0000E94830C0E94830C02C0029711F40E94CF
:101DB000830C83E090E090930501809304010895E3
:101DC0008F929F92AF92BF92CF92DF92EF92FF924B
:101DD0006C010E94651F4B015C01E12CF12C0E94FB
:101DE000651FDC01CB0188199909AA09BB098C156B
:101DF0009D05AE05BF0530F40E943E05882379F3AA
:101E000080E001C081E0FF90EF90DF90CF90BF9025
:101E1000AF909F908F9008950F931F93CF93DF9370
:101E2000EC018B0160E082E10E941F1B61E083E115
:101E30000E941F1BCC0FDD1FC352DF4F68817981C9
:101E400020E030E0A90182E10E94121CC8010E943A
:101E5000E00E82E10E944F1B60E083E1DF91CF91B1
:101E60001F910F910C941F1BCF93DF93EC0161E046
:101E700083E10E941F1BCC0FDD1FC352DF4F68811F
:101E8000798120E030E0A90182E1DF91CF910C94CB
:101E9000121C82E10E944F1B60E082E10E941F1B26
:101EA00060E083E10C941F1B1F93CF93DF931F927D
:101EB000CDB7DEB7162F682F70E085E049830E940A
:101EC0007A1E612F70E089E00E947A1E4981642F9A
:101ED00070E08AE00F90DF91CF911F910C947A1EF1
:101EE00081E08093010488EE93E09093F603809361
:101EF000F50381E090E09093FA038093F90386E084
:101F000090E09093FC038093FB0383E090E0909338
:101F1000FE038093FD038EE090E090930004809395
:101F2000FF0388E191E09093F8038093F70380ED3D
:101F300097E00E94E00E81EB93E00E94790684E630
:101F400090E00C94E00EF999FECF60913C04709102
:101F50003D0486E391E00E945C23F999FECF6091F5
:101F600036047091370484E391E00E945C23F99970
:101F7000FECF609130047091310482E391E00E94C1
:101F80005C2384E690E00C94E00EF999FECF60911A
:101F90003E0470913F0480E391E00E945C23F99934
:101FA000FECF60913804709139048EE291E00E9476
:101FB0005C23F999FECF60913204709133048CE276
:101FC00091E00E945C2384E690E00C94E00EF99985
:101FD000FECF60914004709141048AE291E00E943A
:101FE0005C23F999FECF60913A0470913B0488E23A
:101FF00091E00E945C23F999FECF609134047091C6
:10200000350486E291E00E945C2384E690E00C9423
:10201000E00EF999FECF86E391E00E941C23909395
:102020003D0480933C04F999FECF84E391E00E9443
:102030001C239093370480933604F999FECF82E3F2
:1020400091E00E941C23909331048093300484E635
:1020500090E00C94E00EF999FECF80E391E00E94AD
:102060001C2390933F0480933E04F999FECF8EE2A7
:1020700091E00E941C239093390480933804F999CD
:10208000FECF8CE291E00E941C2390933304809356
:10209000320484E690E00C94E00EF999FECF8AE2D7
:1020A00091E00E941C239093410480934004F9998D
:1020B000FECF88E291E00E941C2390933B04809322
:1020C0003A04F999FECF86E291E00E941C23909396
:1020D00035048093340484E690E00C94E00E109272
:1020E0007603109275031092740310927303E7E75E
:1020F000F3E011821082138212821582148215A2DB
:1021000014A20895CF93DF93E0912E04F0912F0451
:10211000EE0FFF1FE759FC4F8081918181309105BF
:1021200009F444C014F5892B09F0B8C04FEF6FEFE4
:102130008FEF0E94540F66E970E080E490E00E9407
:102140000C0F66E970E083E490E00E940C0F66E9F2
:1021500070E088E490E00E940C0F40E060E080E0D6
:102160000E94540F8AE892E080C08230910509F401
:102170004DC0039709F092C04FEF6FEF8FEF0E94B1
:10218000540F66E970E080E490E00E940C0F66E96D
:1021900070E083E490E00E940C0F66E970E088E450
:1021A00090E00E940C0FC4E0D0E063C04FEF6FEFEF
:1021B0008FEF0E94540F66E970E080E490E00E9487
:1021C0000C0F66E970E083E490E00E940C0F66E972
:1021D00070E088E490E00E940C0FC2E0D0E040E0A4
:1021E00060E080E00E94540F8CE291E00E94E00EDB
:1021F0004FEF6FEF8FEF0E94540F8CE291E00E943F
:10220000E00E219781F1C1E0D0E0E9CF4FEF6FEF11
:102210008FEF0E94540F66E970E080E490E00E9426
:102220000C0F66E970E083E490E00E940C0F66E911
:1022300070E088E490E00E940C0FC3E0D0E040E042
:1022400060E080E00E94540F8CE291E00E94E00E7A
:102250004FEF6FEF8FEF0E94540F8CE291E00E94DE
:10226000E00E219761F78CE291E0DF91CF910C9421
:10227000E00E40E060E080E00E94540F8CE291E0CC
:102280000E94E00E4FEF6FEF8FEF0E94540F8CE231
:1022900091E00E94E00E219761F7E5CF4FEF6FEFDD
:1022A0008FEF0E94540F66E970E08CE490E00E948A
:1022B0000C0F66E970E08FE490E00E940C0F66E975
:1022C00070E084E590E00E940C0FC4E0D0E040E0B4
:1022D00060E080E00E94540F8CE291E00E94E00EEA
:1022E0004FEF6FEF8FEF0E94540F8CE291E00E944E
:1022F000E00E219761F7B7CF2F923F924F925F92F6
:102300006F927F928F929F92AF92BF92CF92DF9205
:10231000EF92FF920F931F93CF93DF93CDB7DEB76A
:1023200063970FB6F894DEBF0FBECDBF0E94D00BEF
:102330008111F6C681EB93E00E947005682F81EB56
:1023400093E06D870E94090720913801309139018F
:102350006D852230310509F0BFC6603209F069C6CB
:102360002091730330917403233331050CF44DC66F
:102370002091750330917603233331050CF443C665
:10238000843C994008F03FC66091770370917803D0
:1023900070934704609346044091790350917A0307
:1023A000509345044093440420917B0330917C0377
:1023B000309343042093420480912C0490912D0487
:1023C000019709F039C2E0902E04F0902F0411E03B
:1023D000E11AF108C701880F991FFC01E559FC4F6C
:1023E0000190F081E02DE330F10564F5ABE0AE9DA6
:1023F000C001AF9D900D1124E80FF91FEE0FFF1FD4
:10240000DF01A75DBC4F6D937C93DF01A951BD4FE8
:102410004D935C93EB55FD4F318320830E948210D6
:1024200084EF91E00E94E00EE0912E04F0912F04E1
:10243000EE0FFF1FE759FC4F808191810196918338
:102440008083F4C1339709F0D8C0E6E1EE9DD00156
:10245000EF9DB00D1124FD01E75DFC4F778366838E
:10246000FD01E951FD4F57834683FD01EB55FD4FBB
:10247000378326831AE01E9DF0011F9DF00D112465
:102480008F01085F1E4F4801198A188A1A82198223
:10249000FC01E45CFB4FFE83ED838C010A5C1B4F67
:1024A00018870F83FC01E05DFB4FFA87E9878C01F9
:1024B0000B581D4F1C870B87E888F988EA0EFB1E16
:1024C0008701075D1C4FF801408051806415750538
:1024D00021F03B016418750802C0612C712C870142
:1024E00009511D4FF801208031804215530521F01C
:1024F0005A01A218B30802C0A12CB12CF701EB5568
:10250000FD4FE080F1802E153F0521F089010E1965
:102510001F0902C000E010E0E981FA813196FC83D6
:10252000EB83F501E60DF71D6F01C00ED11EDF86AE
:10253000CE869B8A8A8AF401D382C282C080D180EF
:10254000F2E08F0E911CEE85FF85EC15FD0590F4F1
:10255000ED81FE8151824082EF81F88531822082B7
:10256000E985FA85F182E082C980DA80EB85FC8515
:10257000D182C082E889F9893296F98BE88B369747
:1025800029F0EB81FC81FA83E98396CFFC01E156C7
:10259000FD4F71826082FC01E756FD4FB182A0823F
:1025A000FC01ED56FD4F118300830E948210809143
:1025B0002E0490912F048230910541F083309105D3
:1025C00041F0019741F40E94A30F05C00E94C50F7E
:1025D00002C00E94E70F84EF91E00E94E00EE091BC
:1025E0002E04F0912F04EE0FFF1FE759FC4F80815E
:1025F000918101969183808313C1FC01E45CFB4FC0
:102600000190F081E02DE617F70719F0E61BF70BB4
:1026100002C0E0E0F0E0DC01A357BD4FED93FC9376
:10262000DC01AA5CBB4F6D917C916417750719F0B2
:10263000641B750B02C060E070E0DC01A957BD4F60
:102640006D937C93DC01A05DBB4F4D915C91421773
:10265000530729F06A01C21AD30A960102C020E08A
:1026600030E0DC01AF57BD4F2D933C93F39708F05A
:10267000D7C06333710508F0D3C02333310508F0A8
:10268000CFC04FEF6FEF8FEF0E94540F84EF91E0B8
:102690000E94E00E40E060E080E00E94540F84EF72
:1026A00091E00E94E00E40912E0450912F04415081
:1026B00051099A01220F331FF901E559FC4F60813E
:1026C0007181EBE0E49FC001E59F900D1124860F1E
:1026D000971F880F991FFC01E75DFC4FA0917703BE
:1026E000B0917803B183A083FC01E951FD4FA09123
:1026F0007903B0917A03B183A083DC01AB55BD4F60
:10270000E0917B03F0917C03ED93FC9386E1849F41
:102710005001859FB00C112444E050E08901045C15
:102720001B4F4801D901AA5CBB4FC901805D9B4F7B
:102730003C014617570774F5CA01880F991F8A0D87
:102740009B1DFC01E75DFC4FC080D180F401E0805F
:10275000F180EC0CFD1CF182E0828C0109511D4FCF
:10276000F801C080D180ED90FC901197EC0CFD1C1D
:102770001196FC92EE928B559D4FFC01E080F1800A
:10278000F301808191818E0D9F1D918380834F5F26
:102790005F4FCFCF8B0103501109F901E45CFB4F70
:1027A00080819181B8010E94182071836083F901B2
:1027B000EA5CFB4F80819181B8010E9418207183EF
:1027C0006083F901E05DFB4F80819181B8010E9437
:1027D0001820718360830E94821084EF91E00E9430
:1027E000E00E80912E0490912F04FC01EE0FFF1F4C
:1027F000E759FC4F208131812F5F3F4F3183208388
:102800008230910541F08330910541F0019741F408
:102810000E94A30F05C00E94C50F02C00E94E70FCF
:1028200010922304109222040E946F100E946F10D5
:1028300010922D0410922C0480912E0490912F045C
:10284000892B09F0E2C380913A0190913B010197F5
:1028500061F482E090E090933B0180933A010E9402
:1028600009100E942B100E944D104FEF6FEF8FEF59
:102870000E94540F109272031092710320917703FB
:10288000309178032B30310534F481E090E090935F
:102890007203809371034091790350917A034B3016
:1028A00051054CF4809171039091720301969093BD
:1028B00072038093710360917B0370917C036B3092
:1028C00071054CF48091710390917203019690937D
:1028D000720380937103ECE3F4E081E8882E82E0D8
:1028E000982E97E8A92E92E0B92EA0E3CA2EA4E074
:1028F000DA2EBDE8EB2EB2E0FB2E06E314E0819168
:1029000091918217930719F0821B930B02C080E00C
:1029100090E0D7018D939D937D01D8018D919D917C
:102920008D018417950719F0841B950B02C080E078
:1029300090E0D5018D939D935D01D6018D919D9180
:102940006D018617970719F0861B970B02C080E070
:1029500090E0D4018D939D934D01B4E0E234FB07E8
:1029600071F6E0903C04F0903D0400913E0410911B
:102970003F04C0904004D090410440918D0250919A
:102980008E0220918F02309190028091910290915D
:102990009202A0912604B0912704E0912804F091BE
:1029A000290460912A0470912B04EF2809F058C083
:1029B000012B91F5CD28B9F44531510508F0A7C098
:1029C0002531310508F0A3C08531910508F09FC07D
:1029D0001196B0932704A09326043196F09329040E
:1029E000E093280404C0FC013197749718F46F5FDA
:1029F0007F4F06C0FC017597399738F46150710913
:102A000070932B0460932A0482C08E31910508F4E0
:102A10007EC065507109F4CFCD28D1F4B901615061
:102A200071096431710510F4319607C0B90165511F
:102A300071096930710530F43197F0932904E093FE
:102A4000280465C02E31310508F461C03597F5CFF3
:102A50002817390708F054C02531310528F350C034
:102A60000115110581F4C114D10469F04817590703
:102A700028F44531510510F4119627C084179507A5
:102A800008F045C040C0CD2829F5012B69F0421758
:102A9000530718F44531510578F324173507B8F575
:102AA0002531310508F233C0BA0161507109643132
:102AB000710510F3645171096930710510F41197B3
:102AC00004C04E31510518F11597B0932704A09317
:102AD00026041DC04217530730F44817590718F44D
:102AE0004531510548F22417350738F428173907BE
:102AF00020F42531310508F497CF8417950738F471
:102B00008217930720F48531910508F470CF4E3178
:102B1000510550F040912604509127044550510929
:102B200050932704409326042E31310550F0209114
:102B30002804309129042550310930932904209329
:102B400028044E9748F080912A0490912B04059711
:102B500090932B0480932A04E0903604F09037047D
:102B6000A0912604B0912704E0912804F091290453
:102B700060912A0470912B0400913804109139045B
:102B8000C0903A04D0903B04409187025091880253
:102B90002091890230918A0280918B0290918C025F
:102BA000EF2809F058C0012B91F5CD28B9F4453133
:102BB000510508F0A7C02531310508F0A3C08531C3
:102BC000910508F09FC01196B0932704A0932604A6
:102BD0003196F0932904E093280404C0FC01319756
:102BE000749718F46F5F7F4F06C0FC017597399793
:102BF00038F46150710970932B0460932A0482C0E9
:102C00008E31910508F47EC065507109F4CFCD284E
:102C1000D1F4B901615071096431710510F4319634
:102C200007C0B901655171096930710530F43197F8
:102C3000F0932904E093280465C02E31310508F48F
:102C400061C03597F5CF2817390708F054C02531F2
:102C5000310528F350C00115110581F4C114D104C8
:102C600069F04817590728F44531510510F41196B9
:102C700027C08417950708F045C040C0CD2829F526
:102C8000012B69F04217530718F44531510578F3C9
:102C900024173507B8F52531310508F233C0BA01DC
:102CA000615071096431710510F364517109693023
:102CB000710510F4119704C04E31510518F11597A4
:102CC000B0932704A09326041DC04217530730F485
:102CD0004817590718F44531510548F224173507AC
:102CE00038F42817390720F42531310508F497CF37
:102CF0008417950738F48217930720F485319105DE
:102D000008F470CF4E31510550F040912604509197
:102D100027044550510950932704409326042E312F
:102D2000310550F0209128043091290425503109B3
:102D300030932904209328044E9748F080912A0468
:102D400090912B04059790932B0480932A04E09094
:102D50003004F0903104A0912604B0912704E09152
:102D60002804F091290460912A0470912B040091A9
:102D7000320410913304C0903404D0903504409153
:102D800081025091820220918302309184028091CD
:102D9000850290918602EF2809F058C0012B91F529
:102DA000CD28B9F44531510508F0A7C025313105CA
:102DB00008F0A3C08531910508F09FC01196B0932B
:102DC0002704A09326043196F0932904E093280465
:102DD00004C0FC013197749718F46F5F7F4F06C0F1
:102DE000FC017597399738F46150710970932B0481
:102DF00060932A0482C08E31910508F47EC065502C
:102E00007109F4CFCD28D1F4B90161507109643151
:102E1000710510F4319607C0B90165517109693027
:102E2000710530F43197F0932904E093280465C0CC
:102E30002E31310508F461C03597F5CF28173907D1
:102E400008F054C02531310528F350C00115110593
:102E500081F4C114D10469F04817590728F44531A9
:102E6000510510F4119627C08417950708F045C046
:102E700040C0CD2829F5012B69F04217530718F4FB
:102E80004531510578F324173507B8F5253131055B
:102E900008F233C0BA01615071096431710510F351
:102EA000645171096930710510F4119704C04E31F5
:102EB000510518F11597B0932704A09326041DC05F
:102EC0004217530730F44817590718F44531510594
:102ED00048F22417350738F42817390720F425312C
:102EE000310508F497CF8417950738F482179307B4
:102EF00020F48531910508F470CF4E31510550F022
:102F000040912604509127044550510950932704BD
:102F1000409326042E31310550F020912804309141
:102F200029042550310930932904209328044E9711
:102F300048F080912A0490912B04059790932B04DC
:102F400080932A04409126045091270480912804FC
:102F50009091290420912A0430912B04443051058A
:102F60004CF08417950734F4241735071CF481E0DE
:102F700090E00BC0843091056CF04817590754F469
:102F8000281739073CF482E090E090932504809361
:102F9000240410C0243031054CF04217530734F498
:102FA000821793071CF483E090E0EFCF1092250482
:102FB0001092240410922304109222040E946F1095
:102FC00010922704109226046AE070E080E090E0FE
:102FD0000E942B1F10922904109228046AE070E0CE
:102FE00080E090E00E942B1F10922B0410922A0484
:102FF0006AE070E080E090E00E942B1F88EE93E092
:103000000E94E00E02C00E946F10809173039091A5
:1030100074030196909374038093730380912E043C
:1030200090912F04019740E0039720F560E080E045
:1030300023C08BE9860F8230C8F58091750390918B
:103040007603019690937603809375031092740330
:103050001092730387E793E00E94050980912E0484
:1030600090912F048130910581F13CF5892B09F075
:1030700057C046E96FEF8FEF63960FB6F894DEBF47
:103080000FBECDBFDF91CF911F910F91FF90EF90B9
:10309000DF90CF90BF90AF909F908F907F906F9078
:1030A0005F904F903F902F900C94540F6F3629F201
:1030B000663719F26836A1F5C0CF8230910541F02C
:1030C000039771F54FEF66E905C046E966E9D3CF8E
:1030D00046E96FEF86E9D0CF82E090E09093390126
:1030E000809338010E946F1084EF91E063960FB6D1
:1030F000F894DEBF0FBECDBFDF91CF911F910F912E
:10310000FF90EF90DF90CF90BF90AF909F908F9007
:103110007F906F905F904F903F902F900C94E00EB7
:1031200063960FB6F894DEBF0FBECDBFDF91CF918F
:103130001F910F91FF90EF90DF90CF90BF90AF90D5
:103140009F908F907F906F905F904F903F902F90C7
:103150000895FC01538D448D252F30E0842F90E09D
:10316000821B930B541710F0CF9608950197089582
:10317000FC01918D828D981761F0828DDF01A80F7F
:10318000B11D5D968C91928D9F5F9F73928F90E0A1
:1031900008958FEF9FEF0895FC01918D828D981710
:1031A00031F0828DE80FF11D858D90E008958FEF4D
:1031B0009FEF0895FC01918D228D892F90E0805C16
:1031C0009F4F821B91098F7399270895FC01848D6D
:1031D000DF01A80FB11DA35ABF4F2C91848D90E041
:1031E00001968F739927848FA689B7892C93A0891C
:1031F000B1898C9180648C93938D848D981306C0D3
:103200000288F389E02D80818F7D80830895EF927D
:10321000FF920F931F93CF93DF93EC0181E0888F90
:103220009B8D8C8D981305C0E889F989808185FD77
:1032300024C0F62E0B8D10E00F5F1F4F0F73112768
:10324000E02E8C8DE8120CC00FB607FCFACFE8898F
:10325000F989808185FFF5CFCE010E94E618F1CF74
:103260008B8DFE01E80FF11DE35AFF4FF0820B8FAB
:10327000EA89FB898081806207C0EE89FF896083CB
:10328000E889F98980818064808381E090E0DF9122
:10329000CF911F910F91FF90EF900895CF93DF93FF
:1032A000EC01888D8823C9F0EA89FB89808185FD3E
:1032B00005C0A889B9898C9186FD0FC00FB607FC9F
:1032C000F5CF808185FFF2CFA889B9898C9185FFE0
:1032D000EDCFCE010E94E618E7CFDF91CF910895A0
:1032E000CF92DF92EF92FF920F931F93CF93DF93D2
:1032F0006C017A018B01C0E0D0E0CE15DF0589F0CA
:10330000D8016D918D01D601ED91FC910190F08174
:10331000E02DC6010995892B11F47E0102C021968A
:10332000ECCFC701DF91CF911F910F91FF90EF90EC
:10333000DF90CF900895089580E090E00895833065
:1033400081F028F4813099F08230A1F0089587301F
:10335000A9F08830B9F08430D1F4809180008F7D5D
:1033600003C0809180008F7780938000089584B59A
:103370008F7702C084B58F7D84BD08958091B000A1
:103380008F7703C08091B0008F7D8093B000089547
:103390009FB7F8944091EA045091EB046091EC04DB
:1033A0007091ED0486B5A89B06C08F3F21F04F5F5A
:1033B0005F4F6F4F7F4F9FBF762F652F542F44274E
:1033C0009A01AB01280F311D411D511DA5E0B0E050
:1033D0000E94812008950E9461236115710579F092
:1033E000FB0101900020E9F73197AF01461B570B15
:1033F000DC01ED91FC910280F381E02D099480E0E5
:1034000090E008954F925F926F927F92EF92FF92B9
:103410000F931F93CF93DF93CDB7DEB7A1970FB66E
:10342000F894DEBF0FBECDBF7C01FA01CB0119A21B
:10343000223008F42AE08E010F5D1F4F422E512CDE
:10344000612C712CBF01A30192010E944020F9015F
:10345000CA01015011096A3014F4605D01C0695C51
:10346000D8016C93232B242B252B61F7B801C701BE
:103470000E94ED19A1960FB6F894DEBF0FBECDBF26
:10348000DF91CF911F910F91FF90EF907F906F9000
:103490005F904F900895CF92DF92EF92FF920F933B
:1034A0001F93CF93DF93EC014115510571F4E8812F
:1034B000F9810190F081E02DDF91CF911F910F9163
:1034C000FF90EF90DF90CF9009946B01770FEE089B
:1034D000FF084A30510511F5F7FE1EC0E881F98159
:1034E0000190F081E02D6DE209958C01442755276C
:1034F000BA014C195D096E097F092AE0CE010E94CC
:10350000021A800F911FDF91CF911F910F91FF90B1
:10351000EF90DF90CF9008952AE001C0242FB701EB
:10352000A601CE01DF91CF911F910F91FF90EF90F7
:10353000DF90CF900C94021A0C94ED191F920F9209
:103540000FB60F9211242F933F934F935F936F9376
:103550007F938F939F93AF93BF93EF93FF9388E4F1
:1035600094E00E94E618FF91EF91BF91AF919F9177
:103570008F917F916F915F914F913F912F910F901C
:103580000FBE0F901F9018951F920F920FB60F92BB
:1035900011242F938F939F93EF93FF93E0915804FF
:1035A000F09159048081E0915E04F0915F0482FD06
:1035B00012C09081809161048F5F8F7320916204AB
:1035C000821751F0E0916104F0E0E85BFB4F958FCA
:1035D0008093610401C08081FF91EF919F918F9151
:1035E0002F910F900FBE0F901F901895CF93DF93E0
:1035F000282F30E0F901E651FF4F8491F901E250A4
:10360000FF4FD491F901E45EFE4FC491CC2391F0B9
:1036100081110E949F19EC2FF0E0EE0FFF1FE05286
:10362000FF4FA591B491EC91ED2381E090E021F45E
:1036300080E002C080E090E0DF91CF9108951F9379
:10364000CF93DF93282F30E0F901E651FF4F8491AB
:10365000F901E250FF4FD491F901E45EFE4FC491AD
:10366000CC23C9F0162F81110E949F19EC2FF0E096
:10367000EE0FFF1FEE5EFE4FA591B4918FB7F89449
:10368000111105C09C91ED2FE095E92302C0EC914A
:10369000ED2BEC938FBFDF91CF911F910895909107
:1036A0003C01981324C0E0E3F1E0E4919FEF909394
:1036B0003C01E130B9F098F0E230C9F4909170002B
:1036C0009D7F9093700091E09093B0009091B10035
:1036D000987F94609093B1001092B30008C010924C
:1036E0006E0005C090916F009D7F90936F0060E029
:1036F0000C941F1B1F920F920FB60F9211242F9341
:103700003F934F935F936F937F938F939F93AF9369
:10371000BF93EF93FF938091FF0490910005A091D8
:103720000105B0910205892B8A2B8B2B51F18091D9
:10373000FE04E091FC04F091FD04908189278083D0
:103740008091FF0490910005A0910105B0910205C0
:10375000181619061A061B06C4F48091FF049091EE
:103760000005A0910105B09102050197A109B109D9
:103770008093FF0490930005A0930105B093020588
:1037800004C080913C010E944F1BFF91EF91BF91BB
:10379000AF919F918F917F916F915F914F913F91E9
:1037A0002F910F900FBE0F901F901895CF93DF931E
:1037B00090E0FC01E250FF4F2491FC01E45EFE4FDB
:1037C0008491882361F190E0880F991FFC01EA52EF
:1037D000FF4FC591D491FC01EE5EFE4FA591B491CF
:1037E000611109C09FB7F89488812095822388834E
:1037F000EC912E230BC0623061F49FB7F8943881AE
:10380000822F809583238883EC912E2B2C939FBF4E
:1038100006C08FB7F894E8812E2B28838FBFDF91E5
:10382000CF9108953F924F925F926F927F928F92C5
:103830009F92AF92BF92CF92DF92EF92FF920F933F
:103840001F93CF93DF9300D000D0CDB7DEB7909118
:103850003C01981721F09F3F09F036C204C0E0E315
:10386000F1E0349081C080933C01E0E3F1E0E49129
:10387000EF3F09F429C2E13031F1E23009F44BC0E5
:10388000E11171C014BC15BC94B5926094BD95B59E
:10389000916095BDA82FB0E0FD01E45EFE4FE4917C
:1038A000F0E0EE0FFF1FEE5EFE4F059114911093B6
:1038B000F3040093F204FD01E250FF4FE491E09322
:1038C000F104312C53C0109280001092810090912D
:1038D0008100986090938100909181009160909315
:1038E0008100A82FB0E0FD01E45EFE4FE491F0E01E
:1038F000EE0FFF1FEE5EFE4F059114911093F00442
:103900000093EF04FD01E250FF4FE491E093EE04D9
:10391000332433942BC01092B0001092B1009091D8
:10392000B00092609093B0009091B100916090933C
:10393000B100A82FB0E0FD01E45EFE4FE491F0E09D
:10394000EE0FFF1FEE5EFE4F059114911093FD04E4
:103950000093FC04FD01E250FF4FE491E093FE046C
:1039600002E0302E03C03E2E37FCAEC129833A83DD
:103970004B835C838B0161E00E94D61B4801A12C24
:10398000B12C832D8D7F09F0B7C060E87DE88BE511
:1039900090E0A50194010E94622029013A01690189
:1039A0007A0121E0C21AD108E108F1088FEFC816A8
:1039B000D104E104F10409F008F44CC060EB71E7B4
:1039C0008BE090E0A50194010E94622069017A01D8
:1039D00091E0C91AD108E108F108A2E03A1220C02A
:1039E000BFEFCB16D104E104F10409F008F46AC179
:1039F0006CE67CED82E090E0A50194010E946220DB
:103A000069017A01E1E0CE1AD108E108F108FFEF7F
:103A1000CF16D104E104F10409F0C0F583E065C0DC
:103A20002FEFC216D104E104F104B1F0A8F066E36F
:103A30007EE681E090E0A50194010E946220690188
:103A40007A0181E0C81AD108E108F108332009F4AD
:103A5000E5C02FC181E001C082E0332091F045C074
:103A6000D301C2012AE0B595A795979587952A9528
:103A7000D1F76C017D01E1E0CE1AD108E108F1082F
:103A800085E095B5987F892B85BD72C066E37EE69B
:103A900081E090E0A50194010E94622069017A0111
:103AA000B1E0CB1AD108E108F108EFEFCE16D1044E
:103AB000E104F10409F008F4AFC06BE177EB80E0BA
:103AC00090E0A50194010E94622069017A0191E0D1
:103AD000C91AD108E108F108AFEFCA16D104E10410
:103AE000F10411F008F0BAC085E09091B100987F20
:103AF000892B8093B1003CC060E87DE88BE590E0C5
:103B0000A50194010E94622069017A01F1E0CF1AB7
:103B1000D108E108F108C114D10421E0E206F10462
:103B200088F066E37EE681E090E0A50194010E94C2
:103B3000622069017A0181E0C81AD108E108F10820
:103B400093E001C091E0A1E03A1212C0809181009F
:103B5000887F892B8093810089819A81AB81BC8188
:103B6000892B8A2B8B2B61F42FEF3FEFA90132C0F9
:103B700089819A81AB81BC81892B8A2B8B2B81F027
:103B8000D801AA0FBB1F29813A814B815C810E9419
:103B9000812028EE33E040E050E00E94402003C046
:103BA0002FEF3FEFA90191E03916A1F0A2E03A16FC
:103BB00019F1311089C0C7BC2093F8043093F9047F
:103BC0004093FA045093FB0480916E0082608093CE
:103BD0006E007AC0D0928900C09288002093F404CD
:103BE0003093F5044093F6045093F70480916F00EE
:103BF000826080936F0068C0C092B3002093FF047E
:103C000030930005409301055093020580917000A8
:103C100082608093700058C084E067CF8FEFC81631
:103C2000D104E104F104C1F0B8F0BB2777FCBA95E8
:103C3000A72D962D852D6C017D01F1E0CF1AD108BD
:103C4000E108F1082FEFC216D104E104F10411F0EC
:103C500008F006CF84E015CF83E013CFBB2777FCB5
:103C6000BA95A72D962D852D6C017D01E1E0CE1A28
:103C7000D108E108F108FFEFCF16D104E104F10407
:103C8000B1F0A8F0D301C2016AE0B595A795979568
:103C900087956A95D1F76C017D01E1E0CE1AD108D4
:103CA000E108F108332009F4EBCE87E01ECF86E06F
:103CB000D4CE2FEFC216D104E104F10409F070F65E
:103CC00084E0CBCE82E011CF0F900F900F900F9039
:103CD000DF91CF911F910F91FF90EF90DF90CF90E8
:103CE000BF90AF909F908F907F906F905F904F901C
:103CF0003F9008951F93CF93DF93182FEB0161E05E
:103D00000E94D61B209711F460E004C0CF3FD1057C
:103D100039F461E0812FDF91CF911F910C941F1B2B
:103D2000E12FF0E0E651FF4FE491E330F9F048F481
:103D3000E130B9F0E230A1F584B5806284BDC8BD40
:103D400034C0E730E9F0E83019F1E43049F580910A
:103D50008000806280938000D0938B00C0938A00A3
:103D600024C084B5806884BDC7BD1FC08091800019
:103D7000806880938000D0938900C093880015C02C
:103D80008091B00080688093B000C093B3000DC0F4
:103D90008091B00080628093B000C093B40005C0F1
:103DA000C038D1050CF0B5CFAFCFDF91CF911F91C7
:103DB00008958E3008F08E508770806480937C0068
:103DC00080917A00806480937A0080917A0086FDE9
:103DD000FCCF809178002091790090E0922B08959B
:103DE000789484B5826084BD84B5816084BD85B5D6
:103DF000826085BD85B5816085BDEEE6F0E080819D
:103E000081608083E1E8F0E01082808182608083BD
:103E1000808181608083E0E8F0E080818160808340
:103E2000E1EBF0E0808184608083E0EBF0E0808172
:103E300081608083EAE7F0E0808184608083808114
:103E40008260808380818E7F808380818068808390
:103E50001092C10008958F929F92AF92BF92CF921D
:103E6000DF92EF92FF926B017C010E94C8194B0117
:103E70005C01C114D104E104F104F1F00E94C819FD
:103E8000DC01CB0188199909AA09BB09883E934036
:103E9000A105B10570F321E0C21AD108E108F108CB
:103EA00088EE880E83E0981EA11CB11CC114D104B9
:103EB000E104F10419F7DDCFFF90EF90DF90CF9090
:103EC000BF90AF909F908F9008952FB7F894609116
:103ED000E6047091E7048091E8049091E9042FBF13
:103EE00008951F920F920FB60F9211242F933F93B4
:103EF0008F939F93AF93BF938091E6049091E704D3
:103F0000A091E804B091E9043091E5042DE2230F7B
:103F10002D3720F40196A11DB11D05C020EB230F04
:103F20000296A11DB11D2093E5048093E6049093B1
:103F3000E704A093E804B093E9048091EA04909127
:103F4000EB04A091EC04B091ED040196A11DB11D0C
:103F50008093EA049093EB04A093EC04B093ED04F7
:103F6000BF91AF919F918F913F912F910F900FBE75
:103F70000F901F9018950E94F01E9EE088E10FB6EA
:103F8000F894A895809360000FBE909360000E9403
:103F90001902549A80E0815041F0A895EFE9FFE0C2
:103FA0003197F1F700C00000F6CF549878940E9442
:103FB000B103A8950E94EA000E9447050E944F05A0
:103FC000F8CF6EE070E081EB93E00E944D0687E74A
:103FD00093E00C94B908E8E4F4E01382128288EECE
:103FE00093E0A0E0B0E084839583A683B7838BEB56
:103FF00091E09183808385EC90E09587848784ECC1
:1040000090E09787868780EC90E0918B808B81ECA5
:1040100090E0938B828B82EC90E0958B848B86EC86
:1040200090E0978B868B118E128E138E148E0895CE
:10403000AA1BBB1B51E107C0AA1FBB1FA617B707CE
:1040400010F0A61BB70B881F991F5A95A9F78095EA
:104050009095BC01CD01089597FB072E16F40094AE
:1040600007D077FD09D00E94182007FC05D03EF448
:10407000909581959F4F0895709561957F4F089514
:10408000A1E21A2EAA1BBB1BFD010DC0AA1FBB1F5C
:10409000EE1FFF1FA217B307E407F50720F0A21BCE
:1040A000B30BE40BF50B661F771F881F991F1A943B
:1040B00069F760957095809590959B01AC01BD0165
:1040C000CF010895052E97FB1EF400940E947920DD
:1040D00057FD07D00E94402007FC03D04EF40C94FB
:1040E000792050954095309521953F4F4F4F5F4F28
:1040F000089590958095709561957F4F8F4F9F4F54
:1041000008950E949220A59F900DB49F900DA49FAA
:10411000800D911D11240895EE0FFF1F0590F4915D
:10412000E02D0994A29FB001B39FC001A39F700D21
:10413000811D1124911DB29F700D811D1124911DAF
:1041400008955058BB27AA270E94B9200C940A2230
:104150000E94FC2138F00E94032220F039F49F3F96
:1041600019F426F40C94F9210EF4E095E7FB0C9475
:10417000F321E92F0E941B2258F3BA176207730735
:104180008407950720F079F4A6F50C943D220EF4EF
:10419000E0950B2EBA2FA02D0B01B90190010C0157
:1041A000CA01A0011124FF27591B99F0593F50F46F
:1041B000503E68F11A16F040A22F232F342F4427C7
:1041C000585FF3CF469537952795A795F0405395BF
:1041D000C9F77EF41F16BA0B620B730B840BBAF08F
:1041E0009150A1F0FF0FBB1F661F771F881FC2F7FA
:1041F0000EC0BA0F621F731F841F48F4879577950E
:104200006795B795F7959E3F08F0B0CF9395880FC7
:1042100008F09927EE0F9795879508950E9422211F
:104220000C940A220E94032258F00E94FC2140F0C4
:1042300029F45F3F29F00C94F32151110C943E2294
:104240000C94F9210E941B2268F39923B1F35523A2
:1042500091F3951B550BBB27AA2762177307840799
:1042600038F09F5F5F4F220F331F441FAA1FA9F32F
:1042700035D00E2E3AF0E0E832D091505040E6951D
:10428000001CCAF72BD0FE2F29D0660F771F881F7E
:10429000BB1F261737074807AB07B0E809F0BB0B71
:1042A000802DBF01FF2793585F4F3AF09E3F510585
:1042B00078F00C94F3210C943E225F3FE4F3983E97
:1042C000D4F3869577956795B795F7959F5FC9F76E
:1042D000880F911D9695879597F90895E1E0660FEF
:1042E000771F881FBB1F621773078407BA0720F068
:1042F000621B730B840BBA0BEE1F88F7E0950895D1
:104300000E9487216894B1110C943E2208950E9466
:10431000232288F09F5798F0B92F9927B751B0F012
:10432000E1F0660F771F881F991F1AF0BA95C9F739
:1043300014C0B13091F00E943D22B1E008950C9478
:104340003D22672F782F8827B85F39F0B93FCCF32B
:10435000869577956795B395D9F73EF490958095B6
:10436000709561957F4F8F4F9F4F0895E89409C0D6
:1043700097FB3EF490958095709561957F4F8F4F98
:104380009F4F9923A9F0F92F96E9BB279395F695AE
:10439000879577956795B795F111F8CFFAF4BB0F2C
:1043A00011F460FF1BC06F5F7F4F8F4F9F4F16C090
:1043B000882311F096E911C0772321F09EE8872F1A
:1043C000762F05C0662371F096E8862F70E060E0D6
:1043D0002AF09A95660F771F881FDAF7880F96954F
:1043E000879597F9089597F99F6780E870E060E0F6
:1043F00008959FEF80EC089500240A94161617067E
:1044000018060906089500240A94121613061406C5
:1044100005060895092E0394000C11F4882352F028
:10442000BB0F40F4BF2B11F460FF04C06F5F7F4FE0
:104430008F4F9F4F089557FD9058440F551F59F0C7
:104440005F3F71F04795880F97FB991F61F09F3F81
:1044500079F087950895121613061406551FF2CFAA
:104460004695F1DF08C0161617061806991FF1CFFA
:1044700086957105610508940895E894BB27662721
:104480007727CB0197F908950E9457220C940A22AE
:104490000E94FC2138F00E94032220F0952311F0A5
:1044A0000C94F3210C94F92111240C943E220E94C7
:1044B0001B2270F3959FC1F3950F50E0551F629F2B
:1044C000F001729FBB27F00DB11D639FAA27F00D6D
:1044D000B11DAA1F649F6627B00DA11D661F829F94
:1044E0002227B00DA11D621F739FB00DA11D621F79
:1044F000839FA00D611D221F749F3327A00D611D96
:10450000231F849F600D211D822F762F6A2F112477
:104510009F5750409AF0F1F088234AF0EE0FFF1FAA
:10452000BB1F661F771F881F91505040A9F79E3F01
:10453000510580F00C94F3210C943E225F3FE4F38C
:10454000983ED4F3869577956795B795F795E79557
:104550009F5FC1F7FE2B880F911D9695879597F960
:10456000089519F416F40C94F9210C94F7220E9482
:104570002322B8F39923C9F3B6F39F57550B87FF4E
:104580000E9405230024A0E640EA90018058569539
:10459000979528F4805C660F771F881F20F02617F8
:1045A0003707480730F4621B730B840B202931292D
:1045B0004A2BA69517940794202531254A2758F7AA
:1045C000660F771F881F20F026173707480730F43B
:1045D000620B730B840B200D311D411DA09581F7DB
:1045E000B901842F9158880F9695879508959F3F1C
:1045F00031F0915020F4879577956795B795880F9E
:10460000911D9695879597F9089591505040660FA2
:10461000771F881FD2F70895DC01CB01FC01F999BF
:10462000FECF06C0F2BDE1BDF89A319600B40D92FE
:1046300041505040B8F70895A8E1B0E042E050E0A2
:104640000C940E23DC01A40FB51F4150504048F0DC
:10465000CB01840F951F2E910E943323415050406F
:10466000D0F70895262FF999FECF92BD81BDF89A13
:10467000019700B4021639F01FBA20BD0FB6F894A6
:10468000FA9AF99A0FBE0895DC01CB0103C02D916F
:104690000E944F2341505040D0F70895262FF9999A
:1046A000FECF1FBA92BD81BD20BD0FB6F894FA9A15
:1046B000F99A0FBE019608950E944E23272F0C945D
:1046C0004F2381E090E0F8940C946623F894FFCF98
:1046D000FF5A010001000100F40100000000000089
:1046E0000000F4010000000000000000F4010000E0
:1046F0000000000000007400720070006E006C008A
:104700006A0068006600640001000100FF82008BFF
:104710000093009C00A500AF00B900C400D000DCED
:1047200000E900F70006011501260137014A015D85
:1047300001720188019F01B801D201EE010B022A2A
:10474000024B026E029302BA02E40210033F0370AE
:1047500003A403DC03170455049704DD042705753F
:1047600005C80520067D06E0064907B8072D08A9FB
:10477000082D09B9094D0AEA0A900B400CFA0CC041
:104780000D910E6F0F5A100000000007197019A943
:10479000184E19DA18B818CC187B416363756D3A56
:1047A000205B20002C20005D2C200A004D6F6461EE
:1047B0006C6974793A205B005D2C005065616B3A3E
:1047C0005B005D2C0A006C656E6774683A002C0A09
:0E47D000706C6F73697665733A00207D00008F
:040000050080042C47
:00000001FF
