:100000000C9478000C94160F0C943D0F0C94A000E7
:100010000C94A0000C94A0000C94A0000C94A000E0
:100020000C94A0000C94A0000C94A0000C94A000D0
:100030000C94A0000C94BC0E0C94A0000C94A00096
:100040000C94640F0C94A0000C94D4100C94061122
:100050000C94A0000C94A0000C94A0000C94A000A0
:100060000C94A0000C94A000C509D809D809FA097D
:10007000D509D509D509D509D509FC09020A080A07
:10008000D509D509D509C3090000000900030200FC
:10009000000405080000000000000000000000014E
:1000A000020408102040800102040810200102040C
:1000B00008102040804004040404040404040202E4
:1000C000020202020303030303030202030000000F
:1000D0000023002600290000000000250028002B36
:1000E0000000000000240027002A0000D908361173
:1000F00011241FBECFEFD8E0DEBFCDBF11E0A0E0DE
:10010000B1E0ECE7FAE202C005900D92AC38B1071D
:10011000D9F723E0ACE8B1E001C01D92A937B207DE
:10012000E1F710E0C8E7D0E004C02197FE010E948B
:100130008F14C637D107C9F70E94B3110C943C1530
:100140000C9400000F931F93CF938FE00E94AB108D
:10015000892B19F48FE090E007C080E10E94AB107A
:10016000892B39F480E190E090939501809394017C
:1001700004C0109295011092940180919401909185
:100180009501C0919A0118161906CCF59093930128
:1001900080939201C1110DC00E94AE0F60939F0128
:1001A0007093A0018093A1019093A20181E08093BC
:1001B0009A0180919801811162C00E94AE0F009156
:1001C0009F011091A0012091A1013091A201DC01B9
:1001D000CB01801B910BA20BB30B80329340A10586
:1001E000B10508F44CC082E090E0909391018093B7
:1001F000900181E080939801809399013EC0CC23C7
:10020000A9F110929A010E94AE0F60939B01709326
:100210009C0180939D0190939E0100919F011091FC
:10022000A0012091A1013091A201DC01CB01801B32
:10023000910BA20BB30B80329340A105B10548F49A
:1002400081E090E0909391018093900180939901D7
:1002500017C08091980181111092980181E08093DC
:100260009901109291011092900107C08091900124
:1002700090919101019721F4F1CFC1E001C0C0E05C
:100280008C2FCF911F910F9108952091990180910A
:10029000900190919101222391F010929901813067
:1002A000910519F08230910529F49093970180937C
:1002B0009601089510929701109296010895892B46
:1002C000C9F3089586E00E94F50F1816190634F454
:1002D00086E00E94F50F8B3F91051CF081E090E0D5
:1002E00002C082E090E090938F0180938E01809114
:1002F0008E0190918F0120918C0130918D012817F2
:10030000390731F090938D0180938C0181E008953D
:1003100080E0089582E00E94AB1021E0892B09F46F
:1003200020E0822F08950F931F93CF93DF938C01CA
:10033000F999FECFE801CC0FDD1FFE01E45DFE4F11
:10034000808191810E940B15FE01EF56FD4F918334
:100350008083F999FECFFE01E85DFE4F8081918197
:100360000E940B15FE01E357FD4F91838083F9999D
:10037000FECFFE01EC5DFE4F808191810E940B1546
:10038000FE01E757FD4F91838083F999FECFFE016F
:10039000E05EFE4F808191810E940B15FE01EB57BC
:1003A000FD4F91838083F999FECFFE01E45EFE4FFD
:1003B000808191810E940B15FE01EF57FD4F9183C3
:1003C0008083F999FECFFE01E85EFE4F8081918126
:1003D0000E940B15FE01E358FD4F91838083F9992C
:1003E000FECFFE01EC5EFE4F808191810E940B15D5
:1003F0002AE0209FF001219FF00D1124EC5CFE4FBC
:1004000091838083F999FECFFE01E05FFE4F8081EA
:1004100091810E940B152AE0209FF001219FF00D91
:100420001124EC5CFE4F93838283F999FECFFE0189
:10043000E45FFE4F808191810E940B152AE0209F8E
:10044000F001219FF00D1124EC5CFE4F9583848315
:10045000F999FECFFE01E85FFE4F808191810E94F5
:100460000B152AE0209FF001219FF00D1124EC5C78
:10047000FE4F97838683F999FECFCC5FDE4F88814C
:1004800099810E940B152AE0209FF001219FF00D19
:100490001124EC5CFE4F91878087F999FECF84E6AA
:1004A00090E0DF91CF911F910F910C94E308CF93CF
:1004B000DF93F999FECFEC01CC0FDD1FFE01EF5663
:1004C000FD4F60817181FE01E45DFE4F808191816D
:1004D0000E941115F999FECFFE01E357FD4F60818F
:1004E0007181FE01E85DFE4F808191810E941115AE
:1004F000F999FECFFE01E757FD4F60817181FE0142
:10050000EC5DFE4F808191810E941115F999FECF1B
:10051000FE01EB57FD4F60817181FE01E05EFE4FF1
:10052000808191810E941115F999FECFFE01EF574C
:10053000FD4F60817181FE01E45EFE4F80819181FB
:100540000E941115F999FECFFE01E358FD4F60811D
:100550007181FE01E85EFE4F808191810E9411153C
:10056000F999FECF6091660170916701FE01EC5E22
:10057000FE4F808191810E941115F999FECF609103
:10058000680170916901FE01E05FFE4F80819181F9
:100590000E941115F999FECF60916A0170916B016B
:1005A000FE01E45FFE4F808191810E941115F9994F
:1005B000FECF60916C0170916D01FE01E85FFE4F0E
:1005C000808191810E941115F999FECF60916E0191
:1005D00070916F01CC5FDE4F888199810E94111567
:1005E000F999FECF84E690E0DF91CF910C94E30877
:1005F00080ED97E00E94E30885EE91E00E94920D65
:1006000084E690E00E94E30880E090E00E9493017D
:1006100081E090E00C9493011092A2021092A1024A
:100620001092A4021092A3021092A6021092A502A8
:100630001092A8021092A7021092AA021092A90288
:100640001092AC021092AB021092A6011092A5017A
:1006500084E190E090933101809330012091320148
:1006600030913301E6E6F1E080E090E044E150E0D3
:100670008217930724F4419351930196F9CF109276
:10068000AA011092A9011092A8011092A70181E07D
:1006900090E0909373018093720184E690E00C9453
:1006A000E3082F923F924F925F926F927F928F92C8
:1006B0009F92AF92BF92CF92DF92EF92FF920F93F1
:1006C0001F93CF93DF93CDB7DEB76A970FB6F89439
:1006D000DEBF0FBECDBF809156028111F8C485EEFA
:1006E00091E00E94970C182F85EE91E00E94220E57
:1006F0009C0180917001909171018230910509F007
:10070000C6C455E0369527955A95E1F7412F4F7DA0
:1007100009F044C44091A7015091A8014333510509
:100720000CF432C44091A9015091AA014531510500
:100730000CF428C4283E334008F024C40091A102E0
:100740001091A2021093A00200939F02C090A302F6
:10075000D090A402D0929E02C0929D02A091A502C8
:10076000B091A602B0939C02A0939B02A090A70216
:10077000B090A802B0929A02A09299026091A90248
:100780007091AA0270939802609397028090AB02D6
:100790009090AC029092960280929502209157021E
:1007A000222391F18091580290E09C01220F331F87
:1007B000F901EF56FD4F11830083890103571D4F47
:1007C000F801D182C082F901E757FD4FB183A083C0
:1007D000D901AB57BD4FAD92BC92F901EF57FD4F18
:1007E00071836083F901E358FD4F918280820E94FA
:1007F000570281E0809356028091580290E00E9457
:1008000093010E940C03B7C32091720130917301D0
:100810002130310561F4909373018093720180E07F
:1008200090E00E94930181E090E00E949301E090AB
:100830009F02F090A002C0909D02D0909E02A090D6
:100840009B02B0909C028090990290909A026090D6
:10085000970270909802409095025090960241E95C
:1008600052E05E8B4D8BE9E7F2E08DE892E09C87E9
:100870008B87A5E7B2E0BC8BAB8B49E852E0588789
:100880004F8381E792E09A8B898BA5E8B2E0BC8325
:10089000AB834DE652E0588B4F8781E892E09A8314
:1008A0008983A9E6B2E0BE87AD878DE7282E82E076
:1008B000382E45E652E05A8F498F588F4F8BBD0135
:1008C0000DE612E0A1E7B2E0BE83AD8345E752E05A
:1008D0005A874987AF0120E030E0AD89BE898D910C
:1008E0009D91BE8BAD8B8E199F0997FF03C091958B
:1008F00081959109DA018D939D93AD01AB85BC85FE
:100900008D919D91BC87AB878C199D0997FF03C082
:10091000919581959109A985BA858D939D93BA8703
:10092000A987AF81B8858D919D91B887AF838A19CA
:100930009B0997FF03C0919581959109AD81BE8177
:100940008D939D93BE83AD83AB81BC818D919D9131
:10095000BC83AB838819990997FF03C09195819552
:100960009109D8018D939D938D01A981BA818D91B3
:100970009D91BA83A9838619970997FF03C0919522
:1009800081959109DB018D939D93BD01D1018D91DD
:100990009D911D018419950997FF03C0919581953B
:1009A0009109AF89B88D8D939D93B88FAF8B21300E
:1009B000310519F021E030E090CF60919102709103
:1009C00092024091930250919402209179023091C9
:1009D0007A0280917B0290917C0261157105A1F4ED
:1009E0004115510511F525313105D0F585319105B8
:1009F000B8F540915D0250915E024F5F5F4F50939A
:100A00005E0240935D0218C04115510571F4253115
:100A1000310530F540915D0250915E024F5F5F4FAE
:100A200050935E0240935D021BC0452B81F0672B03
:100A300071F485319105A0F440915F0250916002FC
:100A40004F5F5F4F5093600240935F0209C02817C9
:100A5000390718F425313105E8F28217930748F376
:100A60002332310550F040915D0250915E024550B5
:100A7000510950935E0240935D028332910550F01C
:100A800040915F02509160024550510950936002BD
:100A900040935F0200918D0210918E02A0918F020F
:100AA000B091900260917502709176024091770248
:100AB000509178020115110591F41097F9F4653100
:100AC0007105B0F54531510598F5A0915D02B091E1
:100AD0005E021196B0935E02A0935D0216C010975D
:100AE00069F46531710520F5A0915D02B0915E0257
:100AF0001196B0935E02A0935D021AC0AB2B79F001
:100B0000012B69F44531510598F4A0915F02B09131
:100B100060021196B0936002A0935F0209C064174F
:100B2000750718F465317105F8F24617570750F349
:100B30006332710550F060915D0270915E02655004
:100B4000710970935E0260935D024332510550F06B
:100B500040915F02509160024550510950936002EC
:100B600040935F020091890210918A02A0918B024A
:100B7000B0918C0260917102709172024091730287
:100B8000509174020115110591F41097F9F4653133
:100B90007105B0F54531510598F5A0915D02B09110
:100BA0005E021196B0935E02A0935D0216C010978C
:100BB00069F46531710520F5A0915D02B0915E0286
:100BC0001196B0935E02A0935D021AC0AB2B79F030
:100BD000012B69F44531510598F4A0915F02B09161
:100BE00060021196B0936002A0935F0209C064177F
:100BF000750718F465317105F8F24617570750F379
:100C00006332710550F060915D0270915E02655033
:100C1000710970935E0260935D024332510550F09A
:100C200040915F025091600245505109509360021B
:100C300040935F020091850210918602A091870285
:100C4000B091880260916D0270916E0240916F02C6
:100C5000509170020115110591F41097F9F4653166
:100C60007105B0F54531510598F5A0915D02B0913F
:100C70005E021196B0935E02A0935D0216C01097BB
:100C800069F46531710520F5A0915D02B0915E02B5
:100C90001196B0935E02A0935D021AC0AB2B79F05F
:100CA000012B69F44531510598F4A0915F02B09190
:100CB00060021196B0936002A0935F0209C06417AE
:100CC000750718F465317105F8F24617570750F3A8
:100CD0006332710550F060915D0270915E02655063
:100CE000710970935E0260935D024332510550F0CA
:100CF00040915F025091600245505109509360024B
:100D000040935F02A0918102B091820260918302C0
:100D1000709184021097F1F46115710581F540918D
:100D2000690250916A024531510508F04BC040916B
:100D30006B0250916C024531510508F043C040915F
:100D40005D0250915E024F5F5F4F50935E02409391
:100D50005D0220C06115710591F4409169025091C6
:100D60006A024531510570F540915D0250915E0275
:100D70004F5F5F4F50935E0240935D0223C04091EE
:100D80006B0250916C02672B81F0AB2B71F44531F3
:100D90005105C0F440915F02509160024F5F5F4F78
:100DA0005093600240935F020DC0609169027091A0
:100DB0006A026417750718F465317105A8F24617C1
:100DC000570728F32332310550F020915D0230910E
:100DD0005E022550310930935E0220935D028397B5
:100DE00048F080915F0290916002059790936002B5
:100DF00080935F0201E612E0C190D190AB89BC897B
:100E0000ED90FD90BC8BAB8BA989BA896D917D91DA
:100E1000BA8BA98BAF85B8894D915D91B88BAF879F
:100E2000AD85BE852D913D91BE87AD87A98DBA8DCB
:100E30008D919D91BA8FA98FEC0CFD1C6E0D7F1DBD
:100E4000460F571F240F351F820F931FD8018D9314
:100E50009D938D01B2E0ED37FB0771F68091610241
:100E6000909162022091630230916402821793078D
:100E700090F480915D0290915E02019690935E02E3
:100E800080935D026091320170913301EDE5F2E0F3
:100E900024E331E031C028173907A0F780915F02C1
:100EA0009091600201969093600280935F02EACF76
:100EB000D7010D911D917D01DC01AA0FBB1FA20F6F
:100EC000B31F0D90BC91A02D0A171B0711F04F5FA7
:100ED0005F4F0196861797075CF3443051052CF05D
:100EE000808191810A97918380833296265F3F4F5C
:100EF000B1E028343B0749F056E6E52E51E0F52EE7
:100F000080E090E040E050E0E5CF80915D0290917C
:100F10005E0220915F02309160028230910534F0D0
:100F2000281739071CF481E090E00BC0223031050E
:100F300034F0821793071CF482E090E002C083E053
:100F400090E090935C0280935B020E940C031092ED
:100F50005E0210925D028AE090E00E94E308109227
:100F6000600210925F028AE090E00E94E30884E64B
:100F700090E00E94E3080E940C0384E690E00E9447
:100F8000E30802C00E940C038091A7019091A80180
:100F900001969093A8018093A70199C02A31310549
:100FA00008F495C0812F110F990B2091A901309160
:100FB000AA012F5F3F4F3093AA012093A9011092FD
:100FC000A8011092A701181619060CF080C02091F4
:100FD000A5013091A60140913201509133012417AF
:100FE0003507C4F5409130015091310184179507C0
:100FF00059F021E030E03093A4012093A3019093B5
:1010000031018093300126C04091A3015091A40189
:1010100014161506FCF4453051053CF44F5F5F4F44
:101020005093A4014093A30115C0F901EE0FFF1FD7
:10103000EA59FE4F91838083909331018093300170
:101040002F5F3F4F3093A6012093A5011092A4017A
:101050001092A3019C01215031092530310558F42B
:10106000880F991FFC01EF55FD4F808191810196FA
:10107000918380832CC0069754F18091AB029091AC
:10108000AC0201969093AC028093AB0220C082E048
:1010900090E090937101809370016A960FB6F89476
:1010A000DEBF0FBECDBFDF91CF911F910F91FF909B
:1010B000EF90DF90CF90BF90AF909F908F907F90F8
:1010C0006F905F904F903F902F900C940C036A9616
:1010D0000FB6F894DEBF0FBECDBFDF91CF911F9149
:1010E0000F91FF90EF90DF90CF90BF90AF909F90C7
:1010F0008F907F906F905F904F903F902F900895CA
:1011000085EE91E00E94970C85EE91E00E94220E00
:1011100080349340C0F58091A7019091A801893255
:101120009105D4F08091A9019091AA014F973CF0CC
:1011300082E090E090935A028093590204C010928A
:101140005A02109259021092AA011092A90110920B
:10115000A8011092A7010DC097FD0BC08091A901B5
:101160009091AA0101970A9720F41092AA01109277
:10117000A9018091A7019091A80101969093A801DF
:101180008093A70108958091A9019091AA010196E9
:101190009093AA018093A9010B9754F081E090E00D
:1011A00090935A02809359021092A8011092A701BD
:1011B00008956EE070E085EE91E00E94730D8BEA79
:1011C00091E00C94960E8F929F92AF92BF92CF9225
:1011D000DF92EF92FF926C010E94AE0F4B015C0117
:1011E000E12CF12C0E94AE0FDC01CB01881999098A
:1011F000AA09BB098C159D05AE05BF0530F40E94F8
:101200002509882379F380E001C081E0FF90EF9009
:10121000DF90CF90BF90AF909F908F900895E1E8BE
:10122000F0E080E180831092800085E08093D0021E
:1012300082E19AE79093D2028093D1029093870043
:101240008093860085E1808308950E94620188234F
:1012500029F091E0909376019093C9020895CF937D
:10126000DF93C5E0D0E060E086E00E947B1060E0A4
:1012700084E00E947B1060E083E00E947B10219755
:1012800091F781E08093CD021092CC021092570228
:1012900010925602DF91CF9108951F93CF93DF9361
:1012A000EC0111E01093C90261E086E00E947B101E
:1012B000CB30D10549F1CF30D10599F0CA30D105F5
:1012C000A9F581E090E0909371018093700161E055
:1012D00087E00E947B1061E088E00E947B1060E064
:1012E00022C08091CC0281110CC01093CC0281E00D
:1012F00090E09093710180937001109258021093C6
:1013000057020E94510312C081E090E09093710156
:101310008093700161E087E00E947B1061E088E0CB
:101320000E947B1061E089E00E947B102A9722973F
:1013300030F01092CD02DF91CF911F910895CAE055
:10134000D0E060E083E00E947B1061E084E00E94D6
:101350007B102197B1F7EDCFCF93DF932091C70298
:101360002111BDC0EC0181E08093C70260E086E0FE
:101370000E947B10FE013197E031F105B0F4EC5C86
:10138000FF4F0C948F1460E038C061E087E00E944A
:101390007B1060E088E00E947B1060E089E00E94A2
:1013A0007B1010925C0210925B02C5E0D0E05DC041
:1013B00062E070E080E090E00E948E116093B902DC
:1013C0007093BA028093BB029093BC02672B682B88
:1013D000692B31F460E087E00E947B1061E0DACF96
:1013E00060E087E00E947B1061E088E00E947B1053
:1013F00061E0D4CF61E029C061E087E00E947B100A
:1014000061E01DC061E087E00E947B1061E021C0C7
:1014100062E070E080E090E00E948E116093B9027B
:101420007093BA028093BB029093BC02672B682B27
:10143000692B51F460E087E00E947B1060E088E057
:101440000E947B1060E009C060E087E00E947B1092
:1014500060E088E00E947B1061E089E00E947B10E0
:10146000A4CF2093CB022197E9F060E084E00E94B2
:101470007B1061E083E00E947B108AE00E94AB1049
:1014800021E0892B71F720E0ECCF81E090E00E9411
:10149000E3088AE00E94AB1021E0892B09F420E0E8
:1014A0002093CB028091CB028111EFCF80918E01EE
:1014B00090918F01019759F48091BF029091C002E1
:1014C00088519C4F9093BE028093BD0202C080ED74
:1014D00097E00E94E3081092C7021092CD02DF91BC
:1014E000CF9108951F93CF93DF93CAE7D0E018817F
:1014F000188283B7817F846083BFF89485B7806644
:1015000085BF8F7D85BF83B7816083BF789441E0BD
:1015100050E06FE079E080E00E94E40E889583B7A8
:101520008E7F83BF80E00E94040F1883DF91CF91EC
:101530001F9108958091C9028823C1F01092C902B9
:1015400080E1809381001092800085E08093D0023A
:1015500082E19AE79093D2028093D1029093870020
:101560008093860085E18093810008958091C50273
:101570009091C60201969093C6028093C50280E1C5
:10158000809381001092800085E08093D00282E1F8
:101590009AE79093D2028093D10290938700809330
:1015A000860085E1809381008091C5029091C602FA
:1015B0000F9734F01092C6021092C5020C94720A72
:1015C000089561E087E00E943F1061E088E00E949A
:1015D0003F1061E089E00E943F1061E084E00E94DA
:1015E0003F1061E083E00E943F1061E086E00E94CE
:1015F0003F1060E08AE00E943F1060E08FE00E94B0
:101600003F1060E080E10E943F1062E082E00E94B3
:101610003F10E1E8F0E080E180831092800085E0F7
:101620008093D00282E19AE79093D2028093D10214
:10163000909387008093860085E180838AE99AE011
:101640009093CF028093CE0281E080936F0060E0A0
:1016500084E00E947B1060E083E00E947B1061E0E8
:1016600086E00E947B1088EE93E00E94E3080E94CF
:10167000F80288EE93E00C94E308CF93DF930E9486
:1016800025090E94A200882319F081E08093C902F5
:101690000E94450180918E0190918F0181309105CA
:1016A00009F06AC08091CA0281113AC08091A701F5
:1016B0009091A80118161906F4F40E942F09809140
:1016C0007401909175018A30910519F48BE090E0D6
:1016D00004C00B9731F48AE090E0909375018093F9
:1016E000740180917401909175010E944D098AEFF7
:1016F00090E00E94E308C8ECD0E00E94800880914E
:10170000590290915A02019741F481E08093CA02F4
:101710001092AA011092A90107C1219771F704C183
:101720000E9480088091590290915A02813091055F
:1017300069F48091BF029091C00201969093C0021B
:101740008093BF0281E08093CA02EEC0823091058F
:1017500059F480917401909175010E94AC09109226
:10176000C0021092BF0205C0892B09F0DDC00E94A3
:101770002F091092CA02D8C0029709F0D5C08091F3
:1017800076018111C4C080919601909197018130BA
:10179000910509F482C08230910509F4A9C0892B12
:1017A00009F0C2C00E942F090E9451030E948A01C1
:1017B000882309F43FC08091C1029091C202823314
:1017C000910534F401969093C2028093C10204C043
:1017D0001092C4021092C3028091C802811155C0B8
:1017E0001092C2021092C10281E08093C9028093DC
:1017F000C8028091C3029091C40201969093C402E2
:101800008093C30202970CF440C08FE00E94AB109B
:10181000019709F084C080E10E94AB10019709F0A4
:101820007EC01092C4021092C3028CE090E00E942D
:10183000AC092BC00E948A01811127C08091C1028E
:101840009091C2028436910534F401969093C202BD
:101850008093C10204C01092C4021092C30280910E
:10186000C802882391F01092C2021092C10281E056
:101870008093C9028091C3029091C4020196909313
:10188000C4028093C3021092C80280915B029091BF
:101890005C02009709F448C03EC08091920190918B
:1018A0009301409701F5C4E6D0E061E084E00E9436
:1018B0007B1061E083E00E947B102197B1F78CEDF3
:1018C00095E00E94E308C4E6D0E060E084E00E9476
:1018D0007B1060E083E00E947B102197B1F788EED7
:1018E00093E00E94E308809192019091930113C0CC
:1018F00080915602882319F084E090E00CC080911A
:10190000920190919301DF91CF910C944D09109227
:10191000760180E190E0DF91CF910C94AC091092B8
:10192000C4021092C302B1CFDF91CF9108958F927C
:101930009F92AF92BF92EF92FF920F931F93CF931C
:10194000DF93EC010E94E40DCE010E94220E853F40
:1019500021E0920708F4B0C0BC01CE010E94350E10
:10196000BE0161597F4F9E0123593F4FD9014D91CF
:101970005C911197FB015183408312974D915C91CB
:101980001197F9015183408324503109F9014081B5
:10199000518111965C934E9314974D915C911197E0
:1019A0005183408324503109F901408151814D9385
:1019B0005C93329740815181D9014D935C9391831F
:1019C000808380E090E021913191820F931FE61790
:1019D000F707C9F767E070E00E943A148B01CE0167
:1019E0000E94620EBC0180E090E00E942B132DEC5F
:1019F0003CEC4CE45DE30E94B9134B015C017E01B9
:101A0000B8E5EB0EF11CF70180819181BC01990FC3
:101A1000880B990B0E942D1323E333E343E75FE325
:101A20000E94B9139B01AC01C501B4010E94891247
:101A30000E94F512AB01D7016D937C93FE01EE5B22
:101A4000FF4F1183008336962081318102171307DF
:101A50001CF425E63F9620C0FE01E65BFF4F208187
:101A60003181021713071CF42FE63D9615C0FE01C5
:101A7000E45BFF4F20813181021713071CF426E736
:101A80003B960AC0FE01E25BFF4F208131810217C5
:101A900013071CF428E639962083FE01E05BFF4F14
:101AA0002081222339F0CA5BDF4F28813981241736
:101AB00035076CF0802F0CC0FE01E85AFF4F1182F1
:101AC0001082CE5BDF4F1982188280E201C086E669
:101AD000DF91CF911F910F91FF90EF90BF90AF904A
:101AE0009F908F900895FC01E45AFF4F71836083AB
:101AF000749722E030E031832083329623E030E097
:101B00003183208332962AE030E03183208334967B
:101B10001082319631832083349681E090E0918366
:101B2000808308958F929F92AF92BF92CF92DF925F
:101B3000EF92FF920F931F93CF93DF938C01065A7E
:101B40001F4FF8011182108220E1822E27E2922E8F
:101B5000C12CD12C76015C01FCE5AF0EB11CEC016F
:101B6000CB5ADF4FF50180810E94F50F2881398122
:101B7000AC01429FC001439F900D529F900D1124D4
:101B8000092E000CAA0BBB0BC80ED91EEA1EFB1EA9
:101B900051E0851A910831F7C701B60120E137E21B
:101BA00040E050E00E944E14F80131832083DF9121
:101BB000CF911F910F91FF90EF90DF90CF90BF904A
:101BC000AF909F908F900895AF92BF92CF92DF9287
:101BD000EF92FF920F931F93CF93DF93EC015C0181
:101BE00040E4A40EB11C6C015CE5C50ED11C7C0167
:101BF00085E5E80EF11C8E01065A1F4FF601808123
:101C00000E94F50FF70120813181AC01429FC00194
:101C1000439F900D529F900D1124F8012081318136
:101C2000821B930B89939993CA15DB0539F7DF91D2
:101C3000CF911F910F91FF90EF90DF90CF90BF90C9
:101C4000AF900895FC01AC01405C5F4F80E090E0F4
:101C50002191319137FF03C0319521953109820FD0
:101C6000931FE417F507A1F70895CF93DF93AC0115
:101C7000EC01EE96A0E0B0E0FA01228133814E5FE4
:101C80005F4F0190F081E02D2E1B3F0B37FF03C00B
:101C9000319521953109A20FB31F4C175D0761F7EC
:101CA000FC01EF5AFF4F20813181A29FC001A39F09
:101CB000900DB29F900D11240E942614CB01DF914C
:101CC000CF910895CF93DF93DC01A05CBF4F2D919E
:101CD0003C911197FC0180E090E060E070E0EF0142
:101CE000C05ADF4F4191519157FF03C05195419523
:101CF00051098417950718F479836883CA016F5FC7
:101D00007F4F40815181240F351F6032710551F79B
:101D100037FF02C0215E3F4F45E0359527954A9534
:101D2000E1F72D933C93DF91CF910895FC0111824F
:101D300010821382128215821482178216821186F3
:101D400010861386128615A214A210A611A612A63A
:101D500013A614A615A6118E108E138E128E158E34
:101D6000148E178E168E11A210A213A212A281E059
:101D700085AB17A216A208951F920F920FB60F926D
:101D800011242F933F934F935F936F937F938F9380
:101D90009F93AF93BF93EF93FF93E091CE02F091A7
:101DA000CF020995FF91EF91BF91AF919F918F91D4
:101DB0007F916F915F914F913F912F910F900FBE47
:101DC0000F901F90189508958230E8F4E82FF0E006
:101DD000EE0FFF1FE958FE4F71836083813041F0A1
:101DE000809169008C7F482B40936900E89A0895A0
:101DF00080916900440F551F440F551F837F482B66
:101E000040936900E99A0895823078F4813011F0A6
:101E1000E89801C0E998E82FF0E0EE0FFF1FE958BD
:101E2000FE4F83EE9EE09183808308951F920F9270
:101E30000FB60F9211242F933F934F935F936F939D
:101E40007F938F939F93AF93BF93EF93FF93E09113
:101E50007701F09178010995FF91EF91BF91AF91D2
:101E60009F918F917F916F915F914F913F912F91B2
:101E70000F900FBE0F901F9018951F920F920FB6E4
:101E80000F9211242F933F934F935F936F937F9300
:101E90008F939F93AF93BF93EF93FF93E09179015B
:101EA000F0917A010995FF91EF91BF91AF919F91C8
:101EB0008F917F916F915F914F913F912F910F90F3
:101EC0000FBE0F901F9018951F920F920FB60F9292
:101ED00011242F933F938F939F93AF93BF93809140
:101EE000D4029091D502A091D602B091D702309140
:101EF000D30223E0230F2D3720F40196A11DB11D3D
:101F000005C026E8230F0296A11DB11D2093D30220
:101F10008093D4029093D502A093D602B093D702B7
:101F20008091D8029091D902A091DA02B091DB029F
:101F30000196A11DB11D8093D8029093D902A09360
:101F4000DA02B093DB02BF91AF919F918F913F91E5
:101F50002F910F900FBE0F901F9018952FB7F894E8
:101F60006091D4027091D5028091D6029091D702EF
:101F70002FBF0895789484B5826084BD84B5816054
:101F800084BD85B5826085BD85B5816085BDEEE681
:101F9000F0E0808181608083E1E8F0E01082808160
:101FA00082608083808181608083E0E8F0E08081CE
:101FB00081608083E1EBF0E0808184608083E0EBEE
:101FC000F0E0808181608083EAE7F0E080818460D6
:101FD0008083808182608083808181608083808132
:101FE000806880831092C1000895883028F08E3078
:101FF00010F08E5001C08FEF877020917B0190E42C
:10200000299F90011124822B80937C0080917A007B
:10201000806480937A0080917A0086FDFCCF809165
:1020200078002091790090E0922B0895843081F01F
:1020300028F4823099F08330A1F008958830A9F017
:102040008930B9F08530D1F4809180008F7D03C054
:10205000809180008F7780938000089584B58F777A
:1020600002C084B58F7D84BD08958091B0008F77C4
:1020700003C08091B0008F7D8093B0000895CF930E
:10208000DF9390E0FC01E156FF4F2491FC01EA54FC
:10209000FF4F8491882361F190E0880F991FFC0124
:1020A000EF51FF4FC591D491FC01E952FF4FA5912B
:1020B000B491611109C09FB7F8948881209582235B
:1020C0008883EC912E230BC0623061F49FB7F894A3
:1020D0003881822F809583238883EC912E2B2C933B
:1020E0009FBF06C08FB7F894E8812E2B28838FBF3F
:1020F000DF91CF9108951F93CF93DF93282F30E086
:10210000F901E857FF4F8491F901E156FF4FD4914F
:10211000F901EA54FF4FC491CC23C9F0162F811165
:102120000E941610EC2FF0E0EE0FFF1FE952FF4F58
:10213000A591B4918FB7F894111105C09C91ED2F22
:10214000E095E92302C0EC91ED2BEC938FBFDF917A
:10215000CF911F910895CF93DF93282F30E0F9019D
:10216000E857FF4F8491F901E156FF4FD491F901EF
:10217000EA54FF4FC491CC2391F081110E941610B4
:10218000EC2FF0E0EE0FFF1FE353FF4FA591B4914A
:10219000EC91ED2381E090E021F480E002C080E04A
:1021A00090E0DF91CF9108951F920F920FB60F929A
:1021B00011242F938F939F93EF93FF93E091EC0261
:1021C000F091ED028081E091F202F091F30282FD44
:1021D00012C090818091F5028F5F8F732091F6027B
:1021E000821751F0E091F502F0E0E452FD4F958F37
:1021F0008093F50201C08081FF91EF919F918F91B3
:102200002F910F900FBE0F901F9018951F920F9255
:102210000FB60F9211242F933F934F935F936F93B9
:102220007F938F939F93AF93BF93EF93FF938CED27
:1022300092E00E94FE11FF91EF91BF91AF919F91AB
:102240008F917F916F915F914F913F912F910F905F
:102250000FBE0F901F9018958CED92E00E94C21156
:1022600021E0892B09F420E0822F0895ECEDF2E0C3
:102270001382128288EE93E0A0E0B0E0848395831D
:10228000A683B78380E891E09183808385EC90E01A
:102290009587848784EC90E09787868780EC90E030
:1022A000918B808B81EC90E0938B828B82EC90E021
:1022B000958B848B86EC90E0978B868B118E128E9B
:1022C000138E148E0895CF92DF92EF92FF920F93A8
:1022D0001F93CF93DF936C017A018B01C0E0D0E0B4
:1022E000CE15DF0589F0D8016D918D01D601ED91F4
:1022F000FC910190F081E02DC6010995892B11F424
:102300007E0102C02196ECCFC701DF91CF911F91D2
:102310000F91FF90EF90DF90CF900895CF93DF93D0
:1023200000D000D0CDB7DEB76115710581059105EC
:1023300079F09B01AC0169833A834B835C830E94F3
:10234000FD1429813A814B815C810E94701403C085
:1023500060E070E0CB010F900F900F900F90DF9135
:10236000CF91089508950E94BA0F0E94B2110E9461
:10237000E10AC0EFD1E10E943D0B2097E1F30E94FA
:10238000F011F9CFFC01918D228D892F90E0805CB6
:102390009F4F821B91098F7399270895FC01918D9E
:1023A000828D981731F0828DE80FF11D858D90E0B8
:1023B00008958FEF9FEF0895FC01918D828D9817FE
:1023C00061F0828DDF01A80FB11D5D968C91928D19
:1023D0009F5F9F73928F90E008958FEF9FEF089516
:1023E0008CE291E1892B49F080E090E0892B29F083
:1023F0000E942C1181110C9400000895FC01848D21
:10240000DF01A80FB11DA35ABF4F2C91848D90E01E
:1024100001968F739927848FA689B7892C93A089F9
:10242000B1898C9180648C93938D848D981306C0B0
:102430000288F389E02D80818F7D80830895CF937A
:10244000DF93EC01888D8823C9F0EA89FB898081BC
:1024500085FD05C0A889B9898C9186FD0FC00FB68E
:1024600007FCF5CF808185FFF2CFA889B9898C91CF
:1024700085FFEDCFCE010E94FE11E7CFDF91CF9116
:102480000895EF92FF920F931F93CF93DF93EC0188
:1024900081E0888F9B8D8C8D981305C0E889F98920
:1024A000808185FD24C0F62E0B8D10E00F5F1F4F3D
:1024B0000F731127E02E8C8DE8120CC00FB607FCAD
:1024C000FACFE889F989808185FFF5CFCE010E9496
:1024D000FE11F1CF8B8DFE01E80FF11DE35AFF4F86
:1024E000F0820B8FEA89FB898081806207C0EE89C8
:1024F000FF896083E889F98980818064808381E035
:1025000090E0DF91CF911F910F91FF90EF90089590
:102510005058BB27AA270E94A0120C947F130E9438
:10252000711338F00E94781320F039F49F3F19F4AA
:1025300026F40C946E130EF4E095E7FB0C946813EC
:10254000E92F0E94901358F3BA17620773078407A4
:10255000950720F079F4A6F50C94B2130EF4E095EB
:102560000B2EBA2FA02D0B01B90190010C01CA014D
:10257000A0011124FF27591B99F0593F50F4503EF8
:1025800068F11A16F040A22F232F342F4427585FEA
:10259000F3CF469537952795A795F0405395C9F702
:1025A0007EF41F16BA0B620B730B840BBAF09150BA
:1025B000A1F0FF0FBB1F661F771F881FC2F70EC059
:1025C000BA0F621F731F841F48F48795779567952C
:1025D000B795F7959E3F08F0B0CF9395880F08F018
:1025E0009927EE0F9795879508950E94FC1268949D
:1025F000B1110C94B31308950E94981388F09F575B
:1026000098F0B92F9927B751B0F0E1F0660F771F16
:10261000881F991F1AF0BA95C9F714C0B13091F00C
:102620000E94B213B1E008950C94B213672F782F73
:102630008827B85F39F0B93FCCF3869577956795D1
:10264000B395D9F73EF490958095709561957F4F3D
:102650008F4F9F4F0895E89409C097FB3EF49095E3
:102660008095709561957F4F8F4F9F4F9923A9F06B
:10267000F92F96E9BB279395F695879577956795FA
:10268000B795F111F8CFFAF4BB0F11F460FF1BC03E
:102690006F5F7F4F8F4F9F4F16C0882311F096E9D1
:1026A00011C0772321F09EE8872F762F05C066237F
:1026B00071F096E8862F70E060E02AF09A95660F38
:1026C000771F881FDAF7880F9695879597F90895F1
:1026D00097F99F6780E870E060E008959FEF80ECD5
:1026E000089500240A941616170618060906089578
:1026F00000240A9412161306140605060895092EDE
:102700000394000C11F4882352F0BB0F40F4BF2B4C
:1027100011F460FF04C06F5F7F4F8F4F9F4F08958C
:1027200057FD9058440F551F59F05F3F71F0479582
:10273000880F97FB991F61F09F3F79F08795089567
:10274000121613061406551FF2CF4695F1DF08C086
:10275000161617061806991FF1CF869571056105A3
:1027600008940895E894BB2766277727CB0197F94B
:1027700008950E94CC130C947F130E94711338F0BB
:102780000E94781320F0952311F00C9468130C9498
:102790006E1311240C94B3130E94901370F3959F41
:1027A000C1F3950F50E0551F629FF001729FBB2748
:1027B000F00DB11D639FAA27F00DB11DAA1F649FE4
:1027C0006627B00DA11D661F829F2227B00DA11D97
:1027D000621F739FB00DA11D621F839FA00D611D1D
:1027E000221F749F3327A00D611D231F849F600D3E
:1027F000211D822F762F6A2F11249F5750409AF067
:10280000F1F088234AF0EE0FFF1FBB1F661F771FF2
:10281000881F91505040A9F79E3F510580F00C94BD
:1028200068130C94B3135F3FE4F3983ED4F386959A
:1028300077956795B795F795E7959F5FC1F7FE2B5D
:10284000880F911D9695879597F90895AA1BBB1B34
:1028500051E107C0AA1FBB1FA617B70710F0A61BA0
:10286000B70B881F991F5A95A9F780959095BC01C1
:10287000CD01089597FB072E16F4009407D077FD3D
:1028800009D00E94261407FC05D03EF4909581954E
:102890009F4F0895709561957F4F0895A1E21A2E7C
:1028A000AA1BBB1BFD010DC0AA1FBB1FEE1FFF1FF4
:1028B000A217B307E407F50720F0A21BB30BE40B44
:1028C000F50B661F771F881F991F1A9469F760958B
:1028D0007095809590959B01AC01BD01CF01089545
:1028E000052E97FB1EF400940E94871457FD07D015
:1028F0000E944E1407FC03D04EF40C94871450959C
:102900004095309521953F4F4F4F5F4F08959095DB
:102910008095709561957F4F8F4F9F4F0895EE0F73
:10292000FF1F0590F491E02D09940E94A014A59F2B
:10293000900DB49F900DA49F800D911D11240895BA
:10294000A29FB001B39FC001A39F700D811D1124F0
:10295000911DB29F700D811D1124911D08958F92BC
:102960009F92AF92BF92CF92DF92EF92FF92CF935E
:10297000DF93EC01688179818A819B816115710502
:102980008105910521F464E279ED8BE597E02DE175
:1029900033EF41E050E00E94701449015A019B015D
:1029A000AC01A7EAB1E40E9495146B017C01ACEE86
:1029B000B4EFA50194010E943715DC01CB018C0D09
:1029C0009D1DAE1DBF1DB7FF03C00197A109B048F3
:1029D00088839983AA83BB83BC01CD019F77DF9154
:1029E000CF91FF90EF90DF90CF90BF90AF909F90EE
:1029F0008F9008950E94AF14089580E091E00E94A6
:102A0000AF14089560930001709301018093020157
:102A1000909303010895A8E1B0E042E050E00C94E7
:102A200018150E942615272F0C942715DC01CB01C1
:102A3000FC01F999FECF06C0F2BDE1BDF89A3196CE
:102A400000B40D9241505040B8F70895262FF999DF
:102A5000FECF1FBA92BD81BD20BD0FB6F894FA9A81
:102A6000F99A0FBE01960895B7FF0C9495140E9431
:102A70009514821B930B0895F894FFCF010000007A
:102A800078009400760092007400900072008E002E
:102A900070008C006E008A006C0088006A0086005E
:102AA0006800840066008200640080001400050055
:102AB0001400140014001400140014001400140076
:102AC00014001400000000000000000000000000DE
:102AD00000000000000000000000000000000000F6
:102AE0000000140014001400140014000100010080
:102AF0000A0001E30E000001000000004112631112
:102B0000C211DC11CE111F12FFFFFFFFFFFFFFFFFD
:102B1000FFFFFFFFFFFFFFFFFFFFFFFFFFFFFFFFC5
:102B2000FFFFFFFFFFFFFFFFFFFFFFFFFFFFFFFFB5
:102B3000FFFFFFFFFFFFFFFFFFFFFFFFFFFFFFFFA5
:102B4000FFFFFFFFFFFFFFFFFFFFFFFFFFFFFFFF95
:00000001FF
