:1000000058C0F8C171C070C06FC06EC06DC06CC008
:100010006BC06AC069C068C067C066C065C064C0A4
:1000200023C362C061C060C05FC05EC05DC05CC011
:100030005BC05AC009022200010100800A090400C5
:100040000001030000000921010100012221000735
:100050000581030800641201100100000008A020BF
:10006000B642000101020001180352006F00620055
:100070006F0043006C00650061006E006500720057
:100080000C0341007200740065006300040309045E
:100090000600FF0901A101150026FF007508850172
:1000A00095080900B20201850395040900B2020116
:1000B000C00011241FBECFEFD4E0DEBFCDBF11E0E2
:1000C000A0E0B1E0E2E7F0E102C005900D92A630B9
:1000D000B107D9F721E0A6E0B1E001C01D92AA3531
:1000E000B207E1F700D7C3C78BCFCF93C62F2091BC
:1000F000270124FF07C03091280128E823272093F7
:10010000280103C02AE5209327012C2FFC01A9E236
:10011000B1E081918D9321501216DCF36C2F89E2AE
:1001200091E064D1CC5FC0932701CF910895CF9324
:10013000DF9360913801635067FDC3C08091350142
:10014000CCE0D0E0C81BD109C45CDE4F8091340103
:100150008D3209F0A5C0683009F0B1C083EC8093FE
:100160001C018AE580930101109206018881807646
:1001700031F0CE0187D68F3F09F481C087C09A81C4
:10018000109225018981811106C01092260125E275
:1001900031E082E06FC0853019F49093390167C077
:1001A000863009F04EC08B81813041F486E590E0C5
:1001B000909337018093360182E13FC0823041F451
:1001C00084E390E0909337018093360182E235C05A
:1001D0008330F1F4911108C08CE890E090933701DE
:1001E0008093360184E029C0913041F480E890E0AA
:1001F00090933701809336018CE01FC09230E1F478
:1002000088E690E0909337018093360188E115C02D
:10021000813241F486E490E0909337018093360177
:1002200089E00BC0823241F480E990E0909337017D
:100230008093360181E201C080E090E49093060152
:1002400025C0883069F0893019F490933B010FC0C4
:100250008A3049F08B3059F48BE48093280107C031
:100260002BE331E002C025E231E081E003C025E26A
:1002700031E080E0309337012093360107C0988148
:1002800097FD8E8190E89093060107C09F819111A0
:1002900004C09E81981708F4892F809300010FC035
:1002A0008091060187FF0BC0CE01BCD58F3F21F4A2
:1002B0008EE18093010103C0811110920001109220
:1002C00038018091010184FF5BC0809100018F3F64
:1002D00009F456C0C82F893008F0C8E08C1B809301
:1002E000000190911C0188E8892780931C01CC2390
:1002F00009F451C02091060127FF08C06C2F8DE141
:1003000091E068D5C82F8930A8F529C080913601C1
:100310009091370126FF12C0ACE1B1E02C2FAC0167
:100320004C515140FA01EA0FFB1FE4911196EC93F6
:100330001197215011962111F5CF08C0EDE1F1E0A0
:10034000DC012C2F3D9131932150E1F701962FEFE5
:100350002C0F820F911D90933701809336016C2FE3
:100360008DE191E043D0CC5FCC3041F08FEF8093B2
:10037000000104C08FEF80930001CEE1C093010122
:1003800084E199B1947169F48150D9F710923901DF
:100390001092330106C060E08DE191E027D0C4E007
:1003A000E5CFDF91CF910895E9E6F0E080818260AA
:1003B0008083E89AE7E2F1E08BE481838AE5808339
:1003C0000895A82FB92F80E090E041E050EA6095B1
:1003D00030E009C02D9182279795879510F08427EA
:1003E0009527305EC8F36F5FA8F30895EADF8D9319
:1003F0009D930895CF93CFB7CF93C3954C9BE9F7C7
:100400004C9B09C04C9B07C04C9B05C04C9B03C038
:100410004C9B01C0A3C0DF93C0913501DD27C45CB4
:10042000DE4F4C9B02C0DF91EBCF2F930F931F93B6
:1004300009B12FEF04FB20F94F933F9319B14FEF10
:10044000012704FB21F93BE031C04E7F012F19B198
:10045000216028C0102F4D7F2260000009B129C003
:100460004B7F2460012F000019B12BC019B1477FC9
:1004700028602AC04F7E09B120612CC04F7D19B180
:1004800020622FC04F7B09B1206432C0422709B1DE
:1004900049934FEF0000102714FB20F919B1147194
:1004A000C9F1297F91F2012704FB21F909B1237FCA
:1004B00089F2315058F1102714FB22F919B1277E27
:1004C00079F2012704FB23F92F7C81F209B110276F
:1004D00014FB24F92F7971F200C019B1012704FB34
:1004E00025F92F7359F200C009B1102714FB26F922
:1004F000223040F200C019B1012704FB27F9243053
:1005000028F64F77206819B10000F9CF11E01CBB25
:10051000002719C03B503195C31BD04011E01CBBD4
:100520000881033CF9F00B34E9F020913301198183
:10053000110F1213EDCF4A81441F093641F10D32DC
:1005400011F0013E29F700933A013F914F911F911D
:100550000F912F91DF91CCB3C0FD4FCFCF91CFBF83
:10056000CF91189520913A01222379F31091380107
:10057000112369F534306AF1309338012093340146
:10058000109135013BE0311B3093350122C00091C1
:1005900038010130E4F40AE54F7049F4309101016B
:1005A00034FD19C000930101CCE1D1E018C03091B5
:1005B000270134FD10C000932701C8E2D1E00FC02D
:1005C0002795A8F45150A9F4220F0000F9CF4AE56D
:1005D00003C042ED01C0432FC4E1D0E032E01AB1C4
:1005E00014615C9A1AB90BB120E414E15F930127FE
:1005F00056E00BB9279520F4515021F4220FF9CF82
:10060000012756E000003B5A0BB9D0F2279528F499
:10061000515029F4220F0000F9CF012756E0279509
:100620000BB920F4515021F4220FF9CF012756E0E5
:10063000299133230BB921F60B7E10913901110F4B
:10064000C651D0400BB911F01093330111E01CBB1F
:1006500000611AB11B7E402F4B7E5F9100C000C02D
:100660000BB91AB94BB971CF1F920F920FB60F92F7
:1006700011242F933F934F935F936F938F939F9387
:10068000AF93BF938091070190910801A091090158
:10069000B0910A0140910F01509110019A01285721
:1006A0003F4F273761E0360720F40196A11DB11DA9
:1006B00006C09A012F5E31090296A11DB11D30932B
:1006C000100120930F018093070190930801A093DC
:1006D0000901B0930A0180910B0190910C01A09146
:1006E0000D01B0910E010196A11DB11D80930B016A
:1006F00090930C01A0930D01B0930E01BF91AF91A7
:100700009F918F916F915F914F913F912F910F909A
:100710000FBE0F901F9018952FB7F89460910701A6
:10072000709108018091090190910A012FBF0895ED
:100730003FB7F89480910B0190910C01A0910D01AD
:10074000B0910E0126B5A89B05C02F3F19F0019668
:10075000A11DB11D3FBFBA2FA92F982F8827820F47
:10076000911DA11DB11DBC01CD0144E0660F771F95
:10077000881F991F4A95D1F723E030E040E050E010
:100780000ED4CA01B90108958F929F92AF92BF9281
:10079000CF92DF92EF92FF926B017C01C9DF4B0198
:1007A0005C01C114D104E104F10401F197D381117A
:1007B0001DC0BEDFDC01CB0188199909AA09BB095C
:1007C000883E9340A105B10560F381E0C81AD108C5
:1007D000E108F10828EE820E23E0921EA11CB11C54
:1007E000C114D104E104F104E1F2E3CFFF90EF90F2
:1007F000DF90CF90BF90AF909F908F9008958770BB
:10080000806480937C0080917A00806480937A0079
:1008100080917A0086FDFCCF80917800209179004C
:1008200090E0922B08952FB7F8949FEF940F9E3F7E
:1008300060F1811114C084B58F7584BD8AB1806662
:100840008AB9411104C08BB180668BB962C0611155
:1008500003C05E985D9A5DC05D985E9A5AC08091B3
:1008600080008F758093800084B1866084B94111C7
:1008700004C085B1866085B94CC0611103C02A9857
:10088000299A47C029982A9A44C0811117C08AB171
:1008900080668AB9409584B5611108C08F7D84BD9A
:1008A00084B5806884BD5D9A47BD33C08F7784BDB1
:1008B00084B5806284BD5E9A48BD2BC084B18660D9
:1008C00084B950E080918000611112C08F778093CD
:1008D000800080918000806280938000299A8FEF51
:1008E00090E0841B950B90938B0080938A0011C03D
:1008F0008F7D80938000809180008068809380004D
:100900002A9A8FEF90E0841B950B90938900809337
:1009100088002FBF0895CF939C01FC01EB5EFE4F32
:100920009081992399F1C62FE82FD901AC5FBE4F72
:100930008C9181110CC0D901AE5FBE4F8C91989FF4
:10094000C001112464E670E017D3462F10C0813037
:1009500069F4D901AE5FBE4F8C91989FC0011124FC
:1009600064E670E009D3462F61E002C040E060E039
:100970008E2F59DFCC2371F0CFDE6093110170937D
:100980001201809313019093140104C040E060E0D1
:10099000CF9149CFCF910895682F80E090E0BBCFF1
:1009A000682F81E090E0B7CFCF93DF93EC0118166A
:1009B00019066CF440E060E080E035DF40E060E084
:1009C00081E031DFBE01DD0F880B990BDDDE809108
:1009D0000401811120C08091050181111CC080910A
:1009E000150190910201899FC0011124C4E6D0E055
:1009F000BE01C2D2462F60E080E015DF8091160173
:100A000090910301899FC0011124BE01B5D2462FE8
:100A100060E081E008DF80910401813001F5809180
:100A200005018130E1F48091150190910201899FC7
:100A3000C0011124C4E6D0E0BE019ED2462F61E081
:100A400080E0F1DE8091160190910301899FC00141
:100A50001124BE0191D2462F61E081E0E4DE809155
:100A60000401823071F480910501823051F440E03C
:100A700060E080E0D8DE40E060E081E0DF91CF918F
:100A8000D2CEDF91CF9108950F931F93CF93909182
:100A90000401981771F1C82F923011F1823001F1E1
:100AA0003BDE009111011091120120911301309150
:100AB0001401DC01CB01801B910BA20BB30BC3977C
:100AC000A105B10568F040E060E080E0ACDE40E008
:100AD00060E081E0A8DE6AEF70E080E090E054DE44
:100AE000C093040181E05CDF81E0CF911F910F9101
:100AF00053CFCF911F910F9108958093150180E0FE
:100B00004BCF0F931F93CF9390910501981771F1DD
:100B1000C82F923011F1823001F1FEDD00911101F8
:100B2000109112012091130130911401DC01CB01CD
:100B3000801B910BA20BB30BC397A105B10568F005
:100B400040E060E080E06FDE40E060E081E06BDE8E
:100B50006AEF70E080E090E017DEC093050181E06D
:100B60001FDF81E0CF911F910F9116CFCF911F9181
:100B70000F9108958093160180E012CF98EC909326
:100B800015019093160190910501981721F092306C
:100B900011F0823019F420E030E002C02AEF30E09A
:100BA00090910401891731F0923021F0823011F0D8
:100BB0002AEF30E08093040180930501C901F4CE4F
:100BC000E2E0F1E060838183089580E018DE092E81
:100BD000000CAA0BBB0B843B9105A105B1053CF0B1
:100BE0009C01AD01245B31094109510903C020E09A
:100BF00030E0A901A5E6B0E010D22CE433E040E0FB
:100C000050E0EFD1C901089582E07BDF88EC75DF09
:100C100080E03ACF82E038DF88ECACDF80E071CF53
:100C200088EC6BDF88ECA6DF80E02EDF81E069CF07
:100C300088EC63DF88EC9EDF81E026DF80E061CF17
:100C400064E684E6BDCF329B02C033993FC046D1F3
:100C500081113FC0BADF4E9794F080E08FDF329968
:100C600017C081E08BDF64EF71E080E090E08CDD05
:100C7000DFDF68EE73E080E090E086DD09C082E0AF
:100C80007DDFA3DF4F974CF729D18823D1F321C013
:100C90009CDF4E9794F080E071DF3399D8CF81E0EC
:100CA0006DDF64EF71E080E090E06EDDB9DF68EE4B
:100CB00073E080E090E068DDCACF82E05FDF85DF2F
:100CC0004F974CF70BD18823D1F303C007D188236A
:100CD000E9F30895CF93DF9386B1C2E5D1E082FBBB
:100CE000882780F98C8386B183FB882780F98D83E0
:100CF00080E085DD8E8393709F83DF91CF9108958F
:100D000080915201882309F464C08A3A39F48091B1
:100D10005301853509F05BC00ADAFFCF803251F10B
:100D200028F4803181F08131C9F051C0823209F458
:100D300040C070F1803309F04AC060915401809145
:100D400053013EDF44C080915301811104C0809162
:100D50005401D7DE3CC08091540123C080915301DF
:100D6000811104C08091540105DF31C0809154018C
:100D7000C4DE2DC080E8FEDE80E8BFDE8091530136
:100D8000811102C081E00BC080E0BBDE81E009C0C0
:100D900080915301811107C080E8AFDE82E0B1DEAF
:100DA00080E072DE14C080E8E5DE80E0AADE82E04A
:100DB000F8CF80915301823021F080E8DBDE80E8BB
:100DC0009CDE809153019DDE80915301EACF109209
:100DD00052010895FC0190911A01892F691708F4B6
:100DE000862F20911801213069F42091560120832B
:100DF000209157012183209158012283209159018C
:100E0000238307C0233029F421E02083118212823A
:100E1000138220911B01280F20931B01981B909394
:100E20001A010895FC0190911A01992349F1892F23
:100E3000691708F4862F20911901213021F4319689
:100E400081501092190120911801213061F4208104
:100E50002093520121812093530122812093540138
:100E600023812093550120911B01280F20931B0102
:100E7000981B90931A0181E0992319F080E008955E
:100E800081E00895FC0180818076803229F581819E
:100E9000813079F480931701828180931801833027
:100EA00011F484E001C088E080931A0110921B01C4
:100EB00011C0893089F4828180931801833011F444
:100EC00084E001C088E080931A0110921B0181E048
:100ED000809319018FEF089580E00895A89527D990
:100EE0008091170108959EE088E10FB6F894A895C7
:100EF000809360000FBE90936000579A5F9A54DA17
:100F0000549A80E0815041F0A895E7EBFBE03197DF
:100F1000F1F700C00000F6CF5498789484B5836050
:100F200084BD85B5836085BD80916E0081608093AE
:100F30006E008091800081608093800080918100AC
:100F400083608093810086E880937A001092C100CC
:100F500077DE79DE40E060E080E065DC40E060E084
:100F600081E061DC80916E008E7F80936E00A89599
:100F7000DED8B0DEC5DEFBCF97FB072E16F400945B
:100F800006D077FD08D053D007FC05D03EF49095ED
:100F900081959F4F0895709561957F4F0895A1E2C7
:100FA0001A2EAA1BBB1BFD010DC0AA1FBB1FEE1FE3
:100FB000FF1FA217B307E407F50720F0A21BB30B2E
:100FC000E40BF50B661F771F881F991F1A9469F7AA
:100FD00060957095809590959B01AC01BD01CF0106
:100FE0000895052E97FB16F400940FD057FD05D0F9
:100FF000D6DF07FC02D046F408C0509540953095E6
:1010000021953F4F4F4F5F4F089590958095709574
:1010100061957F4F8F4F9F4F08951DD0A59F900DD5
:10102000B49F900DA49F800D911D11240895AA1BBB
:10103000BB1B51E107C0AA1FBB1FA617B70710F0C3
:10104000A61BB70B881F991F5A95A9F780959095F5
:10105000BC01CD010895A29FB001B39FC001A39F21
:1010600001D0B29F700D811D1124911D0895F89437
:10107000FFCFFF5A64640202FFFFFFFFFFFFFFFF85
:10108000FFFFFFFFFFFFFFFFFFFFFFFFFFFFFFFF70
:10109000FFFFFFFFFFFFFFFFFFFFFFFFFFFFFFFF60
:1010A000FFFFFFFFFFFFFFFFFFFFFFFFFFFFFFFF50
:1010B000FFFFFFFFFFFFFFFFFFFFFFFFFFFFFFFF40
:1018000058C08CC071C070C06FC06EC06DC06CC05D
:101810006BC06AC069C068C067C066C065C064C08C
:1018200063C062C061C060C05FC05EC05DC05CC0BC
:101830005BC05AC00600FF0901A101150026FF0088
:101840007508850195060900B20201850295830994
:1018500000B20201C0090222000101008032090425
:101860000000010300000009210101000122210004
:10187000070581030800C81201100100000008A03C
:1018800020B642000101020001180352006F0062FD
:10189000006F0043006C00650061006E006500721F
:1018A000000C03410072007400650063000403092A
:1018B000040011241FBECFEFD4E0DEBFCDBF11E086
:1018C000A0E0B1E0E8E2FFE102C005900D92AA308D
:1018D000B107D9F721E0AAE0B1E001C01D92A93318
:1018E000B207E1F74CD11EC38BCFA82FB92F80E0F0
:1018F00090E041E050EA609530E009C02D918227E8
:101900009795879510F084279527305EC8F36F5F11
:10191000A8F30895EADF8D939D930895CF93CFB7F1
:10192000CF93C3954C9BE9F74C9B09C04C9B07C0D8
:101930004C9B05C04C9B03C04C9B01C0A3C0DF93D4
:10194000C0911C01DD27CD5DDE4F4C9B02C0DF91B5
:10195000EBCF2F930F931F9309B12FEF04FB20F9C7
:101960004F933F9319B14FEF012704FB21F93BE05F
:1019700031C04E7F012F19B1216028C0102F4D7F3B
:101980002260000009B129C04B7F2460012F0000B4
:1019900019B12BC019B1477F28602AC04F7E09B109
:1019A00020612CC04F7D19B120622FC04F7B09B13F
:1019B000206432C0422709B149934FEF000010273D
:1019C00014FB20F919B11471C9F1297F91F2012793
:1019D00004FB21F909B1237F89F2315058F1102716
:1019E00014FB22F919B1277E79F2012704FB23F9B0
:1019F0002F7C81F209B1102714FB24F92F7971F2A1
:101A000000C019B1012704FB25F92F7359F200C05A
:101A100009B1102714FB26F9223040F200C019B199
:101A2000012704FB27F9243028F64F77206819B1E5
:101A30000000F9CF11E01CBB002719C03B503195C5
:101A4000C31BD04011E01CBB0881033CF9F00B34F0
:101A5000E9F020911A011981110F1213EDCF4A817B
:101A6000441F093641F10D3211F0013E29F7009370
:101A700021013F914F911F910F912F91DF91CCB395
:101A8000C0FD4FCFCF91CFBFCF91189520912101AD
:101A9000222379F310911F01112321F5343022F113
:101AA00030931F0120931B0110911C013BE0311B5F
:101AB00030931C0119C000911F0101309CF40AE50C
:101AC0004F7081F43091080134FD10C0009308017B
:101AD000CFE0D1E00FC02795A8F45150A9F4220F10
:101AE0000000F9CF4AE503C042ED01C0432FC4E135
:101AF000D0E032E01AB114615C9A1AB90BB120E45B
:101B000014E15F93012756E00BB9279520F451505B
:101B100021F4220FF9CF012756E000003B5A0BB900
:101B2000D0F2279528F4515029F4220F0000F9CF64
:101B3000012756E027950BB920F4515021F4220FCC
:101B4000F9CF012756E0299133230BB921F60B7EFB
:101B500010912001110FC651D0400BB911F0109314
:101B60001A0111E01CBB00611AB11B7E402F4B7E95
:101B70005F9100C000C00BB91AB94BB97ACF579A20
:101B80005F9A87B1837F87B988B18C6088B988E212
:101B90008A95F1F781E085BF82E085BF8091690079
:101BA000836080936900E89A549A80E0A895E7EBF7
:101BB000FBE03197F1F700C000008150B9F754986D
:101BC0007894329B07C0D6B1D3FB882780F9D1E047
:101BD000D82701C0D1E0F12C00E010E0A895409199
:101BE0001F013DEF340F37FD1DC180911C01ACE09A
:101BF000B0E0A81BB109AD5DBE4F80911B018D32D5
:101C000009F0C1C0383009F00BC183EC80930F019B
:101C10008AE58093080110920E018C91282F20767E
:101C200011969C9111972223E1F0993079F4129644
:101C30009C911297923031F410920B0187FD8FC066
:101C40008FEF8FC081E080930A018FC0913009F03F
:101C50008CC080E091E090931E0180931D0187E08D
:101C600085C012968C91129710921801911106C09E
:101C70001092190128E131E082E06CC0953019F42E
:101C80008093200159C0963009F050C013969C9162
:101C90001397913041F487E798E190931E01809368
:101CA0001D0182E13FC0923041F485E598E19093B7
:101CB0001E0180931D0182E235C09330F1F4811141
:101CC00008C08DEA98E190931E0180931D0184E085
:101CD00029C0813041F481EA98E190931E018093FC
:101CE0001D018CE01FC08230E1F489E898E19093F7
:101CF0001E0180931D0188E115C0913241F487E6F1
:101D000098E190931E0180931D0189E00BC09232EF
:101D100041F484E398E190931E0180931D0181E2D8
:101D200001C080E090E490930E0120C0983079F0DB
:101D3000993031F48093220128E131E080E00AC03B
:101D400081E09A3009F080E028E131E003C022E22E
:101D500031E081E030931E0120931D0107C01696EB
:101D60008C9190E890930E010BC080E017969C91A7
:101D70001797911105C016969C91981708F4892F12
:101D8000809307014DC080910E0187FF49C080916B
:101D90000C0190910D0120910B01211109C01196A8
:101DA0008C91119712969C911297149639EF340FDB
:101DB000230F20930B012078482F4F7399F0F8944C
:101DC0006D917D9141E0FC010B0140935700E89536
:101DD00011247894AC014E5F5F4FCA01642F6F737A
:101DE00061F014C0F89443E0FC0140935700E8957B
:101DF000789407B600FCFDCFE2CFF89465E06093DD
:101E00005700E895789407B600FCFDCF325009F0F2
:101E1000D3CF50930D0140930C0121111092070173
:101E200010921F018091080184FF39C08091070141
:101E30008F3FA9F1C82F893008F0C8E08C1B809330
:101E4000070190910F0188E8892780930F01CC2327
:101E5000D1F0E0911D01F0911E0180910E01A0E1F1
:101E6000B1E086FF07C08C2F94919D9331968150ED
:101E7000D9F705C08C2F91919D938150E1F7F09394
:101E80001E01E0931D016C2F80E191E043DDCC5FEA
:101E9000CC3019F08FEF80930701C093080184E1E3
:101EA00099B1947131F48150D9F7109220011092B8
:101EB0001A0180910A01882321F00150110949F487
:101EC0001EC080910E0187FD07C00150110909F461
:101ED000F394D13069F406C0D13009F07CCEF12CF6
:101EE00000E010E0329B19C0339B17C0D2E076CEE1
:101EF000FCE0FF1508F072CED23009F46FCEF894F2
:101F000081E180935700E8951DBA1092690081E045
:101F100085BF15BEE0E0F0E00995FCE0FF1578F321
:101F2000D1E05CCEF894FFCF01400000200000FF1C
:101F30005A00FFFFFFFFFFFFFFFFFFFFFFFFFFFF55
:00000001FF
